{
  "contractName": "EnlistmentToContract",
  "abi": [
    {
      "inputs": [
        {
          "internalType": "string",
          "name": "landlordEmail",
          "type": "string"
        },
        {
          "internalType": "string",
          "name": "streetName",
          "type": "string"
        },
        {
          "internalType": "int256",
          "name": "floorNr",
          "type": "int256"
        },
        {
          "internalType": "int256",
          "name": "apartmentNr",
          "type": "int256"
        },
        {
          "internalType": "int256",
          "name": "houseNr",
          "type": "int256"
        },
        {
          "internalType": "int256",
          "name": "postalCode",
          "type": "int256"
        }
      ],
      "payable": false,
      "stateMutability": "nonpayable",
      "type": "constructor"
    },
    {
      "anonymous": false,
      "inputs": [
        {
          "indexed": false,
          "internalType": "string",
          "name": "streetName",
          "type": "string"
        },
        {
          "indexed": false,
          "internalType": "int256",
          "name": "floorNr",
          "type": "int256"
        },
        {
          "indexed": false,
          "internalType": "int256",
          "name": "apartmentNr",
          "type": "int256"
        },
        {
          "indexed": false,
          "internalType": "int256",
          "name": "houseNr",
          "type": "int256"
        },
        {
          "indexed": false,
          "internalType": "int256",
          "name": "postalCode",
          "type": "int256"
        }
      ],
      "name": "AddEnlistment",
      "type": "event"
    },
    {
      "constant": true,
      "inputs": [
        {
          "internalType": "uint256",
          "name": "",
          "type": "uint256"
        }
      ],
      "name": "enlistments",
      "outputs": [
        {
          "internalType": "string",
          "name": "streetName",
          "type": "string"
        },
        {
          "internalType": "int256",
          "name": "floorNr",
          "type": "int256"
        },
        {
          "internalType": "int256",
          "name": "apartmentNr",
          "type": "int256"
        },
        {
          "internalType": "int256",
          "name": "houseNr",
          "type": "int256"
        },
        {
          "internalType": "int256",
          "name": "postalCode",
          "type": "int256"
        }
      ],
      "payable": false,
      "stateMutability": "view",
      "type": "function"
    },
    {
      "constant": true,
      "inputs": [],
      "name": "locked",
      "outputs": [
        {
          "internalType": "bool",
          "name": "",
          "type": "bool"
        }
      ],
      "payable": false,
      "stateMutability": "view",
      "type": "function"
    },
    {
      "constant": false,
      "inputs": [
        {
          "internalType": "string",
          "name": "streetName",
          "type": "string"
        },
        {
          "internalType": "int256",
          "name": "floorNr",
          "type": "int256"
        },
        {
          "internalType": "int256",
          "name": "apartmentNr",
          "type": "int256"
        },
        {
          "internalType": "int256",
          "name": "houseNr",
          "type": "int256"
        },
        {
          "internalType": "int256",
          "name": "postalCode",
          "type": "int256"
        }
      ],
      "name": "addEnlistmet",
      "outputs": [],
      "payable": false,
      "stateMutability": "nonpayable",
      "type": "function"
    },
    {
      "constant": true,
      "inputs": [],
      "name": "getOwner",
      "outputs": [
        {
          "internalType": "address",
          "name": "",
          "type": "address"
        }
      ],
      "payable": false,
      "stateMutability": "view",
      "type": "function"
    },
    {
      "constant": true,
      "inputs": [],
      "name": "getLandlord",
      "outputs": [
        {
          "internalType": "string",
          "name": "",
          "type": "string"
        }
      ],
      "payable": false,
      "stateMutability": "view",
      "type": "function"
    },
    {
      "constant": true,
      "inputs": [],
      "name": "getEnlistment",
      "outputs": [
        {
          "internalType": "string",
          "name": "",
          "type": "string"
        },
        {
          "internalType": "int256",
          "name": "",
          "type": "int256"
        },
        {
          "internalType": "int256",
          "name": "",
          "type": "int256"
        },
        {
          "internalType": "int256",
          "name": "",
          "type": "int256"
        },
        {
          "internalType": "int256",
          "name": "",
          "type": "int256"
        }
      ],
      "payable": false,
      "stateMutability": "view",
      "type": "function"
    },
    {
      "constant": true,
      "inputs": [],
      "name": "getEnlistments",
      "outputs": [
        {
          "components": [
            {
              "internalType": "string",
              "name": "streetName",
              "type": "string"
            },
            {
              "internalType": "int256",
              "name": "floorNr",
              "type": "int256"
            },
            {
              "internalType": "int256",
              "name": "apartmentNr",
              "type": "int256"
            },
            {
              "internalType": "int256",
              "name": "houseNr",
              "type": "int256"
            },
            {
              "internalType": "int256",
              "name": "postalCode",
              "type": "int256"
            }
          ],
          "internalType": "struct EnlistmentToContract.Enlistment[]",
          "name": "",
          "type": "tuple[]"
        }
      ],
      "payable": false,
      "stateMutability": "view",
      "type": "function"
    },
    {
      "constant": false,
      "inputs": [
        {
          "internalType": "int256",
          "name": "amount",
          "type": "int256"
        },
        {
          "internalType": "string",
          "name": "tenantName",
          "type": "string"
        },
        {
          "internalType": "string",
          "name": "tenantEmail",
          "type": "string"
        }
      ],
      "name": "sendOffer",
      "outputs": [],
      "payable": true,
      "stateMutability": "payable",
      "type": "function"
    },
    {
      "constant": false,
      "inputs": [
        {
          "internalType": "string",
          "name": "tenantEmail",
          "type": "string"
        }
      ],
      "name": "cancelOffer",
      "outputs": [],
      "payable": true,
      "stateMutability": "payable",
      "type": "function"
    },
    {
      "constant": true,
      "inputs": [
        {
          "internalType": "string",
          "name": "tenantEmail",
          "type": "string"
        }
      ],
      "name": "getOffer",
      "outputs": [
        {
          "internalType": "bool",
          "name": "",
          "type": "bool"
        },
        {
          "internalType": "int256",
          "name": "",
          "type": "int256"
        },
        {
          "internalType": "string",
          "name": "",
          "type": "string"
        },
        {
          "internalType": "string",
          "name": "",
          "type": "string"
        },
        {
          "internalType": "enum EnlistmentToContract.OfferStatus",
          "name": "",
          "type": "uint8"
        }
      ],
      "payable": false,
      "stateMutability": "view",
      "type": "function"
    },
    {
      "constant": false,
      "inputs": [
        {
          "internalType": "bool",
          "name": "result",
          "type": "bool"
        },
        {
          "internalType": "string",
          "name": "tenantEmail",
          "type": "string"
        }
      ],
      "name": "reviewOffer",
      "outputs": [],
      "payable": true,
      "stateMutability": "payable",
      "type": "function"
    },
    {
      "constant": false,
      "inputs": [
        {
          "internalType": "string",
          "name": "tenantEmail",
          "type": "string"
        },
        {
          "internalType": "string",
          "name": "landlordName",
          "type": "string"
        },
        {
          "internalType": "string",
          "name": "agreementTenantName",
          "type": "string"
        },
        {
          "internalType": "string",
          "name": "agreementTenantEmail",
          "type": "string"
        },
        {
          "internalType": "uint256",
          "name": "leaseStart",
          "type": "uint256"
        },
        {
          "internalType": "uint256",
          "name": "handoverDate",
          "type": "uint256"
        },
        {
          "internalType": "uint256",
          "name": "leasePeriod",
          "type": "uint256"
        },
        {
          "internalType": "string",
          "name": "otherTerms",
          "type": "string"
        },
        {
          "internalType": "string",
          "name": "hashStr",
          "type": "string"
        }
      ],
      "name": "submitDraft",
      "outputs": [],
      "payable": true,
      "stateMutability": "payable",
      "type": "function"
    },
    {
      "constant": true,
      "inputs": [
        {
          "internalType": "string",
          "name": "tenantEmail",
          "type": "string"
        }
      ],
      "name": "getAgreementParticipants",
      "outputs": [
        {
          "internalType": "string",
          "name": "",
          "type": "string"
        },
        {
          "internalType": "string",
          "name": "",
          "type": "string"
        },
        {
          "internalType": "string",
          "name": "",
          "type": "string"
        }
      ],
      "payable": false,
      "stateMutability": "view",
      "type": "function"
    },
    {
      "constant": true,
      "inputs": [
        {
          "internalType": "string",
          "name": "tenantEmail",
          "type": "string"
        }
      ],
      "name": "getAgreementDetails",
      "outputs": [
        {
          "internalType": "int256",
          "name": "",
          "type": "int256"
        },
        {
          "internalType": "uint256",
          "name": "",
          "type": "uint256"
        },
        {
          "internalType": "uint256",
          "name": "",
          "type": "uint256"
        },
        {
          "internalType": "uint256",
          "name": "",
          "type": "uint256"
        },
        {
          "internalType": "string",
          "name": "",
          "type": "string"
        }
      ],
      "payable": false,
      "stateMutability": "view",
      "type": "function"
    },
    {
      "constant": true,
      "inputs": [
        {
          "internalType": "string",
          "name": "tenantEmail",
          "type": "string"
        }
      ],
      "name": "getAgreementHashes",
      "outputs": [
        {
          "internalType": "string",
          "name": "",
          "type": "string"
        },
        {
          "internalType": "string",
          "name": "",
          "type": "string"
        },
        {
          "internalType": "string",
          "name": "",
          "type": "string"
        }
      ],
      "payable": false,
      "stateMutability": "view",
      "type": "function"
    },
    {
      "constant": true,
      "inputs": [
        {
          "internalType": "string",
          "name": "tenantEmail",
          "type": "string"
        }
      ],
      "name": "getAgreementStatus",
      "outputs": [
        {
          "internalType": "enum EnlistmentToContract.AgreementStatus",
          "name": "",
          "type": "uint8"
        }
      ],
      "payable": false,
      "stateMutability": "view",
      "type": "function"
    },
    {
      "constant": false,
      "inputs": [
        {
          "internalType": "string",
          "name": "tenantEmail",
          "type": "string"
        },
        {
          "internalType": "bool",
          "name": "result",
          "type": "bool"
        }
      ],
      "name": "reviewAgreement",
      "outputs": [],
      "payable": true,
      "stateMutability": "payable",
      "type": "function"
    },
    {
      "constant": false,
      "inputs": [
        {
          "internalType": "string",
          "name": "tenantEmail",
          "type": "string"
        },
        {
          "internalType": "string",
          "name": "landlordSignedHash",
          "type": "string"
        }
      ],
      "name": "landlordSignAgreement",
      "outputs": [],
      "payable": true,
      "stateMutability": "payable",
      "type": "function"
    },
    {
      "constant": false,
      "inputs": [
        {
          "internalType": "string",
          "name": "tenantEmail",
          "type": "string"
        },
        {
          "internalType": "string",
          "name": "tenantSignedHash",
          "type": "string"
        }
      ],
      "name": "tenantSignAgreement",
      "outputs": [],
      "payable": true,
      "stateMutability": "payable",
      "type": "function"
    },
    {
      "constant": false,
      "inputs": [
        {
          "internalType": "string",
          "name": "tenantEmail",
          "type": "string"
        }
      ],
      "name": "cancelAgreement",
      "outputs": [],
      "payable": true,
      "stateMutability": "payable",
      "type": "function"
    },
    {
      "constant": false,
      "inputs": [
        {
          "internalType": "string",
          "name": "tenantEmail",
          "type": "string"
        }
      ],
      "name": "receiveFirstMonthRent",
      "outputs": [],
      "payable": true,
      "stateMutability": "payable",
      "type": "function"
    },
    {
      "constant": false,
      "inputs": [
        {
          "internalType": "string",
          "name": "tenantEmail",
          "type": "string"
        },
        {
          "internalType": "uint256",
          "name": "amount",
          "type": "uint256"
        }
      ],
      "name": "receiveMonthlyRent",
      "outputs": [],
      "payable": true,
      "stateMutability": "payable",
      "type": "function"
    }
  ],
  "bytecode": "0x60806040526000600360006101000a81548160ff0219169083151502179055503480156200002c57600080fd5b5060405162003c8c38038062003c8c8339818101604052620000529190810190620002d4565b6040518060a001604052808681526020018581526020018481526020018381526020018281525060046000820151816000019080519060200190620000999291906200012b565b50602082015181600101556040820151816002015560608201518160030155608082015181600401559050508560029080519060200190620000dd929190620001b2565b5033600160006101000a81548173ffffffffffffffffffffffffffffffffffffffff021916908373ffffffffffffffffffffffffffffffffffffffff16021790555050505050505062000451565b828054600181600116156101000203166002900490600052602060002090601f016020900481019282601f106200016e57805160ff19168380011785556200019f565b828001600101855582156200019f579182015b828111156200019e57825182559160200191906001019062000181565b5b509050620001ae919062000239565b5090565b828054600181600116156101000203166002900490600052602060002090601f016020900481019282601f10620001f557805160ff191683800117855562000226565b8280016001018555821562000226579182015b828111156200022557825182559160200191906001019062000208565b5b50905062000235919062000239565b5090565b6200025e91905b808211156200025a57600081600090555060010162000240565b5090565b90565b600081519050620002728162000437565b92915050565b600082601f8301126200028a57600080fd5b8151620002a16200029b82620003ca565b6200039c565b91508082526020830160208301858383011115620002be57600080fd5b620002cb83828462000401565b50505092915050565b60008060008060008060c08789031215620002ee57600080fd5b600087015167ffffffffffffffff8111156200030957600080fd5b6200031789828a0162000278565b965050602087015167ffffffffffffffff8111156200033557600080fd5b6200034389828a0162000278565b95505060406200035689828a0162000261565b94505060606200036989828a0162000261565b93505060806200037c89828a0162000261565b92505060a06200038f89828a0162000261565b9150509295509295509295565b6000604051905081810181811067ffffffffffffffff82111715620003c057600080fd5b8060405250919050565b600067ffffffffffffffff821115620003e257600080fd5b601f19601f8301169050602081019050919050565b6000819050919050565b60005b838110156200042157808201518184015260208101905062000404565b8381111562000431576000848401525b50505050565b6200044281620003f7565b81146200044e57600080fd5b50565b61382b80620004616000396000f3fe608060405260043610610151576000357c01000000000000000000000000000000000000000000000000000000009004806371ca1587116100c8578063cf3090121161008c578063cf309012146103e6578063d441a15214610411578063d6ce411214610450578063ec2b2a121461046c578063f278f784146104a9578063f502236d146104c557610151565b806371ca1587146102e75780637a51011614610326578063893d20e814610367578063a88d8c2614610392578063ca9e04b3146103bd57610151565b80632d63ce271161011a5780632d63ce27146102075780632fcc176d1461022357806331ae8ed01461023f5780634d45780e1461026e578063601efb5c1461028a578063673a95ef146102cb57610151565b8062ff22c61461015657806303746e0614610172578063222a7af91461018e578063265adc33146101aa5780632c863d84146101eb575b600080fd5b610170600480360361016b9190810190612cfb565b6104f0565b005b61018c60048036036101879190810190612cfb565b6106b2565b005b6101a860048036036101a39190810190612d67565b6108a9565b005b3480156101b657600080fd5b506101d160048036036101cc9190810190612bd7565b610c79565b6040516101e29594939291906133a9565b60405180910390f35b61020560048036036102009190810190612b58565b610dc5565b005b610221600480360361021c9190810190612bd7565b61100d565b005b61023d60048036036102389190810190612b04565b6112ab565b005b34801561024b57600080fd5b506102546113ef565b604051610265959493929190613425565b60405180910390f35b61028860048036036102839190810190612bd7565b61151a565b005b34801561029657600080fd5b506102b160048036036102ac9190810190612f11565b6116a5565b6040516102c29594939291906134cb565b60405180910390f35b6102e560048036036102e09190810190612c18565b611780565b005b3480156102f357600080fd5b5061030e60048036036103099190810190612bd7565b611919565b60405161031d9392919061347f565b60405180910390f35b34801561033257600080fd5b5061034d60048036036103489190810190612bd7565b611b88565b60405161035e95949392919061332d565b60405180910390f35b34801561037357600080fd5b5061037c611d89565b60405161038991906132d5565b60405180910390f35b34801561039e57600080fd5b506103a7611e0d565b6040516103b491906132f0565b60405180910390f35b3480156103c957600080fd5b506103e460048036036103df9190810190612c6c565b611f36565b005b3480156103f257600080fd5b506103fb612233565b6040516104089190613312565b60405180910390f35b34801561041d57600080fd5b5061043860048036036104339190810190612bd7565b612246565b6040516104479392919061347f565b60405180910390f35b61046a60048036036104659190810190612ebd565b6124b5565b005b34801561047857600080fd5b50610493600480360361048e9190810190612bd7565b612605565b6040516104a0919061338e565b60405180910390f35b6104c360048036036104be9190810190612bd7565b61269d565b005b3480156104d157600080fd5b506104da612814565b6040516104e79190613403565b60405180910390f35b600160009054906101000a900473ffffffffffffffffffffffffffffffffffffffff1673ffffffffffffffffffffffffffffffffffffffff163373ffffffffffffffffffffffffffffffffffffffff161461054a57600080fd5b816001151560098260405161055f91906132be565b908152602001604051809103902060000160009054906101000a900460ff1615151461058a57600080fd5b60038381600381111561059957fe5b6009826040516105a991906132be565b908152602001604051809103902060040160009054906101000a900460ff1660038111156105d357fe5b146105dd57600080fd5b6005858160078111156105ec57fe5b600a826040516105fc91906132be565b9081526020016040518091039020600b0160009054906101000a900460ff16600781111561062657fe5b1461063057600080fd5b85600a8860405161064191906132be565b9081526020016040518091039020600a019080519060200190610665929190612910565b506006600a8860405161067891906132be565b9081526020016040518091039020600b0160006101000a81548160ff021916908360078111156106a457fe5b021790555050505050505050565b600160009054906101000a900473ffffffffffffffffffffffffffffffffffffffff1673ffffffffffffffffffffffffffffffffffffffff163373ffffffffffffffffffffffffffffffffffffffff161461070c57600080fd5b600360009054906101000a900460ff161561072657600080fd5b816001151560098260405161073b91906132be565b908152602001604051809103902060000160009054906101000a900460ff1615151461076657600080fd5b60038381600381111561077557fe5b60098260405161078591906132be565b908152602001604051809103902060040160009054906101000a900460ff1660038111156107af57fe5b146107b957600080fd5b6003858160078111156107c857fe5b600a826040516107d891906132be565b9081526020016040518091039020600b0160009054906101000a900460ff16600781111561080257fe5b1461080c57600080fd5b85600a8860405161081d91906132be565b90815260200160405180910390206009019080519060200190610841929190612910565b506005600a8860405161085491906132be565b9081526020016040518091039020600b0160006101000a81548160ff0219169083600781111561088057fe5b02179055506001600360006101000a81548160ff02191690831515021790555050505050505050565b600160009054906101000a900473ffffffffffffffffffffffffffffffffffffffff1673ffffffffffffffffffffffffffffffffffffffff163373ffffffffffffffffffffffffffffffffffffffff161461090357600080fd5b886001151560098260405161091891906132be565b908152602001604051809103902060000160009054906101000a900460ff1615151461094357600080fd5b60038a81600381111561095257fe5b60098260405161096291906132be565b908152602001604051809103902060040160009054906101000a900460ff16600381111561098c57fe5b1461099657600080fd5b8b600060078111156109a457fe5b600a826040516109b491906132be565b9081526020016040518091039020600b0160009054906101000a900460ff1660078111156109de57fe5b1480610a2e5750600260078111156109f257fe5b600a82604051610a0291906132be565b9081526020016040518091039020600b0160009054906101000a900460ff166007811115610a2c57fe5b145b80610a7d575060046007811115610a4157fe5b600a82604051610a5191906132be565b9081526020016040518091039020600b0160009054906101000a900460ff166007811115610a7b57fe5b145b610a8657600080fd5b600060098e604051610a9891906132be565b90815260200160405180910390206001015490506040518061018001604052808e81526020018d81526020018c81526020018281526020018b81526020018a815260200189815260200188815260200187815260200160405180602001604052806000815250815260200160405180602001604052806000815250815260200160016007811115610b2557fe5b815250600a8f604051610b3891906132be565b90815260200160405180910390206000820151816000019080519060200190610b62929190612990565b506020820151816001019080519060200190610b7f929190612990565b506040820151816002019080519060200190610b9c929190612990565b50606082015181600301556080820151816004015560a0820151816005015560c0820151816006015560e0820151816007019080519060200190610be1929190612990565b50610100820151816008019080519060200190610bff929190612990565b50610120820151816009019080519060200190610c1d929190612990565b5061014082015181600a019080519060200190610c3b929190612990565b5061016082015181600b0160006101000a81548160ff02191690836007811115610c6157fe5b02179055509050505050505050505050505050505050565b6000806000806060600160009054906101000a900473ffffffffffffffffffffffffffffffffffffffff1673ffffffffffffffffffffffffffffffffffffffff163373ffffffffffffffffffffffffffffffffffffffff1614610cdb57600080fd5b6000600a87604051610ced91906132be565b90815260200160405180910390209050806003015481600401548260050154836006015484600701808054600181600116156101000203166002900480601f016020809104026020016040519081016040528092919081815260200182805460018160011615610100020316600290048015610daa5780601f10610d7f57610100808354040283529160200191610daa565b820191906000526020600020905b815481529060010190602001808311610d8d57829003601f168201915b50505050509050955095509550955095505091939590929450565b600160009054906101000a900473ffffffffffffffffffffffffffffffffffffffff1673ffffffffffffffffffffffffffffffffffffffff163373ffffffffffffffffffffffffffffffffffffffff1614610e1f57600080fd5b8060001515600982604051610e3491906132be565b908152602001604051809103902060000160009054906101000a900460ff1615151480610ea5575060016003811115610e6957fe5b600982604051610e7991906132be565b908152602001604051809103902060040160009054906101000a900460ff166003811115610ea357fe5b145b80610ef4575060026003811115610eb857fe5b600982604051610ec891906132be565b908152602001604051809103902060040160009054906101000a900460ff166003811115610ef257fe5b145b610efd57600080fd5b600360009054906101000a900460ff1615610f1757600080fd5b610f1f612a10565b6040518060a0016040528060011515815260200186815260200185815260200184815260200160006003811115610f5257fe5b815250905080600984604051610f6891906132be565b908152602001604051809103902060008201518160000160006101000a81548160ff021916908315150217905550602082015181600101556040820151816002019080519060200190610fbc929190612990565b506060820151816003019080519060200190610fd9929190612990565b5060808201518160040160006101000a81548160ff02191690836003811115610ffe57fe5b02179055509050505050505050565b600160009054906101000a900473ffffffffffffffffffffffffffffffffffffffff1673ffffffffffffffffffffffffffffffffffffffff163373ffffffffffffffffffffffffffffffffffffffff161461106757600080fd5b806001151560098260405161107c91906132be565b908152602001604051809103902060000160009054906101000a900460ff161515146110a757600080fd5b8160006009826040516110ba91906132be565b908152602001604051809103902060040160009054906101000a900460ff169050600060038111156110e857fe5b8160038111156110f457fe5b1480611115575060038081111561110757fe5b81600381111561111357fe5b145b61111e57600080fd5b6000600a8360405161113091906132be565b9081526020016040518091039020600b0160009054906101000a900460ff1690506004600781111561115e57fe5b81600781111561116a57fe5b148061118c57506006600781111561117e57fe5b81600781111561118a57fe5b145b806111ac575060078081111561119e57fe5b8160078111156111aa57fe5b145b156111b657600080fd5b60026009866040516111c891906132be565b908152602001604051809103902060040160006101000a81548160ff021916908360038111156111f457fe5b02179055506000600781111561120657fe5b600a8660405161121691906132be565b9081526020016040518091039020600b0160009054906101000a900460ff16600781111561124057fe5b14611289576004600a8660405161125791906132be565b9081526020016040518091039020600b0160006101000a81548160ff0219169083600781111561128357fe5b02179055505b6000600360006101000a81548160ff0219169083151502179055505050505050565b600160009054906101000a900473ffffffffffffffffffffffffffffffffffffffff1673ffffffffffffffffffffffffffffffffffffffff163373ffffffffffffffffffffffffffffffffffffffff161461130557600080fd5b806001151560098260405161131a91906132be565b908152602001604051809103902060000160009054906101000a900460ff1615151461134557600080fd5b60008281600381111561135457fe5b60098260405161136491906132be565b908152602001604051809103902060040160009054906101000a900460ff16600381111561138e57fe5b1461139857600080fd5b846113a45760016113a7565b60035b6009856040516113b791906132be565b908152602001604051809103902060040160006101000a81548160ff021916908360038111156113e357fe5b02179055505050505050565b6060600080600080600160009054906101000a900473ffffffffffffffffffffffffffffffffffffffff1673ffffffffffffffffffffffffffffffffffffffff163373ffffffffffffffffffffffffffffffffffffffff161461145157600080fd5b60046000016004600101546004600201546004600301546004800154848054600181600116156101000203166002900480601f0160208091040260200160405190810160405280929190818152602001828054600181600116156101000203166002900480156115025780601f106114d757610100808354040283529160200191611502565b820191906000526020600020905b8154815290600101906020018083116114e557829003601f168201915b50505050509450945094509450945094509091929394565b600160009054906101000a900473ffffffffffffffffffffffffffffffffffffffff1673ffffffffffffffffffffffffffffffffffffffff163373ffffffffffffffffffffffffffffffffffffffff161461157457600080fd5b806001151560098260405161158991906132be565b908152602001604051809103902060000160009054906101000a900460ff161515146115b457600080fd5b6003828160038111156115c357fe5b6009826040516115d391906132be565b908152602001604051809103902060040160009054906101000a900460ff1660038111156115fd57fe5b1461160757600080fd5b60068481600781111561161657fe5b600a8260405161162691906132be565b9081526020016040518091039020600b0160009054906101000a900460ff16600781111561165057fe5b1461165a57600080fd5b6007600a8760405161166c91906132be565b9081526020016040518091039020600b0160006101000a81548160ff0219169083600781111561169857fe5b0217905550505050505050565b600081815481106116b257fe5b9060005260206000209060050201600091509050806000018054600181600116156101000203166002900480601f01602080910402602001604051908101604052809291908181526020018280546001816001161561010002031660029004801561175e5780601f106117335761010080835404028352916020019161175e565b820191906000526020600020905b81548152906001019060200180831161174157829003601f168201915b5050505050908060010154908060020154908060030154908060040154905085565b600160009054906101000a900473ffffffffffffffffffffffffffffffffffffffff1673ffffffffffffffffffffffffffffffffffffffff163373ffffffffffffffffffffffffffffffffffffffff16146117da57600080fd5b81600115156009826040516117ef91906132be565b908152602001604051809103902060000160009054906101000a900460ff1615151461181a57600080fd5b60038381600381111561182957fe5b60098260405161183991906132be565b908152602001604051809103902060040160009054906101000a900460ff16600381111561186357fe5b1461186d57600080fd5b60018581600781111561187c57fe5b600a8260405161188c91906132be565b9081526020016040518091039020600b0160009054906101000a900460ff1660078111156118b657fe5b146118c057600080fd5b856118cc5760026118cf565b60035b600a886040516118df91906132be565b9081526020016040518091039020600b0160006101000a81548160ff0219169083600781111561190b57fe5b021790555050505050505050565b6060806060600160009054906101000a900473ffffffffffffffffffffffffffffffffffffffff1673ffffffffffffffffffffffffffffffffffffffff163373ffffffffffffffffffffffffffffffffffffffff161461197857600080fd5b6000600a8560405161198a91906132be565b90815260200160405180910390209050806000018160010182600201828054600181600116156101000203166002900480601f016020809104026020016040519081016040528092919081815260200182805460018160011615610100020316600290048015611a3b5780601f10611a1057610100808354040283529160200191611a3b565b820191906000526020600020905b815481529060010190602001808311611a1e57829003601f168201915b50505050509250818054600181600116156101000203166002900480601f016020809104026020016040519081016040528092919081815260200182805460018160011615610100020316600290048015611ad75780601f10611aac57610100808354040283529160200191611ad7565b820191906000526020600020905b815481529060010190602001808311611aba57829003601f168201915b50505050509150808054600181600116156101000203166002900480601f016020809104026020016040519081016040528092919081815260200182805460018160011615610100020316600290048015611b735780601f10611b4857610100808354040283529160200191611b73565b820191906000526020600020905b815481529060010190602001808311611b5657829003601f168201915b50505050509050935093509350509193909250565b6000806060806000600160009054906101000a900473ffffffffffffffffffffffffffffffffffffffff1673ffffffffffffffffffffffffffffffffffffffff163373ffffffffffffffffffffffffffffffffffffffff1614611bea57600080fd5b6000600987604051611bfc91906132be565b908152602001604051809103902090508060000160009054906101000a900460ff16816001015482600201836003018460040160009054906101000a900460ff16828054600181600116156101000203166002900480601f016020809104026020016040519081016040528092919081815260200182805460018160011615610100020316600290048015611cd25780601f10611ca757610100808354040283529160200191611cd2565b820191906000526020600020905b815481529060010190602001808311611cb557829003601f168201915b50505050509250818054600181600116156101000203166002900480601f016020809104026020016040519081016040528092919081815260200182805460018160011615610100020316600290048015611d6e5780601f10611d4357610100808354040283529160200191611d6e565b820191906000526020600020905b815481529060010190602001808311611d5157829003601f168201915b50505050509150955095509550955095505091939590929450565b6000600160009054906101000a900473ffffffffffffffffffffffffffffffffffffffff1673ffffffffffffffffffffffffffffffffffffffff163373ffffffffffffffffffffffffffffffffffffffff1614611de557600080fd5b600160009054906101000a900473ffffffffffffffffffffffffffffffffffffffff16905090565b60606000805480602002602001604051908101604052809291908181526020016000905b82821015611f2d57838290600052602060002090600502016040518060a0016040529081600082018054600181600116156101000203166002900480601f016020809104026020016040519081016040528092919081815260200182805460018160011615610100020316600290048015611eed5780601f10611ec257610100808354040283529160200191611eed565b820191906000526020600020905b815481529060010190602001808311611ed057829003601f168201915b5050505050815260200160018201548152602001600282015481526020016003820154815260200160048201548152505081526020019060010190611e31565b50505050905090565b600160009054906101000a900473ffffffffffffffffffffffffffffffffffffffff1673ffffffffffffffffffffffffffffffffffffffff163373ffffffffffffffffffffffffffffffffffffffff1614611f9057600080fd5b6000855111611fd4576040517f08c379a0000000000000000000000000000000000000000000000000000000008152600401611fcb90613565565b60405180910390fd5b60008413612017576040517f08c379a000000000000000000000000000000000000000000000000000000000815260040161200e90613525565b60405180910390fd5b6000831361205a576040517f08c379a000000000000000000000000000000000000000000000000000000000815260040161205190613545565b60405180910390fd5b6000821361209d576040517f08c379a000000000000000000000000000000000000000000000000000000000815260040161209490613585565b60405180910390fd5b600081136120e0576040517f08c379a00000000000000000000000000000000000000000000000000000000081526004016120d7906135a5565b60405180910390fd5b6040518060a001604052808681526020018581526020018481526020018381526020018281525060046000820151816000019080519060200190612125929190612990565b506020820151816001015560408201518160020155606082015181600301556080820151816004015590505060006040518060a00160405280878152602001868152602001858152602001848152602001838152509080600181540180825580915050906001820390600052602060002090600502016000909192909190915060008201518160000190805190602001906121c1929190612990565b50602082015181600101556040820151816002015560608201518160030155608082015181600401555050507f4b86d1555e817a396429eba07835600387be3aaef4171b2fe65454c180a675148585858585604051612224959493929190613425565b60405180910390a15050505050565b600360009054906101000a900460ff1681565b6060806060600160009054906101000a900473ffffffffffffffffffffffffffffffffffffffff1673ffffffffffffffffffffffffffffffffffffffff163373ffffffffffffffffffffffffffffffffffffffff16146122a557600080fd5b6000600a856040516122b791906132be565b90815260200160405180910390209050806008018160090182600a01828054600181600116156101000203166002900480601f0160208091040260200160405190810160405280929190818152602001828054600181600116156101000203166002900480156123685780601f1061233d57610100808354040283529160200191612368565b820191906000526020600020905b81548152906001019060200180831161234b57829003601f168201915b50505050509250818054600181600116156101000203166002900480601f0160208091040260200160405190810160405280929190818152602001828054600181600116156101000203166002900480156124045780601f106123d957610100808354040283529160200191612404565b820191906000526020600020905b8154815290600101906020018083116123e757829003601f168201915b50505050509150808054600181600116156101000203166002900480601f0160208091040260200160405190810160405280929190818152602001828054600181600116156101000203166002900480156124a05780601f10612475576101008083540402835291602001916124a0565b820191906000526020600020905b81548152906001019060200180831161248357829003601f168201915b50505050509050935093509350509193909250565b600160009054906101000a900473ffffffffffffffffffffffffffffffffffffffff1673ffffffffffffffffffffffffffffffffffffffff163373ffffffffffffffffffffffffffffffffffffffff161461250f57600080fd5b816001151560098260405161252491906132be565b908152602001604051809103902060000160009054906101000a900460ff1615151461254f57600080fd5b60038381600381111561255e57fe5b60098260405161256e91906132be565b908152602001604051809103902060040160009054906101000a900460ff16600381111561259857fe5b146125a257600080fd5b6007858160078111156125b157fe5b600a826040516125c191906132be565b9081526020016040518091039020600b0160009054906101000a900460ff1660078111156125eb57fe5b146125f557600080fd5b85600b8190555050505050505050565b6000600160009054906101000a900473ffffffffffffffffffffffffffffffffffffffff1673ffffffffffffffffffffffffffffffffffffffff163373ffffffffffffffffffffffffffffffffffffffff161461266157600080fd5b6000600a8360405161267391906132be565b9081526020016040518091039020905080600b0160009054906101000a900460ff16915050919050565b600160009054906101000a900473ffffffffffffffffffffffffffffffffffffffff1673ffffffffffffffffffffffffffffffffffffffff163373ffffffffffffffffffffffffffffffffffffffff16146126f757600080fd5b806000600a8260405161270a91906132be565b9081526020016040518091039020600b0160009054906101000a900460ff1690506004600781111561273857fe5b81600781111561274457fe5b148061276657506006600781111561275857fe5b81600781111561276457fe5b145b80612786575060078081111561277857fe5b81600781111561278457fe5b145b806127a757506002600781111561279957fe5b8160078111156127a557fe5b145b156127b157600080fd5b6004600a846040516127c391906132be565b9081526020016040518091039020600b0160006101000a81548160ff021916908360078111156127ef57fe5b02179055506000600360006101000a81548160ff021916908315150217905550505050565b6060600160009054906101000a900473ffffffffffffffffffffffffffffffffffffffff1673ffffffffffffffffffffffffffffffffffffffff163373ffffffffffffffffffffffffffffffffffffffff161461287057600080fd5b60028054600181600116156101000203166002900480601f0160208091040260200160405190810160405280929190818152602001828054600181600116156101000203166002900480156129065780601f106128db57610100808354040283529160200191612906565b820191906000526020600020905b8154815290600101906020018083116128e957829003601f168201915b5050505050905090565b828054600181600116156101000203166002900490600052602060002090601f016020900481019282601f1061295157805160ff191683800117855561297f565b8280016001018555821561297f579182015b8281111561297e578251825591602001919060010190612963565b5b50905061298c9190612a4c565b5090565b828054600181600116156101000203166002900490600052602060002090601f016020900481019282601f106129d157805160ff19168380011785556129ff565b828001600101855582156129ff579182015b828111156129fe5782518255916020019190600101906129e3565b5b509050612a0c9190612a4c565b5090565b6040518060a0016040528060001515815260200160008152602001606081526020016060815260200160006003811115612a4657fe5b81525090565b612a6e91905b80821115612a6a576000816000905550600101612a52565b5090565b90565b600081359050612a80816137a3565b92915050565b600081359050612a95816137ba565b92915050565b600082601f830112612aac57600080fd5b8135612abf612aba826135f2565b6135c5565b91508082526020830160208301858383011115612adb57600080fd5b612ae6838284613736565b50505092915050565b600081359050612afe816137d1565b92915050565b60008060408385031215612b1757600080fd5b6000612b2585828601612a71565b925050602083013567ffffffffffffffff811115612b4257600080fd5b612b4e85828601612a9b565b9150509250929050565b600080600060608486031215612b6d57600080fd5b6000612b7b86828701612a86565b935050602084013567ffffffffffffffff811115612b9857600080fd5b612ba486828701612a9b565b925050604084013567ffffffffffffffff811115612bc157600080fd5b612bcd86828701612a9b565b9150509250925092565b600060208284031215612be957600080fd5b600082013567ffffffffffffffff811115612c0357600080fd5b612c0f84828501612a9b565b91505092915050565b60008060408385031215612c2b57600080fd5b600083013567ffffffffffffffff811115612c4557600080fd5b612c5185828601612a9b565b9250506020612c6285828601612a71565b9150509250929050565b600080600080600060a08688031215612c8457600080fd5b600086013567ffffffffffffffff811115612c9e57600080fd5b612caa88828901612a9b565b9550506020612cbb88828901612a86565b9450506040612ccc88828901612a86565b9350506060612cdd88828901612a86565b9250506080612cee88828901612a86565b9150509295509295909350565b60008060408385031215612d0e57600080fd5b600083013567ffffffffffffffff811115612d2857600080fd5b612d3485828601612a9b565b925050602083013567ffffffffffffffff811115612d5157600080fd5b612d5d85828601612a9b565b9150509250929050565b60008060008060008060008060006101208a8c031215612d8657600080fd5b60008a013567ffffffffffffffff811115612da057600080fd5b612dac8c828d01612a9b565b99505060208a013567ffffffffffffffff811115612dc957600080fd5b612dd58c828d01612a9b565b98505060408a013567ffffffffffffffff811115612df257600080fd5b612dfe8c828d01612a9b565b97505060608a013567ffffffffffffffff811115612e1b57600080fd5b612e278c828d01612a9b565b9650506080612e388c828d01612aef565b95505060a0612e498c828d01612aef565b94505060c0612e5a8c828d01612aef565b93505060e08a013567ffffffffffffffff811115612e7757600080fd5b612e838c828d01612a9b565b9250506101008a013567ffffffffffffffff811115612ea157600080fd5b612ead8c828d01612a9b565b9150509295985092959850929598565b60008060408385031215612ed057600080fd5b600083013567ffffffffffffffff811115612eea57600080fd5b612ef685828601612a9b565b9250506020612f0785828601612aef565b9150509250929050565b600060208284031215612f2357600080fd5b6000612f3184828501612aef565b91505092915050565b6000612f468383613239565b905092915050565b612f578161369a565b82525050565b6000612f688261362e565b612f72818561365c565b935083602082028501612f848561361e565b8060005b85811015612fc05784840389528151612fa18582612f3a565b9450612fac8361364f565b925060208a01995050600181019050612f88565b50829750879550505050505092915050565b612fdb816136ac565b82525050565b612fea81613712565b82525050565b612ff981613724565b82525050565b613008816136de565b82525050565b613017816136de565b82525050565b600061302882613644565b613032818561367e565b9350613042818560208601613745565b61304b81613778565b840191505092915050565b600061306182613644565b61306b818561368f565b935061307b818560208601613745565b80840191505092915050565b600061309282613639565b61309c818561366d565b93506130ac818560208601613745565b6130b581613778565b840191505092915050565b60006130cb82613639565b6130d5818561367e565b93506130e5818560208601613745565b6130ee81613778565b840191505092915050565b6000613106600f8361367e565b91507f4d75737420626520612076616c756500000000000000000000000000000000006000830152602082019050919050565b600061314660178361367e565b91507f4d75737420626520612076616c696420666c6f72654e720000000000000000006000830152602082019050919050565b6000613186601b8361367e565b91507f4d75737420626520612076616c696420737472656574204e616d6500000000006000830152602082019050919050565b60006131c660178361367e565b91507f4d75737420626520612076616c696420686f7573654e720000000000000000006000830152602082019050919050565b6000613206601a8361367e565b91507f4d75737420626520612076616c696420706f7374616c436f64650000000000006000830152602082019050919050565b600060a08301600083015184820360008601526132568282613087565b915050602083015161326b6020860182612fff565b50604083015161327e6040860182612fff565b5060608301516132916060860182612fff565b5060808301516132a46080860182612fff565b508091505092915050565b6132b881613708565b82525050565b60006132ca8284613056565b915081905092915050565b60006020820190506132ea6000830184612f4e565b92915050565b6000602082019050818103600083015261330a8184612f5d565b905092915050565b60006020820190506133276000830184612fd2565b92915050565b600060a0820190506133426000830188612fd2565b61334f602083018761300e565b8181036040830152613361818661301d565b90508181036060830152613375818561301d565b90506133846080830184612ff0565b9695505050505050565b60006020820190506133a36000830184612fe1565b92915050565b600060a0820190506133be600083018861300e565b6133cb60208301876132af565b6133d860408301866132af565b6133e560608301856132af565b81810360808301526133f7818461301d565b90509695505050505050565b6000602082019050818103600083015261341d818461301d565b905092915050565b600060a082019050818103600083015261343f818861301d565b905061344e602083018761300e565b61345b604083018661300e565b613468606083018561300e565b613475608083018461300e565b9695505050505050565b60006060820190508181036000830152613499818661301d565b905081810360208301526134ad818561301d565b905081810360408301526134c1818461301d565b9050949350505050565b600060a08201905081810360008301526134e581886130c0565b90506134f4602083018761300e565b613501604083018661300e565b61350e606083018561300e565b61351b608083018461300e565b9695505050505050565b6000602082019050818103600083015261353e816130f9565b9050919050565b6000602082019050818103600083015261355e81613139565b9050919050565b6000602082019050818103600083015261357e81613179565b9050919050565b6000602082019050818103600083015261359e816131b9565b9050919050565b600060208201905081810360008301526135be816131f9565b9050919050565b6000604051905081810181811067ffffffffffffffff821117156135e857600080fd5b8060405250919050565b600067ffffffffffffffff82111561360957600080fd5b601f19601f8301169050602081019050919050565b6000819050602082019050919050565b600081519050919050565b600081519050919050565b600081519050919050565b6000602082019050919050565b600082825260208201905092915050565b600082825260208201905092915050565b600082825260208201905092915050565b600081905092915050565b60006136a5826136e8565b9050919050565b60008115159050919050565b60008190506136c682613789565b919050565b60008190506136d982613796565b919050565b6000819050919050565b600073ffffffffffffffffffffffffffffffffffffffff82169050919050565b6000819050919050565b600061371d826136b8565b9050919050565b600061372f826136cb565b9050919050565b82818337600083830152505050565b60005b83811015613763578082015181840152602081019050613748565b83811115613772576000848401525b50505050565b6000601f19601f8301169050919050565b6008811061379357fe5b50565b600481106137a057fe5b50565b6137ac816136ac565b81146137b757600080fd5b50565b6137c3816136de565b81146137ce57600080fd5b50565b6137da81613708565b81146137e557600080fd5b5056fea365627a7a72315820c3b23163411f6f3827aeea01d0df0fa45ab4894da5bc0a95b4760cd1eb1884706c6578706572696d656e74616cf564736f6c63430005110040",
  "source": "\r\n// SPDX-License-Identifier:MIT\r\n//pragma experimental ABIEncoderV2;\r\npragma experimental ABIEncoderV2;\r\npragma solidity >=0.4.21 <0.6.0;\r\n\r\nimport \"./RentToContract.sol\";\r\n\r\n\r\ncontract EnlistmentToContract {\r\n\r\n    // MAIN VARIABLES THE CONTRACT WILL BE WORKING WITH\r\n    // MAIN ENUMERATIONS THE CONTRACT WILL BE WORKING WITH\r\n\r\n    enum OfferStatus { // CURRENT STATE OF ANY OFFER SUBMITTED FOR A PROPERTY\r\n        PENDING,\r\n        REJECTED,\r\n        CANCELLED,\r\n        ACCEPTED\r\n    }\r\n\r\n    enum AgreementStatus { // CURRENT STATE OF ANY AGREEMENT REGARDING AN OFFER\r\n        UNINITIALIZED, // internal\r\n        PENDING,\r\n        REJECTED,\r\n        CONFIRMED,\r\n        CANCELLED,\r\n        LANDLORD_SIGNED,\r\n        TENANT_SIGNED,\r\n        COMPLETED\r\n    }\r\n\r\n    // MAIN STRUCTS (Enlistment, Offer, AgreementDraft) THE CONTRACT WILL BE WORKING WITH\r\n    // NOTE: These could've been made separate Smart Contracts instead (would probably work better that way)\r\n\r\n    struct Enlistment {\r\n        string streetName;\r\n        int floorNr;\r\n        int apartmentNr;\r\n        int houseNr;\r\n        int postalCode;\r\n    }\r\n\r\n    Enlistment[] public enlistments;\r\n\r\n    struct Offer {\r\n        bool initialized;\r\n        int amount;\r\n        string tenantName;\r\n        string tenantEmail;\r\n        OfferStatus status;\r\n    }\r\n\r\n    struct AgreementDraft {\r\n        string landlordName; // for simplicity, there is only one landlord\r\n        string tenantName; // for simplicity, there is only one tenant and occupants are omitted\r\n        string tenantEmail;\r\n        int amount;\r\n        uint leaseStart;\r\n        uint handoverDate;\r\n        uint leasePeriod;\r\n        string otherTerms;\r\n        string agreementHash;\r\n        string landlordSignedHash;\r\n        string tenantSignedHash;\r\n        AgreementStatus status;\r\n    }\r\n    \r\n    address payable owner;\r\n    string landlord;\r\n    bool public locked = false;\r\n    Enlistment enlistment;\r\n    // \r\n    mapping(string => Offer) tenantOfferMap;\r\n    mapping(string => AgreementDraft) tenantAgreementMap;\r\n    // \r\n    uint private rentAmount;\r\n    address private rentToContractAddress;\r\n    RentToContract private rentToContract;\r\n    \r\n    event AddEnlistment(string streetName, int floorNr, int apartmentNr, int houseNr, int postalCode);\r\n\r\n    constructor(string memory landlordEmail, string memory streetName, int floorNr, int apartmentNr, int houseNr, int postalCode) public\r\n    {   // CREATE A NEW ENLISTMENT STRUCT OBJECT FROM THE PASSED IN ARGUMENTS \r\n        enlistment = Enlistment(streetName, floorNr, apartmentNr, houseNr, postalCode);\r\n        landlord = landlordEmail;\r\n        owner = (msg.sender);\r\n        \r\n    }\r\n\r\n    function addEnlistmet(  string memory streetName,  int floorNr, int apartmentNr, int houseNr, int postalCode) public ownerOnly {\r\n        \r\n        require(bytes(streetName).length > 0, 'Must be a valid street Name');\r\n        \r\n        require(floorNr > 0, 'Must be a value');\r\n        \r\n        require(apartmentNr > 0, 'Must be a valid floreNr');\r\n        \r\n        require(houseNr > 0, 'Must be a valid houseNr');\r\n        \r\n        require(postalCode > 0, 'Must be a valid postalCode');\r\n        \r\n        enlistment = Enlistment(streetName, floorNr, apartmentNr, houseNr, postalCode);\r\n        enlistments.push(Enlistment(streetName, floorNr, apartmentNr, houseNr, postalCode));\r\n        emit AddEnlistment(streetName, floorNr, apartmentNr, houseNr, postalCode);\r\n    }\r\n\r\n    // GETTER FUNCTIONS \r\n \r\n    function getOwner() public view ownerOnly() returns (address) {\r\n        return owner;\r\n    }\r\n\r\n    function getLandlord() public view ownerOnly() returns (string memory) {\r\n        return landlord;\r\n    }\r\n\r\n    function getEnlistment() public view ownerOnly() returns (string memory, int, int, int, int) {\r\n        return (enlistment.streetName, enlistment.floorNr, enlistment.apartmentNr, enlistment.houseNr, enlistment.postalCode);\r\n    }\r\n\r\n    function getEnlistments() public view returns (Enlistment[] memory) {\r\n        return enlistments;\r\n    }\r\n    \r\n\r\n    // MAIN MODIFIERS THE CONTRACT WILL BE WORKING WITH\r\n    \r\n    modifier Owner {\r\n    require(msg.sender == owner);\r\n    _;\r\n    } \r\n    modifier noActiveEnlistmet(string memory tenantEmail){\r\n        require(tenantOfferMap[tenantEmail].initialized == true);\r\n        _;\r\n    }\r\n\r\n    modifier noActiveOffer(string memory tenantEmail) { // CHECKS IF THE TENANT (tenantEmail) INDEED HAS NO ACTIVE OFFER\r\n        require(tenantOfferMap[tenantEmail].initialized == false || tenantOfferMap[tenantEmail].status == OfferStatus.REJECTED || tenantOfferMap[tenantEmail].status == OfferStatus.CANCELLED);\r\n        _;\r\n    }\r\n\r\n    modifier offerExists(string memory tenantEmail) { // CHECKS IF THE TENANT (tenantEmail) HAS INDEED MADE AN OFFER\r\n        require(tenantOfferMap[tenantEmail].initialized == true);\r\n        _;\r\n    }\r\n\r\n    modifier offerInStatus(OfferStatus status, string memory tenantEmail) { // CONFIRMS STATUS OF THE OFFER IN QUESTION\r\n        require(tenantOfferMap[tenantEmail].status == status);\r\n        _;\r\n    }\r\n\r\n    modifier offerCancellable(string memory tenantEmail) { // CONFIRMS IF AN OFFER ISN'T ALREADY A DONE DEAL\r\n        OfferStatus offerStatus = tenantOfferMap[tenantEmail].status;\r\n        require(offerStatus == OfferStatus.PENDING || offerStatus == OfferStatus.ACCEPTED);\r\n        AgreementStatus agreementStatus = tenantAgreementMap[tenantEmail].status;\r\n        require(!(agreementStatus == AgreementStatus.CANCELLED || agreementStatus == AgreementStatus.TENANT_SIGNED || agreementStatus == AgreementStatus.COMPLETED));\r\n        _;\r\n    }\r\n\r\n    modifier agreementCanBeSubmitted(string memory tenantEmail) { // CONFIRMS IF THERE'S NO ACTIVE AGREEMENT AWAITING SIGNATURE CONSUMATION\r\n        require(tenantAgreementMap[tenantEmail].status == AgreementStatus.UNINITIALIZED || tenantAgreementMap[tenantEmail].status == AgreementStatus.REJECTED || tenantAgreementMap[tenantEmail].status == AgreementStatus.CANCELLED);\r\n        _;\r\n    }\r\n\r\n    modifier agreementInStatus(AgreementStatus status, string memory tenantEmail) {\r\n        require(tenantAgreementMap[tenantEmail].status == status); // VALIDATES THE AGREEMENT'S STATUS\r\n        _;\r\n    }\r\n\r\n    modifier agreementCancellable(string memory tenantEmail) { // CONFIRMS IF AN AGREEMENT ISN'T ALREADY A DONE DEAL (OR HASN'T BEEN REJECTED)\r\n        AgreementStatus agreementStatus = tenantAgreementMap[tenantEmail].status;\r\n        require(!(agreementStatus == AgreementStatus.CANCELLED || agreementStatus == AgreementStatus.TENANT_SIGNED || agreementStatus == AgreementStatus.COMPLETED || agreementStatus == AgreementStatus.REJECTED));\r\n        _;\r\n    }\r\n\r\n    modifier notLocked() {\r\n        require(!locked);\r\n        _;\r\n    }\r\n\r\n    modifier ownerOnly() {\r\n        require(msg.sender == owner);\r\n        _;\r\n    }\r\n\r\n    // what if the offer is in status PENDING and the tenant wants to send a new one?\r\n    // in a case like that, find a way to handle multiple pending offers simultaneously\r\n\r\n    function sendOffer(int amount, string memory tenantName, string memory tenantEmail) public payable\r\n        ownerOnly()\r\n        noActiveOffer(tenantEmail) // coz this modifier ensures that there's no active offer ..\r\n        notLocked()\r\n    {\r\n        Offer memory offer = Offer({\r\n            initialized: true,\r\n            amount: amount,\r\n            tenantName: tenantName,\r\n            tenantEmail: tenantEmail,\r\n            status: OfferStatus.PENDING\r\n        });\r\n        tenantOfferMap[tenantEmail] = offer;\r\n    }\r\n\r\n    // cancel an offer that has been submitted (and is cancellable)\r\n\r\n    function cancelOffer(string memory tenantEmail) public payable\r\n        ownerOnly()\r\n        offerExists(tenantEmail)\r\n        offerCancellable(tenantEmail)\r\n    {\r\n        tenantOfferMap[tenantEmail].status = OfferStatus.CANCELLED;\r\n        if (tenantAgreementMap[tenantEmail].status != AgreementStatus.UNINITIALIZED) {\r\n            tenantAgreementMap[tenantEmail].status = AgreementStatus.CANCELLED;\r\n        }\r\n        locked = false;\r\n    }\r\n\r\n    // get an offer that has been submitted (and is hasn't been cancelled yet)\r\n    \r\n    function getOffer(string memory tenantEmail) public view ownerOnly() returns (bool, int, string memory, string memory, OfferStatus) {\r\n        Offer storage o = tenantOfferMap[tenantEmail];\r\n        return (o.initialized, o.amount, o.tenantName, o.tenantEmail, o.status);\r\n    }\r\n\r\n    // review (accept / reject) an offer that has been submitted (and is pending)\r\n    \r\n    function reviewOffer(bool result, string memory tenantEmail) public payable\r\n        ownerOnly()\r\n        offerExists(tenantEmail)\r\n        offerInStatus(OfferStatus.PENDING, tenantEmail)\r\n    {\r\n        tenantOfferMap[tenantEmail].status = result ? OfferStatus.ACCEPTED : OfferStatus.REJECTED;\r\n    }\r\n\r\n    // submit the draft of an agreement (only if: the offer still exists & has been accepted, and an agreement can be submitted)\r\n    // a new draft agreement can submitted only if there isn't already 1 in place that has been signed, or awaiting confirmation\r\n    \r\n    function submitDraft(string memory tenantEmail, string memory landlordName, string memory agreementTenantName, string memory agreementTenantEmail, uint leaseStart, uint handoverDate, uint leasePeriod, string memory otherTerms, string memory hashStr) public payable\r\n        ownerOnly()\r\n        offerExists(tenantEmail)\r\n        offerInStatus(OfferStatus.ACCEPTED, tenantEmail)\r\n        agreementCanBeSubmitted(tenantEmail)\r\n    {\r\n        int256 amount = tenantOfferMap[tenantEmail].amount;\r\n        tenantAgreementMap[tenantEmail] = AgreementDraft(landlordName, agreementTenantName, agreementTenantEmail, amount, leaseStart, handoverDate, leasePeriod, otherTerms, hashStr, \"\", \"\", AgreementStatus.PENDING);\r\n    }\r\n\r\n    // getAgreement functions:\r\n    // can only return tuple of max 7 elements, otherwise throws \"Stack too deep\" \r\n    // solution: splitted into multiple functions - getAgreement + (Participants/Details/Hashes/Status)\r\n\r\n    function getAgreementParticipants(string memory tenantEmail) public view ownerOnly() returns (string memory, string memory, string memory) {\r\n        AgreementDraft storage a = tenantAgreementMap[tenantEmail];\r\n        return (a.landlordName, a.tenantName, a.tenantEmail);\r\n    }\r\n\r\n    function getAgreementDetails(string memory tenantEmail) public view ownerOnly() returns (int, uint, uint, uint, string memory) {\r\n        AgreementDraft storage a = tenantAgreementMap[tenantEmail];\r\n        return (a.amount, a.leaseStart, a.handoverDate, a.leasePeriod, a.otherTerms);\r\n    }\r\n\r\n    function getAgreementHashes(string memory tenantEmail) public view ownerOnly() returns (string memory, string memory, string memory) {\r\n        AgreementDraft storage a = tenantAgreementMap[tenantEmail];\r\n        return (a.agreementHash, a.landlordSignedHash, a.tenantSignedHash);\r\n    }\r\n\r\n    function getAgreementStatus(string memory tenantEmail) public view ownerOnly() returns (AgreementStatus) {\r\n        AgreementDraft storage a = tenantAgreementMap[tenantEmail];\r\n        return (a.status);\r\n    }\r\n\r\n    // review an agreement draft (only if: the offer still exists & has been accepted, and an agreement exists & is pending)\r\n    \r\n    function reviewAgreement(string memory tenantEmail, bool result) public payable\r\n        ownerOnly()\r\n        offerExists(tenantEmail)\r\n        offerInStatus(OfferStatus.ACCEPTED, tenantEmail)\r\n        agreementInStatus(AgreementStatus.PENDING, tenantEmail)\r\n    {\r\n        tenantAgreementMap[tenantEmail].status = result ? AgreementStatus.CONFIRMED : AgreementStatus.REJECTED;\r\n    }\r\n\r\n    // signing of an agreement draft by the landlord (only if: the offer still exists & has been accepted, and an agreement exists & is confirmed)\r\n    \r\n    function landlordSignAgreement(string memory tenantEmail, string memory landlordSignedHash) public payable\r\n        ownerOnly()\r\n        notLocked()\r\n        offerExists(tenantEmail)\r\n        offerInStatus(OfferStatus.ACCEPTED, tenantEmail)\r\n        agreementInStatus(AgreementStatus.CONFIRMED, tenantEmail)\r\n    {\r\n        tenantAgreementMap[tenantEmail].landlordSignedHash = landlordSignedHash;\r\n        tenantAgreementMap[tenantEmail].status = AgreementStatus.LANDLORD_SIGNED;\r\n        locked = true;\r\n    }\r\n\r\n    // signing of an agreement draft by the tenant (only if: the offer still exists & has been accepted, and an agreement exists & the landlord has signed already)\r\n\r\n    function tenantSignAgreement(string memory tenantEmail, string memory tenantSignedHash) public payable\r\n        ownerOnly()\r\n        offerExists(tenantEmail)\r\n        offerInStatus(OfferStatus.ACCEPTED, tenantEmail)\r\n        agreementInStatus(AgreementStatus.LANDLORD_SIGNED, tenantEmail)\r\n    {\r\n        tenantAgreementMap[tenantEmail].tenantSignedHash = tenantSignedHash;\r\n        tenantAgreementMap[tenantEmail].status = AgreementStatus.TENANT_SIGNED;\r\n    }\r\n\r\n    // cancelling of an agreement draft by the tenant (only if the agreement is cancellable ie. it exists, but the landlord hasn't already signed it)\r\n\r\n    function cancelAgreement(string memory tenantEmail) public payable\r\n        ownerOnly()\r\n        agreementCancellable(tenantEmail)\r\n    {\r\n        tenantAgreementMap[tenantEmail].status = AgreementStatus.CANCELLED;\r\n        locked = false;\r\n    }\r\n\r\n    // receiving the 1st month rent from the tenant (only if the agreement has been signed by both parties ie. the landlord and the tenant)\r\n\r\n    function receiveFirstMonthRent(string memory tenantEmail) public payable\r\n        ownerOnly()\r\n        offerExists(tenantEmail)\r\n        offerInStatus(OfferStatus.ACCEPTED, tenantEmail)\r\n        agreementInStatus(AgreementStatus.TENANT_SIGNED, tenantEmail)\r\n    {\r\n        tenantAgreementMap[tenantEmail].status = AgreementStatus.COMPLETED;\r\n        \r\n        // EITHER TRY THIS TO INSTANTIATE THE RentToContract.sol SMART CONTRACT ..\r\n        // rentToContractAddress = new RentToContract(tenantEmail, tenantAgreementMap[tenantEmail].tenantName, \r\n        // tenantAgreementMap[tenantEmail].landlordName, 100, 1000000000000); \r\n        // rentToContract = RentToContract(rentToContractAddress);\r\n        // \r\n        // OR, JUST TRY THIS INSTEAD .. ..\r\n        // rentToContract = new RentToContract(tenantEmail, tenantAgreementMap[tenantEmail].tenantName, \r\n        // tenantAgreementMap[tenantEmail].landlordName, 100, 1000000000000); \r\n\r\n        // EVENTUALLY, THE RENT AMOUNT & THE CONTRACT'S DURATION MUST BOTH BE MADE DYNAMIC \r\n    }\r\n    \r\n    function receiveMonthlyRent(string memory tenantEmail, uint amount) public payable\r\n        ownerOnly()\r\n        offerExists(tenantEmail)\r\n        offerInStatus(OfferStatus.ACCEPTED, tenantEmail)\r\n        agreementInStatus(AgreementStatus.COMPLETED, tenantEmail)\r\n    {\r\n        rentAmount = amount; // WORK WITH RENT amount\r\n        // rentToContract.receiveMonthlyRent(tenantEmail, amount);\r\n    }\r\n\r\n}\r\n",
  "sourcePath": "C:/Users/afegb/Downloads/enlist/BlocProperties-Enlistment-Project/contracts/Enlistment.sol",
  "compiler": {
    "name": "solc",
    "version": "0.5.17+commit.d19bba13.Emscripten.clang"
  },
  "schemaVersion": "3.0.0-beta.2",
  "updatedAt": "2022-12-04T22:52:52.058Z",
  "devdoc": {
    "methods": {}
  },
  "userdoc": {
    "methods": {}
  }
}