{
  "contractName": "EnlistmentToContract",
  "abi": [
    {
      "inputs": [
        {
          "internalType": "string",
          "name": "landlordEmail",
          "type": "string"
        },
        {
          "internalType": "string",
          "name": "streetName",
          "type": "string"
        },
        {
          "internalType": "int256",
          "name": "floorNr",
          "type": "int256"
        },
        {
          "internalType": "int256",
          "name": "apartmentNr",
          "type": "int256"
        },
        {
          "internalType": "int256",
          "name": "houseNr",
          "type": "int256"
        },
        {
          "internalType": "int256",
          "name": "postalCode",
          "type": "int256"
        }
      ],
      "stateMutability": "nonpayable",
      "type": "constructor"
    },
    {
      "anonymous": false,
      "inputs": [
        {
          "indexed": false,
          "internalType": "string",
          "name": "streetName",
          "type": "string"
        },
        {
          "indexed": false,
          "internalType": "int256",
          "name": "floorNr",
          "type": "int256"
        },
        {
          "indexed": false,
          "internalType": "int256",
          "name": "apartmentNr",
          "type": "int256"
        },
        {
          "indexed": false,
          "internalType": "int256",
          "name": "houseNr",
          "type": "int256"
        },
        {
          "indexed": false,
          "internalType": "int256",
          "name": "postalCode",
          "type": "int256"
        }
      ],
      "name": "AddEnlistment",
      "type": "event"
    },
    {
      "inputs": [
        {
          "internalType": "uint256",
          "name": "",
          "type": "uint256"
        }
      ],
      "name": "enlistments",
      "outputs": [
        {
          "internalType": "string",
          "name": "streetName",
          "type": "string"
        },
        {
          "internalType": "int256",
          "name": "floorNr",
          "type": "int256"
        },
        {
          "internalType": "int256",
          "name": "apartmentNr",
          "type": "int256"
        },
        {
          "internalType": "int256",
          "name": "houseNr",
          "type": "int256"
        },
        {
          "internalType": "int256",
          "name": "postalCode",
          "type": "int256"
        }
      ],
      "stateMutability": "view",
      "type": "function",
      "constant": true
    },
    {
      "inputs": [],
      "name": "locked",
      "outputs": [
        {
          "internalType": "bool",
          "name": "",
          "type": "bool"
        }
      ],
      "stateMutability": "view",
      "type": "function",
      "constant": true
    },
    {
      "inputs": [
        {
          "internalType": "string",
          "name": "streetName",
          "type": "string"
        },
        {
          "internalType": "int256",
          "name": "floorNr",
          "type": "int256"
        },
        {
          "internalType": "int256",
          "name": "apartmentNr",
          "type": "int256"
        },
        {
          "internalType": "int256",
          "name": "houseNr",
          "type": "int256"
        },
        {
          "internalType": "int256",
          "name": "postalCode",
          "type": "int256"
        }
      ],
      "name": "addEnlistmet",
      "outputs": [],
      "stateMutability": "nonpayable",
      "type": "function"
    },
    {
      "inputs": [],
      "name": "getOwner",
      "outputs": [
        {
          "internalType": "address",
          "name": "",
          "type": "address"
        }
      ],
      "stateMutability": "view",
      "type": "function",
      "constant": true
    },
    {
      "inputs": [],
      "name": "getLandlord",
      "outputs": [
        {
          "internalType": "string",
          "name": "",
          "type": "string"
        }
      ],
      "stateMutability": "view",
      "type": "function",
      "constant": true
    },
    {
      "inputs": [],
      "name": "getEnlistment",
      "outputs": [
        {
          "internalType": "string",
          "name": "",
          "type": "string"
        },
        {
          "internalType": "int256",
          "name": "",
          "type": "int256"
        },
        {
          "internalType": "int256",
          "name": "",
          "type": "int256"
        },
        {
          "internalType": "int256",
          "name": "",
          "type": "int256"
        },
        {
          "internalType": "int256",
          "name": "",
          "type": "int256"
        }
      ],
      "stateMutability": "view",
      "type": "function",
      "constant": true
    },
    {
      "inputs": [],
      "name": "getEnlistments",
      "outputs": [
        {
          "components": [
            {
              "internalType": "string",
              "name": "streetName",
              "type": "string"
            },
            {
              "internalType": "int256",
              "name": "floorNr",
              "type": "int256"
            },
            {
              "internalType": "int256",
              "name": "apartmentNr",
              "type": "int256"
            },
            {
              "internalType": "int256",
              "name": "houseNr",
              "type": "int256"
            },
            {
              "internalType": "int256",
              "name": "postalCode",
              "type": "int256"
            }
          ],
          "internalType": "struct EnlistmentToContract.Enlistment[]",
          "name": "",
          "type": "tuple[]"
        }
      ],
      "stateMutability": "view",
      "type": "function",
      "constant": true
    },
    {
      "inputs": [
        {
          "internalType": "int256",
          "name": "amount",
          "type": "int256"
        },
        {
          "internalType": "string",
          "name": "tenantName",
          "type": "string"
        },
        {
          "internalType": "string",
          "name": "tenantEmail",
          "type": "string"
        }
      ],
      "name": "sendOffer",
      "outputs": [],
      "stateMutability": "payable",
      "type": "function",
      "payable": true
    },
    {
      "inputs": [
        {
          "internalType": "string",
          "name": "tenantEmail",
          "type": "string"
        }
      ],
      "name": "cancelOffer",
      "outputs": [],
      "stateMutability": "payable",
      "type": "function",
      "payable": true
    },
    {
      "inputs": [
        {
          "internalType": "string",
          "name": "tenantEmail",
          "type": "string"
        }
      ],
      "name": "getOffer",
      "outputs": [
        {
          "internalType": "bool",
          "name": "",
          "type": "bool"
        },
        {
          "internalType": "int256",
          "name": "",
          "type": "int256"
        },
        {
          "internalType": "string",
          "name": "",
          "type": "string"
        },
        {
          "internalType": "string",
          "name": "",
          "type": "string"
        },
        {
          "internalType": "enum EnlistmentToContract.OfferStatus",
          "name": "",
          "type": "uint8"
        }
      ],
      "stateMutability": "view",
      "type": "function",
      "constant": true
    },
    {
      "inputs": [
        {
          "internalType": "bool",
          "name": "result",
          "type": "bool"
        },
        {
          "internalType": "string",
          "name": "tenantEmail",
          "type": "string"
        }
      ],
      "name": "reviewOffer",
      "outputs": [],
      "stateMutability": "payable",
      "type": "function",
      "payable": true
    },
    {
      "inputs": [
        {
          "internalType": "string",
          "name": "tenantEmail",
          "type": "string"
        },
        {
          "internalType": "string",
          "name": "landlordName",
          "type": "string"
        },
        {
          "internalType": "string",
          "name": "agreementTenantName",
          "type": "string"
        },
        {
          "internalType": "string",
          "name": "agreementTenantEmail",
          "type": "string"
        },
        {
          "internalType": "uint256",
          "name": "leaseStart",
          "type": "uint256"
        },
        {
          "internalType": "uint256",
          "name": "handoverDate",
          "type": "uint256"
        },
        {
          "internalType": "uint256",
          "name": "leasePeriod",
          "type": "uint256"
        },
        {
          "internalType": "string",
          "name": "otherTerms",
          "type": "string"
        },
        {
          "internalType": "string",
          "name": "hashStr",
          "type": "string"
        }
      ],
      "name": "submitDraft",
      "outputs": [],
      "stateMutability": "payable",
      "type": "function",
      "payable": true
    },
    {
      "inputs": [
        {
          "internalType": "string",
          "name": "tenantEmail",
          "type": "string"
        }
      ],
      "name": "getAgreementParticipants",
      "outputs": [
        {
          "internalType": "string",
          "name": "",
          "type": "string"
        },
        {
          "internalType": "string",
          "name": "",
          "type": "string"
        },
        {
          "internalType": "string",
          "name": "",
          "type": "string"
        }
      ],
      "stateMutability": "view",
      "type": "function",
      "constant": true
    },
    {
      "inputs": [
        {
          "internalType": "string",
          "name": "tenantEmail",
          "type": "string"
        }
      ],
      "name": "getAgreementDetails",
      "outputs": [
        {
          "internalType": "int256",
          "name": "",
          "type": "int256"
        },
        {
          "internalType": "uint256",
          "name": "",
          "type": "uint256"
        },
        {
          "internalType": "uint256",
          "name": "",
          "type": "uint256"
        },
        {
          "internalType": "uint256",
          "name": "",
          "type": "uint256"
        },
        {
          "internalType": "string",
          "name": "",
          "type": "string"
        }
      ],
      "stateMutability": "view",
      "type": "function",
      "constant": true
    },
    {
      "inputs": [
        {
          "internalType": "string",
          "name": "tenantEmail",
          "type": "string"
        }
      ],
      "name": "getAgreementHashes",
      "outputs": [
        {
          "internalType": "string",
          "name": "",
          "type": "string"
        },
        {
          "internalType": "string",
          "name": "",
          "type": "string"
        },
        {
          "internalType": "string",
          "name": "",
          "type": "string"
        }
      ],
      "stateMutability": "view",
      "type": "function",
      "constant": true
    },
    {
      "inputs": [
        {
          "internalType": "string",
          "name": "tenantEmail",
          "type": "string"
        }
      ],
      "name": "getAgreementStatus",
      "outputs": [
        {
          "internalType": "enum EnlistmentToContract.AgreementStatus",
          "name": "",
          "type": "uint8"
        }
      ],
      "stateMutability": "view",
      "type": "function",
      "constant": true
    },
    {
      "inputs": [
        {
          "internalType": "string",
          "name": "tenantEmail",
          "type": "string"
        },
        {
          "internalType": "bool",
          "name": "result",
          "type": "bool"
        }
      ],
      "name": "reviewAgreement",
      "outputs": [],
      "stateMutability": "payable",
      "type": "function",
      "payable": true
    },
    {
      "inputs": [
        {
          "internalType": "string",
          "name": "tenantEmail",
          "type": "string"
        },
        {
          "internalType": "string",
          "name": "landlordSignedHash",
          "type": "string"
        }
      ],
      "name": "landlordSignAgreement",
      "outputs": [],
      "stateMutability": "payable",
      "type": "function",
      "payable": true
    },
    {
      "inputs": [
        {
          "internalType": "string",
          "name": "tenantEmail",
          "type": "string"
        },
        {
          "internalType": "string",
          "name": "tenantSignedHash",
          "type": "string"
        }
      ],
      "name": "tenantSignAgreement",
      "outputs": [],
      "stateMutability": "payable",
      "type": "function",
      "payable": true
    },
    {
      "inputs": [
        {
          "internalType": "string",
          "name": "tenantEmail",
          "type": "string"
        }
      ],
      "name": "cancelAgreement",
      "outputs": [],
      "stateMutability": "payable",
      "type": "function",
      "payable": true
    },
    {
      "inputs": [
        {
          "internalType": "string",
          "name": "tenantEmail",
          "type": "string"
        }
      ],
      "name": "receiveFirstMonthRent",
      "outputs": [],
      "stateMutability": "payable",
      "type": "function",
      "payable": true
    },
    {
      "inputs": [
        {
          "internalType": "string",
          "name": "tenantEmail",
          "type": "string"
        },
        {
          "internalType": "uint256",
          "name": "amount",
          "type": "uint256"
        }
      ],
      "name": "receiveMonthlyRent",
      "outputs": [],
      "stateMutability": "payable",
      "type": "function",
      "payable": true
    }
  ],
  "bytecode": "0x60806040526000600360006101000a81548160ff0219169083151502179055503480156200002c57600080fd5b5060405162003e6438038062003e648339818101604052810190620000529190620003b3565b6040518060a001604052808681526020018581526020018481526020018381526020018281525060046000820151816000019080519060200190620000999291906200012b565b50602082015181600101556040820151816002015560608201518160030155608082015181600401559050508560029080519060200190620000dd9291906200012b565b5033600160006101000a81548173ffffffffffffffffffffffffffffffffffffffff021916908373ffffffffffffffffffffffffffffffffffffffff160217905550505050505050620004f1565b8280546200013990620004bc565b90600052602060002090601f0160209004810192826200015d5760008555620001a9565b82601f106200017857805160ff1916838001178555620001a9565b82800160010185558215620001a9579182015b82811115620001a85782518255916020019190600101906200018b565b5b509050620001b89190620001bc565b5090565b5b80821115620001d7576000816000905550600101620001bd565b5090565b6000604051905090565b600080fd5b600080fd5b600080fd5b600080fd5b6000601f19601f8301169050919050565b7f4e487b7100000000000000000000000000000000000000000000000000000000600052604160045260246000fd5b6200024482620001f9565b810181811067ffffffffffffffff821117156200026657620002656200020a565b5b80604052505050565b60006200027b620001db565b905062000289828262000239565b919050565b600067ffffffffffffffff821115620002ac57620002ab6200020a565b5b620002b782620001f9565b9050602081019050919050565b60005b83811015620002e4578082015181840152602081019050620002c7565b83811115620002f4576000848401525b50505050565b6000620003116200030b846200028e565b6200026f565b90508281526020810184848401111562000330576200032f620001f4565b5b6200033d848285620002c4565b509392505050565b600082601f8301126200035d576200035c620001ef565b5b81516200036f848260208601620002fa565b91505092915050565b6000819050919050565b6200038d8162000378565b81146200039957600080fd5b50565b600081519050620003ad8162000382565b92915050565b60008060008060008060c08789031215620003d357620003d2620001e5565b5b600087015167ffffffffffffffff811115620003f457620003f3620001ea565b5b6200040289828a0162000345565b965050602087015167ffffffffffffffff811115620004265762000425620001ea565b5b6200043489828a0162000345565b95505060406200044789828a016200039c565b94505060606200045a89828a016200039c565b93505060806200046d89828a016200039c565b92505060a06200048089828a016200039c565b9150509295509295509295565b7f4e487b7100000000000000000000000000000000000000000000000000000000600052602260045260246000fd5b60006002820490506001821680620004d557607f821691505b602082108103620004eb57620004ea6200048d565b5b50919050565b61396380620005016000396000f3fe6080604052600436106101345760003560e01c806371ca1587116100ab578063cf3090121161006f578063cf309012146103c9578063d441a152146103f4578063d6ce411214610433578063ec2b2a121461044f578063f278f7841461048c578063f502236d146104a857610134565b806371ca1587146102ca5780637a51011614610309578063893d20e81461034a578063a88d8c2614610375578063ca9e04b3146103a057610134565b80632d63ce27116100fd5780632d63ce27146101ea5780632fcc176d1461020657806331ae8ed0146102225780634d45780e14610251578063601efb5c1461026d578063673a95ef146102ae57610134565b8062ff22c61461013957806303746e0614610155578063222a7af914610171578063265adc331461018d5780632c863d84146101ce575b600080fd5b610153600480360381019061014e9190612be8565b6104d3565b005b61016f600480360381019061016a9190612be8565b6106b8565b005b61018b60048036038101906101869190612c96565b6108d2565b005b34801561019957600080fd5b506101b460048036038101906101af9190612e08565b610ce8565b6040516101c5959493929190612f01565b60405180910390f35b6101e860048036038101906101e39190612f87565b610e24565b005b61020460048036038101906101ff9190612e08565b611090565b005b610220600480360381019061021b919061304a565b611390565b005b34801561022e57600080fd5b506102376114e9565b6040516102489594939291906130a6565b60405180910390f35b61026b60048036038101906102669190612e08565b611604565b005b34801561027957600080fd5b50610294600480360381019061028f9190613100565b6117b2565b6040516102a59594939291906130a6565b60405180910390f35b6102c860048036038101906102c3919061312d565b611880565b005b3480156102d657600080fd5b506102f160048036038101906102ec9190612e08565b611a3c565b60405161030093929190613189565b60405180910390f35b34801561031557600080fd5b50610330600480360381019061032b9190612e08565b611c7b565b60405161034195949392919061325b565b60405180910390f35b34801561035657600080fd5b5061035f611e5c565b60405161036c91906132fd565b60405180910390f35b34801561038157600080fd5b5061038a611ee0565b60405161039791906134a9565b60405180910390f35b3480156103ac57600080fd5b506103c760048036038101906103c291906134cb565b611ff9565b005b3480156103d557600080fd5b506103de6122f3565b6040516103eb9190613562565b60405180910390f35b34801561040057600080fd5b5061041b60048036038101906104169190612e08565b612306565b60405161042a93929190613189565b60405180910390f35b61044d6004803603810190610448919061357d565b612545565b005b34801561045b57600080fd5b5061047660048036038101906104719190612e08565b6126b1565b6040516104839190613621565b60405180910390f35b6104a660048036038101906104a19190612e08565b612749565b005b3480156104b457600080fd5b506104bd6128ff565b6040516104ca919061363c565b60405180910390f35b600160009054906101000a900473ffffffffffffffffffffffffffffffffffffffff1673ffffffffffffffffffffffffffffffffffffffff163373ffffffffffffffffffffffffffffffffffffffff161461052d57600080fd5b8160011515600982604051610542919061369a565b908152602001604051809103902060000160009054906101000a900460ff1615151461056d57600080fd5b600383816003811115610583576105826131e4565b5b600982604051610593919061369a565b908152602001604051809103902060040160009054906101000a900460ff1660038111156105c4576105c36131e4565b5b146105ce57600080fd5b6005858160078111156105e4576105e36131e4565b5b600a826040516105f4919061369a565b9081526020016040518091039020600b0160009054906101000a900460ff166007811115610625576106246131e4565b5b1461062f57600080fd5b85600a88604051610640919061369a565b9081526020016040518091039020600a0190805190602001906106649291906129eb565b506006600a88604051610677919061369a565b9081526020016040518091039020600b0160006101000a81548160ff021916908360078111156106aa576106a96131e4565b5b021790555050505050505050565b600160009054906101000a900473ffffffffffffffffffffffffffffffffffffffff1673ffffffffffffffffffffffffffffffffffffffff163373ffffffffffffffffffffffffffffffffffffffff161461071257600080fd5b600360009054906101000a900460ff161561072c57600080fd5b8160011515600982604051610741919061369a565b908152602001604051809103902060000160009054906101000a900460ff1615151461076c57600080fd5b600383816003811115610782576107816131e4565b5b600982604051610792919061369a565b908152602001604051809103902060040160009054906101000a900460ff1660038111156107c3576107c26131e4565b5b146107cd57600080fd5b6003858160078111156107e3576107e26131e4565b5b600a826040516107f3919061369a565b9081526020016040518091039020600b0160009054906101000a900460ff166007811115610824576108236131e4565b5b1461082e57600080fd5b85600a8860405161083f919061369a565b908152602001604051809103902060090190805190602001906108639291906129eb565b506005600a88604051610876919061369a565b9081526020016040518091039020600b0160006101000a81548160ff021916908360078111156108a9576108a86131e4565b5b02179055506001600360006101000a81548160ff02191690831515021790555050505050505050565b600160009054906101000a900473ffffffffffffffffffffffffffffffffffffffff1673ffffffffffffffffffffffffffffffffffffffff163373ffffffffffffffffffffffffffffffffffffffff161461092c57600080fd5b8860011515600982604051610941919061369a565b908152602001604051809103902060000160009054906101000a900460ff1615151461096c57600080fd5b60038a816003811115610982576109816131e4565b5b600982604051610992919061369a565b908152602001604051809103902060040160009054906101000a900460ff1660038111156109c3576109c26131e4565b5b146109cd57600080fd5b8b600060078111156109e2576109e16131e4565b5b600a826040516109f2919061369a565b9081526020016040518091039020600b0160009054906101000a900460ff166007811115610a2357610a226131e4565b5b1480610a81575060026007811115610a3e57610a3d6131e4565b5b600a82604051610a4e919061369a565b9081526020016040518091039020600b0160009054906101000a900460ff166007811115610a7f57610a7e6131e4565b5b145b80610ade575060046007811115610a9b57610a9a6131e4565b5b600a82604051610aab919061369a565b9081526020016040518091039020600b0160009054906101000a900460ff166007811115610adc57610adb6131e4565b5b145b610ae757600080fd5b600060098e604051610af9919061369a565b90815260200160405180910390206001015490506040518061018001604052808e81526020018d81526020018c81526020018281526020018b81526020018a815260200189815260200188815260200187815260200160405180602001604052806000815250815260200160405180602001604052806000815250815260200160016007811115610b8d57610b8c6131e4565b5b815250600a8f604051610ba0919061369a565b90815260200160405180910390206000820151816000019080519060200190610bca9291906129eb565b506020820151816001019080519060200190610be79291906129eb565b506040820151816002019080519060200190610c049291906129eb565b50606082015181600301556080820151816004015560a0820151816005015560c0820151816006015560e0820151816007019080519060200190610c499291906129eb565b50610100820151816008019080519060200190610c679291906129eb565b50610120820151816009019080519060200190610c859291906129eb565b5061014082015181600a019080519060200190610ca39291906129eb565b5061016082015181600b0160006101000a81548160ff02191690836007811115610cd057610ccf6131e4565b5b02179055509050505050505050505050505050505050565b6000806000806060600160009054906101000a900473ffffffffffffffffffffffffffffffffffffffff1673ffffffffffffffffffffffffffffffffffffffff163373ffffffffffffffffffffffffffffffffffffffff1614610d4a57600080fd5b6000600a87604051610d5c919061369a565b90815260200160405180910390209050806003015481600401548260050154836006015484600701808054610d90906136e0565b80601f0160208091040260200160405190810160405280929190818152602001828054610dbc906136e0565b8015610e095780601f10610dde57610100808354040283529160200191610e09565b820191906000526020600020905b815481529060010190602001808311610dec57829003601f168201915b50505050509050955095509550955095505091939590929450565b600160009054906101000a900473ffffffffffffffffffffffffffffffffffffffff1673ffffffffffffffffffffffffffffffffffffffff163373ffffffffffffffffffffffffffffffffffffffff1614610e7e57600080fd5b8060001515600982604051610e93919061369a565b908152602001604051809103902060000160009054906101000a900460ff1615151480610f12575060016003811115610ecf57610ece6131e4565b5b600982604051610edf919061369a565b908152602001604051809103902060040160009054906101000a900460ff166003811115610f1057610f0f6131e4565b5b145b80610f6f575060026003811115610f2c57610f2b6131e4565b5b600982604051610f3c919061369a565b908152602001604051809103902060040160009054906101000a900460ff166003811115610f6d57610f6c6131e4565b5b145b610f7857600080fd5b600360009054906101000a900460ff1615610f9257600080fd5b60006040518060a0016040528060011515815260200186815260200185815260200184815260200160006003811115610fce57610fcd6131e4565b5b815250905080600984604051610fe4919061369a565b908152602001604051809103902060008201518160000160006101000a81548160ff0219169083151502179055506020820151816001015560408201518160020190805190602001906110389291906129eb565b5060608201518160030190805190602001906110559291906129eb565b5060808201518160040160006101000a81548160ff02191690836003811115611081576110806131e4565b5b02179055509050505050505050565b600160009054906101000a900473ffffffffffffffffffffffffffffffffffffffff1673ffffffffffffffffffffffffffffffffffffffff163373ffffffffffffffffffffffffffffffffffffffff16146110ea57600080fd5b80600115156009826040516110ff919061369a565b908152602001604051809103902060000160009054906101000a900460ff1615151461112a57600080fd5b81600060098260405161113d919061369a565b908152602001604051809103902060040160009054906101000a900460ff16905060006003811115611172576111716131e4565b5b816003811115611185576111846131e4565b5b14806111b4575060038081111561119f5761119e6131e4565b5b8160038111156111b2576111b16131e4565b5b145b6111bd57600080fd5b6000600a836040516111cf919061369a565b9081526020016040518091039020600b0160009054906101000a900460ff16905060046007811115611204576112036131e4565b5b816007811115611217576112166131e4565b5b1480611247575060066007811115611232576112316131e4565b5b816007811115611245576112446131e4565b5b145b8061127557506007808111156112605761125f6131e4565b5b816007811115611273576112726131e4565b5b145b1561127f57600080fd5b6002600986604051611291919061369a565b908152602001604051809103902060040160006101000a81548160ff021916908360038111156112c4576112c36131e4565b5b0217905550600060078111156112dd576112dc6131e4565b5b600a866040516112ed919061369a565b9081526020016040518091039020600b0160009054906101000a900460ff16600781111561131e5761131d6131e4565b5b1461136e576004600a86604051611335919061369a565b9081526020016040518091039020600b0160006101000a81548160ff02191690836007811115611368576113676131e4565b5b02179055505b6000600360006101000a81548160ff0219169083151502179055505050505050565b600160009054906101000a900473ffffffffffffffffffffffffffffffffffffffff1673ffffffffffffffffffffffffffffffffffffffff163373ffffffffffffffffffffffffffffffffffffffff16146113ea57600080fd5b80600115156009826040516113ff919061369a565b908152602001604051809103902060000160009054906101000a900460ff1615151461142a57600080fd5b6000828160038111156114405761143f6131e4565b5b600982604051611450919061369a565b908152602001604051809103902060040160009054906101000a900460ff166003811115611481576114806131e4565b5b1461148b57600080fd5b8461149757600161149a565b60035b6009856040516114aa919061369a565b908152602001604051809103902060040160006101000a81548160ff021916908360038111156114dd576114dc6131e4565b5b02179055505050505050565b6060600080600080600160009054906101000a900473ffffffffffffffffffffffffffffffffffffffff1673ffffffffffffffffffffffffffffffffffffffff163373ffffffffffffffffffffffffffffffffffffffff161461154b57600080fd5b60046000016004600101546004600201546004600301546004800154848054611573906136e0565b80601f016020809104026020016040519081016040528092919081815260200182805461159f906136e0565b80156115ec5780601f106115c1576101008083540402835291602001916115ec565b820191906000526020600020905b8154815290600101906020018083116115cf57829003601f168201915b50505050509450945094509450945094509091929394565b600160009054906101000a900473ffffffffffffffffffffffffffffffffffffffff1673ffffffffffffffffffffffffffffffffffffffff163373ffffffffffffffffffffffffffffffffffffffff161461165e57600080fd5b8060011515600982604051611673919061369a565b908152602001604051809103902060000160009054906101000a900460ff1615151461169e57600080fd5b6003828160038111156116b4576116b36131e4565b5b6009826040516116c4919061369a565b908152602001604051809103902060040160009054906101000a900460ff1660038111156116f5576116f46131e4565b5b146116ff57600080fd5b600684816007811115611715576117146131e4565b5b600a82604051611725919061369a565b9081526020016040518091039020600b0160009054906101000a900460ff166007811115611756576117556131e4565b5b1461176057600080fd5b6007600a87604051611772919061369a565b9081526020016040518091039020600b0160006101000a81548160ff021916908360078111156117a5576117a46131e4565b5b0217905550505050505050565b600081815481106117c257600080fd5b90600052602060002090600502016000915090508060000180546117e5906136e0565b80601f0160208091040260200160405190810160405280929190818152602001828054611811906136e0565b801561185e5780601f106118335761010080835404028352916020019161185e565b820191906000526020600020905b81548152906001019060200180831161184157829003601f168201915b5050505050908060010154908060020154908060030154908060040154905085565b600160009054906101000a900473ffffffffffffffffffffffffffffffffffffffff1673ffffffffffffffffffffffffffffffffffffffff163373ffffffffffffffffffffffffffffffffffffffff16146118da57600080fd5b81600115156009826040516118ef919061369a565b908152602001604051809103902060000160009054906101000a900460ff1615151461191a57600080fd5b6003838160038111156119305761192f6131e4565b5b600982604051611940919061369a565b908152602001604051809103902060040160009054906101000a900460ff166003811115611971576119706131e4565b5b1461197b57600080fd5b600185816007811115611991576119906131e4565b5b600a826040516119a1919061369a565b9081526020016040518091039020600b0160009054906101000a900460ff1660078111156119d2576119d16131e4565b5b146119dc57600080fd5b856119e85760026119eb565b60035b600a886040516119fb919061369a565b9081526020016040518091039020600b0160006101000a81548160ff02191690836007811115611a2e57611a2d6131e4565b5b021790555050505050505050565b6060806060600160009054906101000a900473ffffffffffffffffffffffffffffffffffffffff1673ffffffffffffffffffffffffffffffffffffffff163373ffffffffffffffffffffffffffffffffffffffff1614611a9b57600080fd5b6000600a85604051611aad919061369a565b90815260200160405180910390209050806000018160010182600201828054611ad5906136e0565b80601f0160208091040260200160405190810160405280929190818152602001828054611b01906136e0565b8015611b4e5780601f10611b2357610100808354040283529160200191611b4e565b820191906000526020600020905b815481529060010190602001808311611b3157829003601f168201915b50505050509250818054611b61906136e0565b80601f0160208091040260200160405190810160405280929190818152602001828054611b8d906136e0565b8015611bda5780601f10611baf57610100808354040283529160200191611bda565b820191906000526020600020905b815481529060010190602001808311611bbd57829003601f168201915b50505050509150808054611bed906136e0565b80601f0160208091040260200160405190810160405280929190818152602001828054611c19906136e0565b8015611c665780601f10611c3b57610100808354040283529160200191611c66565b820191906000526020600020905b815481529060010190602001808311611c4957829003601f168201915b50505050509050935093509350509193909250565b6000806060806000600160009054906101000a900473ffffffffffffffffffffffffffffffffffffffff1673ffffffffffffffffffffffffffffffffffffffff163373ffffffffffffffffffffffffffffffffffffffff1614611cdd57600080fd5b6000600987604051611cef919061369a565b908152602001604051809103902090508060000160009054906101000a900460ff16816001015482600201836003018460040160009054906101000a900460ff16828054611d3c906136e0565b80601f0160208091040260200160405190810160405280929190818152602001828054611d68906136e0565b8015611db55780601f10611d8a57610100808354040283529160200191611db5565b820191906000526020600020905b815481529060010190602001808311611d9857829003601f168201915b50505050509250818054611dc8906136e0565b80601f0160208091040260200160405190810160405280929190818152602001828054611df4906136e0565b8015611e415780601f10611e1657610100808354040283529160200191611e41565b820191906000526020600020905b815481529060010190602001808311611e2457829003601f168201915b50505050509150955095509550955095505091939590929450565b6000600160009054906101000a900473ffffffffffffffffffffffffffffffffffffffff1673ffffffffffffffffffffffffffffffffffffffff163373ffffffffffffffffffffffffffffffffffffffff1614611eb857600080fd5b600160009054906101000a900473ffffffffffffffffffffffffffffffffffffffff16905090565b60606000805480602002602001604051908101604052809291908181526020016000905b82821015611ff057838290600052602060002090600502016040518060a0016040529081600082018054611f37906136e0565b80601f0160208091040260200160405190810160405280929190818152602001828054611f63906136e0565b8015611fb05780601f10611f8557610100808354040283529160200191611fb0565b820191906000526020600020905b815481529060010190602001808311611f9357829003601f168201915b5050505050815260200160018201548152602001600282015481526020016003820154815260200160048201548152505081526020019060010190611f04565b50505050905090565b600160009054906101000a900473ffffffffffffffffffffffffffffffffffffffff1673ffffffffffffffffffffffffffffffffffffffff163373ffffffffffffffffffffffffffffffffffffffff161461205357600080fd5b6000855111612097576040517f08c379a000000000000000000000000000000000000000000000000000000000815260040161208e9061375d565b60405180910390fd5b600084136120da576040517f08c379a00000000000000000000000000000000000000000000000000000000081526004016120d1906137c9565b60405180910390fd5b6000831361211d576040517f08c379a000000000000000000000000000000000000000000000000000000000815260040161211490613835565b60405180910390fd5b60008213612160576040517f08c379a0000000000000000000000000000000000000000000000000000000008152600401612157906138a1565b60405180910390fd5b600081136121a3576040517f08c379a000000000000000000000000000000000000000000000000000000000815260040161219a9061390d565b60405180910390fd5b6040518060a0016040528086815260200185815260200184815260200183815260200182815250600460008201518160000190805190602001906121e89291906129eb565b506020820151816001015560408201518160020155606082015181600301556080820151816004015590505060006040518060a0016040528087815260200186815260200185815260200184815260200183815250908060018154018082558091505060019003906000526020600020906005020160009091909190915060008201518160000190805190602001906122829291906129eb565b506020820151816001015560408201518160020155606082015181600301556080820151816004015550507f4b86d1555e817a396429eba07835600387be3aaef4171b2fe65454c180a6751485858585856040516122e49594939291906130a6565b60405180910390a15050505050565b600360009054906101000a900460ff1681565b6060806060600160009054906101000a900473ffffffffffffffffffffffffffffffffffffffff1673ffffffffffffffffffffffffffffffffffffffff163373ffffffffffffffffffffffffffffffffffffffff161461236557600080fd5b6000600a85604051612377919061369a565b90815260200160405180910390209050806008018160090182600a0182805461239f906136e0565b80601f01602080910402602001604051908101604052809291908181526020018280546123cb906136e0565b80156124185780601f106123ed57610100808354040283529160200191612418565b820191906000526020600020905b8154815290600101906020018083116123fb57829003601f168201915b5050505050925081805461242b906136e0565b80601f0160208091040260200160405190810160405280929190818152602001828054612457906136e0565b80156124a45780601f10612479576101008083540402835291602001916124a4565b820191906000526020600020905b81548152906001019060200180831161248757829003601f168201915b505050505091508080546124b7906136e0565b80601f01602080910402602001604051908101604052809291908181526020018280546124e3906136e0565b80156125305780601f1061250557610100808354040283529160200191612530565b820191906000526020600020905b81548152906001019060200180831161251357829003601f168201915b50505050509050935093509350509193909250565b600160009054906101000a900473ffffffffffffffffffffffffffffffffffffffff1673ffffffffffffffffffffffffffffffffffffffff163373ffffffffffffffffffffffffffffffffffffffff161461259f57600080fd5b81600115156009826040516125b4919061369a565b908152602001604051809103902060000160009054906101000a900460ff161515146125df57600080fd5b6003838160038111156125f5576125f46131e4565b5b600982604051612605919061369a565b908152602001604051809103902060040160009054906101000a900460ff166003811115612636576126356131e4565b5b1461264057600080fd5b600785816007811115612656576126556131e4565b5b600a82604051612666919061369a565b9081526020016040518091039020600b0160009054906101000a900460ff166007811115612697576126966131e4565b5b146126a157600080fd5b85600b8190555050505050505050565b6000600160009054906101000a900473ffffffffffffffffffffffffffffffffffffffff1673ffffffffffffffffffffffffffffffffffffffff163373ffffffffffffffffffffffffffffffffffffffff161461270d57600080fd5b6000600a8360405161271f919061369a565b9081526020016040518091039020905080600b0160009054906101000a900460ff16915050919050565b600160009054906101000a900473ffffffffffffffffffffffffffffffffffffffff1673ffffffffffffffffffffffffffffffffffffffff163373ffffffffffffffffffffffffffffffffffffffff16146127a357600080fd5b806000600a826040516127b6919061369a565b9081526020016040518091039020600b0160009054906101000a900460ff169050600460078111156127eb576127ea6131e4565b5b8160078111156127fe576127fd6131e4565b5b148061282e575060066007811115612819576128186131e4565b5b81600781111561282c5761282b6131e4565b5b145b8061285c5750600780811115612847576128466131e4565b5b81600781111561285a576128596131e4565b5b145b8061288b575060026007811115612876576128756131e4565b5b816007811115612889576128886131e4565b5b145b1561289557600080fd5b6004600a846040516128a7919061369a565b9081526020016040518091039020600b0160006101000a81548160ff021916908360078111156128da576128d96131e4565b5b02179055506000600360006101000a81548160ff021916908315150217905550505050565b6060600160009054906101000a900473ffffffffffffffffffffffffffffffffffffffff1673ffffffffffffffffffffffffffffffffffffffff163373ffffffffffffffffffffffffffffffffffffffff161461295b57600080fd5b60028054612968906136e0565b80601f0160208091040260200160405190810160405280929190818152602001828054612994906136e0565b80156129e15780601f106129b6576101008083540402835291602001916129e1565b820191906000526020600020905b8154815290600101906020018083116129c457829003601f168201915b5050505050905090565b8280546129f7906136e0565b90600052602060002090601f016020900481019282612a195760008555612a60565b82601f10612a3257805160ff1916838001178555612a60565b82800160010185558215612a60579182015b82811115612a5f578251825591602001919060010190612a44565b5b509050612a6d9190612a71565b5090565b5b80821115612a8a576000816000905550600101612a72565b5090565b6000604051905090565b600080fd5b600080fd5b600080fd5b600080fd5b6000601f19601f8301169050919050565b7f4e487b7100000000000000000000000000000000000000000000000000000000600052604160045260246000fd5b612af582612aac565b810181811067ffffffffffffffff82111715612b1457612b13612abd565b5b80604052505050565b6000612b27612a8e565b9050612b338282612aec565b919050565b600067ffffffffffffffff821115612b5357612b52612abd565b5b612b5c82612aac565b9050602081019050919050565b82818337600083830152505050565b6000612b8b612b8684612b38565b612b1d565b905082815260208101848484011115612ba757612ba6612aa7565b5b612bb2848285612b69565b509392505050565b600082601f830112612bcf57612bce612aa2565b5b8135612bdf848260208601612b78565b91505092915050565b60008060408385031215612bff57612bfe612a98565b5b600083013567ffffffffffffffff811115612c1d57612c1c612a9d565b5b612c2985828601612bba565b925050602083013567ffffffffffffffff811115612c4a57612c49612a9d565b5b612c5685828601612bba565b9150509250929050565b6000819050919050565b612c7381612c60565b8114612c7e57600080fd5b50565b600081359050612c9081612c6a565b92915050565b60008060008060008060008060006101208a8c031215612cb957612cb8612a98565b5b60008a013567ffffffffffffffff811115612cd757612cd6612a9d565b5b612ce38c828d01612bba565b99505060208a013567ffffffffffffffff811115612d0457612d03612a9d565b5b612d108c828d01612bba565b98505060408a013567ffffffffffffffff811115612d3157612d30612a9d565b5b612d3d8c828d01612bba565b97505060608a013567ffffffffffffffff811115612d5e57612d5d612a9d565b5b612d6a8c828d01612bba565b9650506080612d7b8c828d01612c81565b95505060a0612d8c8c828d01612c81565b94505060c0612d9d8c828d01612c81565b93505060e08a013567ffffffffffffffff811115612dbe57612dbd612a9d565b5b612dca8c828d01612bba565b9250506101008a013567ffffffffffffffff811115612dec57612deb612a9d565b5b612df88c828d01612bba565b9150509295985092959850929598565b600060208284031215612e1e57612e1d612a98565b5b600082013567ffffffffffffffff811115612e3c57612e3b612a9d565b5b612e4884828501612bba565b91505092915050565b6000819050919050565b612e6481612e51565b82525050565b612e7381612c60565b82525050565b600081519050919050565b600082825260208201905092915050565b60005b83811015612eb3578082015181840152602081019050612e98565b83811115612ec2576000848401525b50505050565b6000612ed382612e79565b612edd8185612e84565b9350612eed818560208601612e95565b612ef681612aac565b840191505092915050565b600060a082019050612f166000830188612e5b565b612f236020830187612e6a565b612f306040830186612e6a565b612f3d6060830185612e6a565b8181036080830152612f4f8184612ec8565b90509695505050505050565b612f6481612e51565b8114612f6f57600080fd5b50565b600081359050612f8181612f5b565b92915050565b600080600060608486031215612fa057612f9f612a98565b5b6000612fae86828701612f72565b935050602084013567ffffffffffffffff811115612fcf57612fce612a9d565b5b612fdb86828701612bba565b925050604084013567ffffffffffffffff811115612ffc57612ffb612a9d565b5b61300886828701612bba565b9150509250925092565b60008115159050919050565b61302781613012565b811461303257600080fd5b50565b6000813590506130448161301e565b92915050565b6000806040838503121561306157613060612a98565b5b600061306f85828601613035565b925050602083013567ffffffffffffffff8111156130905761308f612a9d565b5b61309c85828601612bba565b9150509250929050565b600060a08201905081810360008301526130c08188612ec8565b90506130cf6020830187612e5b565b6130dc6040830186612e5b565b6130e96060830185612e5b565b6130f66080830184612e5b565b9695505050505050565b60006020828403121561311657613115612a98565b5b600061312484828501612c81565b91505092915050565b6000806040838503121561314457613143612a98565b5b600083013567ffffffffffffffff81111561316257613161612a9d565b5b61316e85828601612bba565b925050602061317f85828601613035565b9150509250929050565b600060608201905081810360008301526131a38186612ec8565b905081810360208301526131b78185612ec8565b905081810360408301526131cb8184612ec8565b9050949350505050565b6131de81613012565b82525050565b7f4e487b7100000000000000000000000000000000000000000000000000000000600052602160045260246000fd5b60048110613224576132236131e4565b5b50565b600081905061323582613213565b919050565b600061324582613227565b9050919050565b6132558161323a565b82525050565b600060a08201905061327060008301886131d5565b61327d6020830187612e5b565b818103604083015261328f8186612ec8565b905081810360608301526132a38185612ec8565b90506132b2608083018461324c565b9695505050505050565b600073ffffffffffffffffffffffffffffffffffffffff82169050919050565b60006132e7826132bc565b9050919050565b6132f7816132dc565b82525050565b600060208201905061331260008301846132ee565b92915050565b600081519050919050565b600082825260208201905092915050565b6000819050602082019050919050565b600082825260208201905092915050565b600061336082612e79565b61336a8185613344565b935061337a818560208601612e95565b61338381612aac565b840191505092915050565b61339781612e51565b82525050565b600060a08301600083015184820360008601526133ba8282613355565b91505060208301516133cf602086018261338e565b5060408301516133e2604086018261338e565b5060608301516133f5606086018261338e565b506080830151613408608086018261338e565b508091505092915050565b600061341f838361339d565b905092915050565b6000602082019050919050565b600061343f82613318565b6134498185613323565b93508360208202850161345b85613334565b8060005b8581101561349757848403895281516134788582613413565b945061348383613427565b925060208a0199505060018101905061345f565b50829750879550505050505092915050565b600060208201905081810360008301526134c38184613434565b905092915050565b600080600080600060a086880312156134e7576134e6612a98565b5b600086013567ffffffffffffffff81111561350557613504612a9d565b5b61351188828901612bba565b955050602061352288828901612f72565b945050604061353388828901612f72565b935050606061354488828901612f72565b925050608061355588828901612f72565b9150509295509295909350565b600060208201905061357760008301846131d5565b92915050565b6000806040838503121561359457613593612a98565b5b600083013567ffffffffffffffff8111156135b2576135b1612a9d565b5b6135be85828601612bba565b92505060206135cf85828601612c81565b9150509250929050565b600881106135ea576135e96131e4565b5b50565b60008190506135fb826135d9565b919050565b600061360b826135ed565b9050919050565b61361b81613600565b82525050565b60006020820190506136366000830184613612565b92915050565b600060208201905081810360008301526136568184612ec8565b905092915050565b600081905092915050565b600061367482612e79565b61367e818561365e565b935061368e818560208601612e95565b80840191505092915050565b60006136a68284613669565b915081905092915050565b7f4e487b7100000000000000000000000000000000000000000000000000000000600052602260045260246000fd5b600060028204905060018216806136f857607f821691505b60208210810361370b5761370a6136b1565b5b50919050565b7f4d75737420626520612076616c696420737472656574204e616d650000000000600082015250565b6000613747601b83612e84565b915061375282613711565b602082019050919050565b600060208201905081810360008301526137768161373a565b9050919050565b7f4d75737420626520612076616c75650000000000000000000000000000000000600082015250565b60006137b3600f83612e84565b91506137be8261377d565b602082019050919050565b600060208201905081810360008301526137e2816137a6565b9050919050565b7f4d75737420626520612076616c696420666c6f72654e72000000000000000000600082015250565b600061381f601783612e84565b915061382a826137e9565b602082019050919050565b6000602082019050818103600083015261384e81613812565b9050919050565b7f4d75737420626520612076616c696420686f7573654e72000000000000000000600082015250565b600061388b601783612e84565b915061389682613855565b602082019050919050565b600060208201905081810360008301526138ba8161387e565b9050919050565b7f4d75737420626520612076616c696420706f7374616c436f6465000000000000600082015250565b60006138f7601a83612e84565b9150613902826138c1565b602082019050919050565b60006020820190508181036000830152613926816138ea565b905091905056fea2646970667358221220ad88fd3c5ab036f2d4b797de48485f525e548e278e83827e1503d50c3e536c8764736f6c634300080d0033",
  "immutableReferences": {},
  "source": "\r\n// SPDX-License-Identifier:MIT\r\npragma solidity ^0.8.0;\r\n\r\nimport \"./RentToContract.sol\";\r\n\r\n\r\ncontract EnlistmentToContract {\r\n\r\n    // MAIN VARIABLES THE CONTRACT WILL BE WORKING WITH\r\n    // MAIN ENUMERATIONS THE CONTRACT WILL BE WORKING WITH\r\n\r\n    enum OfferStatus { // CURRENT STATE OF ANY OFFER SUBMITTED FOR A PROPERTY\r\n        PENDING,\r\n        REJECTED,\r\n        CANCELLED,\r\n        ACCEPTED\r\n    }\r\n\r\n    enum AgreementStatus { // CURRENT STATE OF ANY AGREEMENT REGARDING AN OFFER\r\n        UNINITIALIZED, // internal\r\n        PENDING,\r\n        REJECTED,\r\n        CONFIRMED,\r\n        CANCELLED,\r\n        LANDLORD_SIGNED,\r\n        TENANT_SIGNED,\r\n        COMPLETED\r\n    }\r\n\r\n    // MAIN STRUCTS (Enlistment, Offer, AgreementDraft) THE CONTRACT WILL BE WORKING WITH\r\n    // NOTE: These could've been made separate Smart Contracts instead (would probably work better that way)\r\n\r\n    struct Enlistment {\r\n        string streetName;\r\n        int floorNr;\r\n        int apartmentNr;\r\n        int houseNr;\r\n        int postalCode;\r\n    }\r\n\r\n    Enlistment[] public enlistments;\r\n\r\n    struct Offer {\r\n        bool initialized;\r\n        int amount;\r\n        string tenantName;\r\n        string tenantEmail;\r\n        OfferStatus status;\r\n    }\r\n\r\n    struct AgreementDraft {\r\n        string landlordName; // for simplicity, there is only one landlord\r\n        string tenantName; // for simplicity, there is only one tenant and occupants are omitted\r\n        string tenantEmail;\r\n        int amount;\r\n        uint leaseStart;\r\n        uint handoverDate;\r\n        uint leasePeriod;\r\n        string otherTerms;\r\n        string agreementHash;\r\n        string landlordSignedHash;\r\n        string tenantSignedHash;\r\n        AgreementStatus status;\r\n    }\r\n    \r\n    address payable owner;\r\n    string landlord;\r\n    bool public locked = false;\r\n    Enlistment enlistment;\r\n    // \r\n    mapping(string => Offer) tenantOfferMap;\r\n    mapping(string => AgreementDraft) tenantAgreementMap;\r\n    // \r\n    uint private rentAmount;\r\n    address private rentToContractAddress;\r\n    //RentToContract private rentToContract;\r\n    \r\n    event AddEnlistment(string streetName, int floorNr, int apartmentNr, int houseNr, int postalCode);\r\n\r\n    constructor(string memory landlordEmail, string memory streetName, int floorNr, int apartmentNr, int houseNr, int postalCode)\r\n    {   // CREATE A NEW ENLISTMENT STRUCT OBJECT FROM THE PASSED IN ARGUMENTS \r\n        enlistment = Enlistment(streetName, floorNr, apartmentNr, houseNr, postalCode);\r\n        landlord = landlordEmail;\r\n        owner = payable(msg.sender);\r\n        \r\n    }\r\n\r\n    function addEnlistmet(  string memory streetName,  int floorNr, int apartmentNr, int houseNr, int postalCode) public ownerOnly {\r\n        \r\n        require(bytes(streetName).length > 0, 'Must be a valid street Name');\r\n        \r\n        require(floorNr > 0, 'Must be a value');\r\n        \r\n        require(apartmentNr > 0, 'Must be a valid floreNr');\r\n        \r\n        require(houseNr > 0, 'Must be a valid houseNr');\r\n        \r\n        require(postalCode > 0, 'Must be a valid postalCode');\r\n        \r\n        enlistment = Enlistment(streetName, floorNr, apartmentNr, houseNr, postalCode);\r\n        enlistments.push(Enlistment(streetName, floorNr, apartmentNr, houseNr, postalCode));\r\n        emit AddEnlistment(streetName, floorNr, apartmentNr, houseNr, postalCode);\r\n    }\r\n\r\n    // GETTER FUNCTIONS \r\n \r\n    function getOwner() public view ownerOnly() returns (address) {\r\n        return owner;\r\n    }\r\n\r\n    function getLandlord() public view ownerOnly() returns (string memory) {\r\n        return landlord;\r\n    }\r\n\r\n    function getEnlistment() public view ownerOnly() returns (string memory, int, int, int, int) {\r\n        return (enlistment.streetName, enlistment.floorNr, enlistment.apartmentNr, enlistment.houseNr, enlistment.postalCode);\r\n    }\r\n\r\n    function getEnlistments() public view returns (Enlistment[] memory) {\r\n        return enlistments;\r\n    }\r\n    \r\n\r\n    // MAIN MODIFIERS THE CONTRACT WILL BE WORKING WITH\r\n    \r\n    modifier Owner {\r\n    require(msg.sender == owner);\r\n    _;\r\n    } \r\n    modifier noActiveEnlistmet(string memory tenantEmail){\r\n        require(tenantOfferMap[tenantEmail].initialized == true);\r\n        _;\r\n    }\r\n\r\n    modifier noActiveOffer(string memory tenantEmail) { // CHECKS IF THE TENANT (tenantEmail) INDEED HAS NO ACTIVE OFFER\r\n        require(tenantOfferMap[tenantEmail].initialized == false || tenantOfferMap[tenantEmail].status == OfferStatus.REJECTED || tenantOfferMap[tenantEmail].status == OfferStatus.CANCELLED);\r\n        _;\r\n    }\r\n\r\n    modifier offerExists(string memory tenantEmail) { // CHECKS IF THE TENANT (tenantEmail) HAS INDEED MADE AN OFFER\r\n        require(tenantOfferMap[tenantEmail].initialized == true);\r\n        _;\r\n    }\r\n\r\n    modifier offerInStatus(OfferStatus status, string memory tenantEmail) { // CONFIRMS STATUS OF THE OFFER IN QUESTION\r\n        require(tenantOfferMap[tenantEmail].status == status);\r\n        _;\r\n    }\r\n\r\n    modifier offerCancellable(string memory tenantEmail) { // CONFIRMS IF AN OFFER ISN'T ALREADY A DONE DEAL\r\n        OfferStatus offerStatus = tenantOfferMap[tenantEmail].status;\r\n        require(offerStatus == OfferStatus.PENDING || offerStatus == OfferStatus.ACCEPTED);\r\n        AgreementStatus agreementStatus = tenantAgreementMap[tenantEmail].status;\r\n        require(!(agreementStatus == AgreementStatus.CANCELLED || agreementStatus == AgreementStatus.TENANT_SIGNED || agreementStatus == AgreementStatus.COMPLETED));\r\n        _;\r\n    }\r\n\r\n    modifier agreementCanBeSubmitted(string memory tenantEmail) { // CONFIRMS IF THERE'S NO ACTIVE AGREEMENT AWAITING SIGNATURE CONSUMATION\r\n        require(tenantAgreementMap[tenantEmail].status == AgreementStatus.UNINITIALIZED || tenantAgreementMap[tenantEmail].status == AgreementStatus.REJECTED || tenantAgreementMap[tenantEmail].status == AgreementStatus.CANCELLED);\r\n        _;\r\n    }\r\n\r\n    modifier agreementInStatus(AgreementStatus status, string memory tenantEmail) {\r\n        require(tenantAgreementMap[tenantEmail].status == status); // VALIDATES THE AGREEMENT'S STATUS\r\n        _;\r\n    }\r\n\r\n    modifier agreementCancellable(string memory tenantEmail) { // CONFIRMS IF AN AGREEMENT ISN'T ALREADY A DONE DEAL (OR HASN'T BEEN REJECTED)\r\n        AgreementStatus agreementStatus = tenantAgreementMap[tenantEmail].status;\r\n        require(!(agreementStatus == AgreementStatus.CANCELLED || agreementStatus == AgreementStatus.TENANT_SIGNED || agreementStatus == AgreementStatus.COMPLETED || agreementStatus == AgreementStatus.REJECTED));\r\n        _;\r\n    }\r\n\r\n    modifier notLocked() {\r\n        require(!locked);\r\n        _;\r\n    }\r\n\r\n    modifier ownerOnly() {\r\n        require(msg.sender == owner);\r\n        _;\r\n    }\r\n\r\n    // what if the offer is in status PENDING and the tenant wants to send a new one?\r\n    // in a case like that, find a way to handle multiple pending offers simultaneously\r\n\r\n    function sendOffer(int amount, string memory tenantName, string memory tenantEmail) public payable\r\n        ownerOnly()\r\n        noActiveOffer(tenantEmail) // coz this modifier ensures that there's no active offer ..\r\n        notLocked()\r\n    {\r\n        Offer memory offer = Offer({\r\n            initialized: true,\r\n            amount: amount,\r\n            tenantName: tenantName,\r\n            tenantEmail: tenantEmail,\r\n            status: OfferStatus.PENDING\r\n        });\r\n        tenantOfferMap[tenantEmail] = offer;\r\n    }\r\n\r\n    // cancel an offer that has been submitted (and is cancellable)\r\n\r\n    function cancelOffer(string memory tenantEmail) public payable\r\n        ownerOnly()\r\n        offerExists(tenantEmail)\r\n        offerCancellable(tenantEmail)\r\n    {\r\n        tenantOfferMap[tenantEmail].status = OfferStatus.CANCELLED;\r\n        if (tenantAgreementMap[tenantEmail].status != AgreementStatus.UNINITIALIZED) {\r\n            tenantAgreementMap[tenantEmail].status = AgreementStatus.CANCELLED;\r\n        }\r\n        locked = false;\r\n    }\r\n\r\n    // get an offer that has been submitted (and is hasn't been cancelled yet)\r\n    \r\n    function getOffer(string memory tenantEmail) public view ownerOnly() returns (bool, int, string memory, string memory, OfferStatus) {\r\n        Offer storage o = tenantOfferMap[tenantEmail];\r\n        return (o.initialized, o.amount, o.tenantName, o.tenantEmail, o.status);\r\n    }\r\n\r\n    // review (accept / reject) an offer that has been submitted (and is pending)\r\n    \r\n    function reviewOffer(bool result, string memory tenantEmail) public payable\r\n        ownerOnly()\r\n        offerExists(tenantEmail)\r\n        offerInStatus(OfferStatus.PENDING, tenantEmail)\r\n    {\r\n        tenantOfferMap[tenantEmail].status = result ? OfferStatus.ACCEPTED : OfferStatus.REJECTED;\r\n    }\r\n\r\n    // submit the draft of an agreement (only if: the offer still exists & has been accepted, and an agreement can be submitted)\r\n    // a new draft agreement can submitted only if there isn't already 1 in place that has been signed, or awaiting confirmation\r\n    \r\n    function submitDraft(string memory tenantEmail, string memory landlordName, string memory agreementTenantName, string memory agreementTenantEmail, uint leaseStart, uint handoverDate, uint leasePeriod, string memory otherTerms, string memory hashStr) public payable\r\n        ownerOnly()\r\n        offerExists(tenantEmail)\r\n        offerInStatus(OfferStatus.ACCEPTED, tenantEmail)\r\n        agreementCanBeSubmitted(tenantEmail)\r\n    {\r\n        int256 amount = tenantOfferMap[tenantEmail].amount;\r\n        tenantAgreementMap[tenantEmail] = AgreementDraft(landlordName, agreementTenantName, agreementTenantEmail, amount, leaseStart, handoverDate, leasePeriod, otherTerms, hashStr, \"\", \"\", AgreementStatus.PENDING);\r\n    }\r\n\r\n    // getAgreement functions:\r\n    // can only return tuple of max 7 elements, otherwise throws \"Stack too deep\" \r\n    // solution: splitted into multiple functions - getAgreement + (Participants/Details/Hashes/Status)\r\n\r\n    function getAgreementParticipants(string memory tenantEmail) public view ownerOnly() returns (string memory, string memory, string memory) {\r\n        AgreementDraft storage a = tenantAgreementMap[tenantEmail];\r\n        return (a.landlordName, a.tenantName, a.tenantEmail);\r\n    }\r\n\r\n    function getAgreementDetails(string memory tenantEmail) public view ownerOnly() returns (int, uint, uint, uint, string memory) {\r\n        AgreementDraft storage a = tenantAgreementMap[tenantEmail];\r\n        return (a.amount, a.leaseStart, a.handoverDate, a.leasePeriod, a.otherTerms);\r\n    }\r\n\r\n    function getAgreementHashes(string memory tenantEmail) public view ownerOnly() returns (string memory, string memory, string memory) {\r\n        AgreementDraft storage a = tenantAgreementMap[tenantEmail];\r\n        return (a.agreementHash, a.landlordSignedHash, a.tenantSignedHash);\r\n    }\r\n\r\n    function getAgreementStatus(string memory tenantEmail) public view ownerOnly() returns (AgreementStatus) {\r\n        AgreementDraft storage a = tenantAgreementMap[tenantEmail];\r\n        return (a.status);\r\n    }\r\n\r\n    // review an agreement draft (only if: the offer still exists & has been accepted, and an agreement exists & is pending)\r\n    \r\n    function reviewAgreement(string memory tenantEmail, bool result) public payable\r\n        ownerOnly()\r\n        offerExists(tenantEmail)\r\n        offerInStatus(OfferStatus.ACCEPTED, tenantEmail)\r\n        agreementInStatus(AgreementStatus.PENDING, tenantEmail)\r\n    {\r\n        tenantAgreementMap[tenantEmail].status = result ? AgreementStatus.CONFIRMED : AgreementStatus.REJECTED;\r\n    }\r\n\r\n    // signing of an agreement draft by the landlord (only if: the offer still exists & has been accepted, and an agreement exists & is confirmed)\r\n    \r\n    function landlordSignAgreement(string memory tenantEmail, string memory landlordSignedHash) public payable\r\n        ownerOnly()\r\n        notLocked()\r\n        offerExists(tenantEmail)\r\n        offerInStatus(OfferStatus.ACCEPTED, tenantEmail)\r\n        agreementInStatus(AgreementStatus.CONFIRMED, tenantEmail)\r\n    {\r\n        tenantAgreementMap[tenantEmail].landlordSignedHash = landlordSignedHash;\r\n        tenantAgreementMap[tenantEmail].status = AgreementStatus.LANDLORD_SIGNED;\r\n        locked = true;\r\n    }\r\n\r\n    // signing of an agreement draft by the tenant (only if: the offer still exists & has been accepted, and an agreement exists & the landlord has signed already)\r\n\r\n    function tenantSignAgreement(string memory tenantEmail, string memory tenantSignedHash) public payable\r\n        ownerOnly()\r\n        offerExists(tenantEmail)\r\n        offerInStatus(OfferStatus.ACCEPTED, tenantEmail)\r\n        agreementInStatus(AgreementStatus.LANDLORD_SIGNED, tenantEmail)\r\n    {\r\n        tenantAgreementMap[tenantEmail].tenantSignedHash = tenantSignedHash;\r\n        tenantAgreementMap[tenantEmail].status = AgreementStatus.TENANT_SIGNED;\r\n    }\r\n\r\n    // cancelling of an agreement draft by the tenant (only if the agreement is cancellable ie. it exists, but the landlord hasn't already signed it)\r\n\r\n    function cancelAgreement(string memory tenantEmail) public payable\r\n        ownerOnly()\r\n        agreementCancellable(tenantEmail)\r\n    {\r\n        tenantAgreementMap[tenantEmail].status = AgreementStatus.CANCELLED;\r\n        locked = false;\r\n    }\r\n\r\n    // receiving the 1st month rent from the tenant (only if the agreement has been signed by both parties ie. the landlord and the tenant)\r\n\r\n    function receiveFirstMonthRent(string memory tenantEmail) public payable\r\n        ownerOnly()\r\n        offerExists(tenantEmail)\r\n        offerInStatus(OfferStatus.ACCEPTED, tenantEmail)\r\n        agreementInStatus(AgreementStatus.TENANT_SIGNED, tenantEmail)\r\n    {\r\n        tenantAgreementMap[tenantEmail].status = AgreementStatus.COMPLETED;\r\n        \r\n        // EITHER TRY THIS TO INSTANTIATE THE RentToContract.sol SMART CONTRACT ..\r\n        // rentToContractAddress = new RentToContract(tenantEmail, tenantAgreementMap[tenantEmail].tenantName, \r\n        // tenantAgreementMap[tenantEmail].landlordName, 100, 1000000000000); \r\n        // rentToContract = RentToContract(rentToContractAddress);\r\n        // \r\n        // OR, JUST TRY THIS INSTEAD .. ..\r\n        // rentToContract = new RentToContract(tenantEmail, tenantAgreementMap[tenantEmail].tenantName, \r\n        // tenantAgreementMap[tenantEmail].landlordName, 100, 1000000000000); \r\n\r\n        // EVENTUALLY, THE RENT AMOUNT & THE CONTRACT'S DURATION MUST BOTH BE MADE DYNAMIC \r\n    }\r\n    \r\n    function receiveMonthlyRent(string memory tenantEmail, uint amount) public payable\r\n        ownerOnly()\r\n        offerExists(tenantEmail)\r\n        offerInStatus(OfferStatus.ACCEPTED, tenantEmail)\r\n        agreementInStatus(AgreementStatus.COMPLETED, tenantEmail)\r\n    {\r\n        rentAmount = amount; // WORK WITH RENT amount\r\n        // rentToContract.receiveMonthlyRent(tenantEmail, amount);\r\n    }\r\n\r\n}\r\n",
  "sourcePath": "C:\\Users\\afegb\\Pictures\\BlocProperties-Enlistment-Project\\contracts\\Enlistment.sol",
  "compiler": {
    "name": "solc",
    "version": "0.8.13+commit.abaa5c0e.Emscripten.clang"
  },
  "schemaVersion": "3.4.16",
  "updatedAt": "2023-12-18T13:59:20.000Z",
  "networkType": "ethereum",
  "devdoc": {
    "kind": "dev",
    "methods": {},
    "version": 1
  },
  "userdoc": {
    "kind": "user",
    "methods": {},
    "version": 1
  }
}