{
  "contractName": "EnlistmentToContract",
  "abi": [
    {
      "inputs": [
        {
          "internalType": "string",
          "name": "landlordEmail",
          "type": "string"
        },
        {
          "internalType": "string",
          "name": "streetName",
          "type": "string"
        },
        {
          "internalType": "int256",
          "name": "floorNr",
          "type": "int256"
        },
        {
          "internalType": "int256",
          "name": "apartmentNr",
          "type": "int256"
        },
        {
          "internalType": "int256",
          "name": "houseNr",
          "type": "int256"
        },
        {
          "internalType": "int256",
          "name": "postalCode",
          "type": "int256"
        }
      ],
      "payable": false,
      "stateMutability": "nonpayable",
      "type": "constructor"
    },
    {
      "constant": true,
      "inputs": [],
      "name": "locked",
      "outputs": [
        {
          "internalType": "bool",
          "name": "",
          "type": "bool"
        }
      ],
      "payable": false,
      "stateMutability": "view",
      "type": "function"
    },
    {
      "constant": false,
      "inputs": [
        {
          "internalType": "string",
          "name": "streetName",
          "type": "string"
        },
        {
          "internalType": "int256",
          "name": "floorNr",
          "type": "int256"
        },
        {
          "internalType": "int256",
          "name": "apartmentNr",
          "type": "int256"
        },
        {
          "internalType": "int256",
          "name": "houseNr",
          "type": "int256"
        },
        {
          "internalType": "int256",
          "name": "postalCode",
          "type": "int256"
        }
      ],
      "name": "addEnlistmet",
      "outputs": [],
      "payable": false,
      "stateMutability": "nonpayable",
      "type": "function"
    },
    {
      "constant": true,
      "inputs": [],
      "name": "getOwner",
      "outputs": [
        {
          "internalType": "address",
          "name": "",
          "type": "address"
        }
      ],
      "payable": false,
      "stateMutability": "view",
      "type": "function"
    },
    {
      "constant": true,
      "inputs": [],
      "name": "getLandlord",
      "outputs": [
        {
          "internalType": "string",
          "name": "",
          "type": "string"
        }
      ],
      "payable": false,
      "stateMutability": "view",
      "type": "function"
    },
    {
      "constant": true,
      "inputs": [],
      "name": "getEnlistment",
      "outputs": [
        {
          "internalType": "string",
          "name": "",
          "type": "string"
        },
        {
          "internalType": "int256",
          "name": "",
          "type": "int256"
        },
        {
          "internalType": "int256",
          "name": "",
          "type": "int256"
        },
        {
          "internalType": "int256",
          "name": "",
          "type": "int256"
        },
        {
          "internalType": "int256",
          "name": "",
          "type": "int256"
        }
      ],
      "payable": false,
      "stateMutability": "view",
      "type": "function"
    },
    {
      "constant": false,
      "inputs": [
        {
          "internalType": "int256",
          "name": "amount",
          "type": "int256"
        },
        {
          "internalType": "string",
          "name": "tenantName",
          "type": "string"
        },
        {
          "internalType": "string",
          "name": "tenantEmail",
          "type": "string"
        }
      ],
      "name": "sendOffer",
      "outputs": [],
      "payable": true,
      "stateMutability": "payable",
      "type": "function"
    },
    {
      "constant": false,
      "inputs": [
        {
          "internalType": "string",
          "name": "tenantEmail",
          "type": "string"
        }
      ],
      "name": "cancelOffer",
      "outputs": [],
      "payable": true,
      "stateMutability": "payable",
      "type": "function"
    },
    {
      "constant": true,
      "inputs": [
        {
          "internalType": "string",
          "name": "tenantEmail",
          "type": "string"
        }
      ],
      "name": "getOffer",
      "outputs": [
        {
          "internalType": "bool",
          "name": "",
          "type": "bool"
        },
        {
          "internalType": "int256",
          "name": "",
          "type": "int256"
        },
        {
          "internalType": "string",
          "name": "",
          "type": "string"
        },
        {
          "internalType": "string",
          "name": "",
          "type": "string"
        },
        {
          "internalType": "enum EnlistmentToContract.OfferStatus",
          "name": "",
          "type": "uint8"
        }
      ],
      "payable": false,
      "stateMutability": "view",
      "type": "function"
    },
    {
      "constant": false,
      "inputs": [
        {
          "internalType": "bool",
          "name": "result",
          "type": "bool"
        },
        {
          "internalType": "string",
          "name": "tenantEmail",
          "type": "string"
        }
      ],
      "name": "reviewOffer",
      "outputs": [],
      "payable": true,
      "stateMutability": "payable",
      "type": "function"
    },
    {
      "constant": false,
      "inputs": [
        {
          "internalType": "string",
          "name": "tenantEmail",
          "type": "string"
        },
        {
          "internalType": "string",
          "name": "landlordName",
          "type": "string"
        },
        {
          "internalType": "string",
          "name": "agreementTenantName",
          "type": "string"
        },
        {
          "internalType": "string",
          "name": "agreementTenantEmail",
          "type": "string"
        },
        {
          "internalType": "uint256",
          "name": "leaseStart",
          "type": "uint256"
        },
        {
          "internalType": "uint256",
          "name": "handoverDate",
          "type": "uint256"
        },
        {
          "internalType": "uint256",
          "name": "leasePeriod",
          "type": "uint256"
        },
        {
          "internalType": "string",
          "name": "otherTerms",
          "type": "string"
        },
        {
          "internalType": "string",
          "name": "hashStr",
          "type": "string"
        }
      ],
      "name": "submitDraft",
      "outputs": [],
      "payable": true,
      "stateMutability": "payable",
      "type": "function"
    },
    {
      "constant": true,
      "inputs": [
        {
          "internalType": "string",
          "name": "tenantEmail",
          "type": "string"
        }
      ],
      "name": "getAgreementParticipants",
      "outputs": [
        {
          "internalType": "string",
          "name": "",
          "type": "string"
        },
        {
          "internalType": "string",
          "name": "",
          "type": "string"
        },
        {
          "internalType": "string",
          "name": "",
          "type": "string"
        }
      ],
      "payable": false,
      "stateMutability": "view",
      "type": "function"
    },
    {
      "constant": true,
      "inputs": [
        {
          "internalType": "string",
          "name": "tenantEmail",
          "type": "string"
        }
      ],
      "name": "getAgreementDetails",
      "outputs": [
        {
          "internalType": "int256",
          "name": "",
          "type": "int256"
        },
        {
          "internalType": "uint256",
          "name": "",
          "type": "uint256"
        },
        {
          "internalType": "uint256",
          "name": "",
          "type": "uint256"
        },
        {
          "internalType": "uint256",
          "name": "",
          "type": "uint256"
        },
        {
          "internalType": "string",
          "name": "",
          "type": "string"
        }
      ],
      "payable": false,
      "stateMutability": "view",
      "type": "function"
    },
    {
      "constant": true,
      "inputs": [
        {
          "internalType": "string",
          "name": "tenantEmail",
          "type": "string"
        }
      ],
      "name": "getAgreementHashes",
      "outputs": [
        {
          "internalType": "string",
          "name": "",
          "type": "string"
        },
        {
          "internalType": "string",
          "name": "",
          "type": "string"
        },
        {
          "internalType": "string",
          "name": "",
          "type": "string"
        }
      ],
      "payable": false,
      "stateMutability": "view",
      "type": "function"
    },
    {
      "constant": true,
      "inputs": [
        {
          "internalType": "string",
          "name": "tenantEmail",
          "type": "string"
        }
      ],
      "name": "getAgreementStatus",
      "outputs": [
        {
          "internalType": "enum EnlistmentToContract.AgreementStatus",
          "name": "",
          "type": "uint8"
        }
      ],
      "payable": false,
      "stateMutability": "view",
      "type": "function"
    },
    {
      "constant": false,
      "inputs": [
        {
          "internalType": "string",
          "name": "tenantEmail",
          "type": "string"
        },
        {
          "internalType": "bool",
          "name": "result",
          "type": "bool"
        }
      ],
      "name": "reviewAgreement",
      "outputs": [],
      "payable": true,
      "stateMutability": "payable",
      "type": "function"
    },
    {
      "constant": false,
      "inputs": [
        {
          "internalType": "string",
          "name": "tenantEmail",
          "type": "string"
        },
        {
          "internalType": "string",
          "name": "landlordSignedHash",
          "type": "string"
        }
      ],
      "name": "landlordSignAgreement",
      "outputs": [],
      "payable": true,
      "stateMutability": "payable",
      "type": "function"
    },
    {
      "constant": false,
      "inputs": [
        {
          "internalType": "string",
          "name": "tenantEmail",
          "type": "string"
        },
        {
          "internalType": "string",
          "name": "tenantSignedHash",
          "type": "string"
        }
      ],
      "name": "tenantSignAgreement",
      "outputs": [],
      "payable": true,
      "stateMutability": "payable",
      "type": "function"
    },
    {
      "constant": false,
      "inputs": [
        {
          "internalType": "string",
          "name": "tenantEmail",
          "type": "string"
        }
      ],
      "name": "cancelAgreement",
      "outputs": [],
      "payable": true,
      "stateMutability": "payable",
      "type": "function"
    },
    {
      "constant": false,
      "inputs": [
        {
          "internalType": "string",
          "name": "tenantEmail",
          "type": "string"
        }
      ],
      "name": "receiveFirstMonthRent",
      "outputs": [],
      "payable": true,
      "stateMutability": "payable",
      "type": "function"
    },
    {
      "constant": false,
      "inputs": [
        {
          "internalType": "string",
          "name": "tenantEmail",
          "type": "string"
        },
        {
          "internalType": "uint256",
          "name": "amount",
          "type": "uint256"
        }
      ],
      "name": "receiveMonthlyRent",
      "outputs": [],
      "payable": true,
      "stateMutability": "payable",
      "type": "function"
    }
  ],
  "bytecode": "0x60806040526000600260006101000a81548160ff0219169083151502179055503480156200002c57600080fd5b5060405162004e7b38038062004e7b833981810160405260c08110156200005257600080fd5b81019080805160405193929190846401000000008211156200007357600080fd5b838201915060208201858111156200008a57600080fd5b8251866001820283011164010000000082111715620000a857600080fd5b8083526020830192505050908051906020019080838360005b83811015620000de578082015181840152602081019050620000c1565b50505050905090810190601f1680156200010c5780820380516001836020036101000a031916815260200191505b50604052602001805160405193929190846401000000008211156200013057600080fd5b838201915060208201858111156200014757600080fd5b82518660018202830111640100000000821117156200016557600080fd5b8083526020830192505050908051906020019080838360005b838110156200019b5780820151818401526020810190506200017e565b50505050905090810190601f168015620001c95780820380516001836020036101000a031916815260200191505b50604052602001805190602001909291908051906020019092919080519060200190929190805190602001909291905050506040518060a00160405280868152602001858152602001848152602001838152602001828152506003600082015181600001908051906020019062000242929190620002d3565b50602082015181600101556040820151816002015560608201518160030155608082015181600401559050508560019080519060200190620002869291906200035a565b50336000806101000a81548173ffffffffffffffffffffffffffffffffffffffff021916908373ffffffffffffffffffffffffffffffffffffffff16021790555050505050505062000409565b828054600181600116156101000203166002900490600052602060002090601f016020900481019282601f106200031657805160ff191683800117855562000347565b8280016001018555821562000347579182015b828111156200034657825182559160200191906001019062000329565b5b509050620003569190620003e1565b5090565b828054600181600116156101000203166002900490600052602060002090601f016020900481019282601f106200039d57805160ff1916838001178555620003ce565b82800160010185558215620003ce579182015b82811115620003cd578251825591602001919060010190620003b0565b5b509050620003dd9190620003e1565b5090565b6200040691905b8082111562000402576000816000905550600101620003e8565b5090565b90565b614a6280620004196000396000f3fe60806040526004361061013b576000357c01000000000000000000000000000000000000000000000000000000009004806371ca1587116100bd578063d441a15211610081578063d441a1521461137d578063d6ce411214611596578063ec2b2a121461165b578063f278f78414611745578063f502236d146118005761013b565b806371ca158714610e1a5780637a51011614611033578063893d20e814611207578063ca9e04b31461125e578063cf3090121461134e5761013b565b80632d63ce27116101045780632d63ce2714610a6a5780632fcc176d14610b2557806331ae8ed014610bec5780634d45780e14610c98578063673a95ef14610d535761013b565b8062ff22c61461014057806303746e0614610292578063222a7af9146103e4578063265adc33146107b15780632c863d841461090e575b600080fd5b6102906004803603604081101561015657600080fd5b810190808035906020019064010000000081111561017357600080fd5b82018360208201111561018557600080fd5b803590602001918460018302840111640100000000831117156101a757600080fd5b91908080601f016020809104026020016040519081016040528093929190818152602001838380828437600081840152601f19601f8201169050808301925050505050505091929192908035906020019064010000000081111561020a57600080fd5b82018360208201111561021c57600080fd5b8035906020019184600183028401116401000000008311171561023e57600080fd5b91908080601f016020809104026020016040519081016040528093929190818152602001838380828437600081840152601f19601f820116905080830192505050505050509192919290505050611890565b005b6103e2600480360360408110156102a857600080fd5b81019080803590602001906401000000008111156102c557600080fd5b8201836020820111156102d757600080fd5b803590602001918460018302840111640100000000831117156102f957600080fd5b91908080601f016020809104026020016040519081016040528093929190818152602001838380828437600081840152601f19601f8201169050808301925050505050505091929192908035906020019064010000000081111561035c57600080fd5b82018360208201111561036e57600080fd5b8035906020019184600183028401116401000000008311171561039057600080fd5b91908080601f016020809104026020016040519081016040528093929190818152602001838380828437600081840152601f19601f820116905080830192505050505050509192919290505050611bc8565b005b6107af60048036036101208110156103fb57600080fd5b810190808035906020019064010000000081111561041857600080fd5b82018360208201111561042a57600080fd5b8035906020019184600183028401116401000000008311171561044c57600080fd5b91908080601f016020809104026020016040519081016040528093929190818152602001838380828437600081840152601f19601f820116905080830192505050505050509192919290803590602001906401000000008111156104af57600080fd5b8201836020820111156104c157600080fd5b803590602001918460018302840111640100000000831117156104e357600080fd5b91908080601f016020809104026020016040519081016040528093929190818152602001838380828437600081840152601f19601f8201169050808301925050505050505091929192908035906020019064010000000081111561054657600080fd5b82018360208201111561055857600080fd5b8035906020019184600183028401116401000000008311171561057a57600080fd5b91908080601f016020809104026020016040519081016040528093929190818152602001838380828437600081840152601f19601f820116905080830192505050505050509192919290803590602001906401000000008111156105dd57600080fd5b8201836020820111156105ef57600080fd5b8035906020019184600183028401116401000000008311171561061157600080fd5b91908080601f016020809104026020016040519081016040528093929190818152602001838380828437600081840152601f19601f8201169050808301925050505050505091929192908035906020019092919080359060200190929190803590602001909291908035906020019064010000000081111561069257600080fd5b8201836020820111156106a457600080fd5b803590602001918460018302840111640100000000831117156106c657600080fd5b91908080601f016020809104026020016040519081016040528093929190818152602001838380828437600081840152601f19601f8201169050808301925050505050505091929192908035906020019064010000000081111561072957600080fd5b82018360208201111561073b57600080fd5b8035906020019184600183028401116401000000008311171561075d57600080fd5b91908080601f016020809104026020016040519081016040528093929190818152602001838380828437600081840152601f19601f820116905080830192505050505050509192919290505050611f35565b005b3480156107bd57600080fd5b50610877600480360360208110156107d457600080fd5b81019080803590602001906401000000008111156107f157600080fd5b82018360208201111561080357600080fd5b8035906020019184600183028401116401000000008311171561082557600080fd5b91908080601f016020809104026020016040519081016040528093929190818152602001838380828437600081840152601f19601f820116905080830192505050505050509192919290505050612511565b6040518086815260200185815260200184815260200183815260200180602001828103825283818151815260200191508051906020019080838360005b838110156108cf5780820151818401526020810190506108b4565b50505050905090810190601f1680156108fc5780820380516001836020036101000a031916815260200191505b50965050505050505060405180910390f35b610a686004803603606081101561092457600080fd5b81019080803590602001909291908035906020019064010000000081111561094b57600080fd5b82018360208201111561095d57600080fd5b8035906020019184600183028401116401000000008311171561097f57600080fd5b91908080601f016020809104026020016040519081016040528093929190818152602001838380828437600081840152601f19601f820116905080830192505050505050509192919290803590602001906401000000008111156109e257600080fd5b8201836020820111156109f457600080fd5b80359060200191846001830284011164010000000083111715610a1657600080fd5b91908080601f016020809104026020016040519081016040528093929190818152602001838380828437600081840152601f19601f8201169050808301925050505050505091929192905050506126a7565b005b610b2360048036036020811015610a8057600080fd5b8101908080359060200190640100000000811115610a9d57600080fd5b820183602082011115610aaf57600080fd5b80359060200191846001830284011164010000000083111715610ad157600080fd5b91908080601f016020809104026020016040519081016040528093929190818152602001838380828437600081840152601f19601f820116905080830192505050505050509192919290505050612a1a565b005b610bea60048036036040811015610b3b57600080fd5b8101908080351515906020019092919080359060200190640100000000811115610b6457600080fd5b820183602082011115610b7657600080fd5b80359060200191846001830284011164010000000083111715610b9857600080fd5b91908080601f016020809104026020016040519081016040528093929190818152602001838380828437600081840152601f19601f820116905080830192505050505050509192919290505050612e79565b005b348015610bf857600080fd5b50610c0161309d565b6040518080602001868152602001858152602001848152602001838152602001828103825287818151815260200191508051906020019080838360005b83811015610c59578082015181840152602081019050610c3e565b50505050905090810190601f168015610c865780820380516001836020036101000a031916815260200191505b50965050505050505060405180910390f35b610d5160048036036020811015610cae57600080fd5b8101908080359060200190640100000000811115610ccb57600080fd5b820183602082011115610cdd57600080fd5b80359060200191846001830284011164010000000083111715610cff57600080fd5b91908080601f016020809104026020016040519081016040528093929190818152602001838380828437600081840152601f19601f8201169050808301925050505050505091929192905050506131c7565b005b610e1860048036036040811015610d6957600080fd5b8101908080359060200190640100000000811115610d8657600080fd5b820183602082011115610d9857600080fd5b80359060200191846001830284011164010000000083111715610dba57600080fd5b91908080601f016020809104026020016040519081016040528093929190818152602001838380828437600081840152601f19601f82011690508083019250505050505050919291929080351515906020019092919050505061347d565b005b348015610e2657600080fd5b50610ee060048036036020811015610e3d57600080fd5b8101908080359060200190640100000000811115610e5a57600080fd5b820183602082011115610e6c57600080fd5b80359060200191846001830284011164010000000083111715610e8e57600080fd5b91908080601f016020809104026020016040519081016040528093929190818152602001838380828437600081840152601f19601f820116905080830192505050505050509192919290505050613741565b60405180806020018060200180602001848103845287818151815260200191508051906020019080838360005b83811015610f28578082015181840152602081019050610f0d565b50505050905090810190601f168015610f555780820380516001836020036101000a031916815260200191505b50848103835286818151815260200191508051906020019080838360005b83811015610f8e578082015181840152602081019050610f73565b50505050905090810190601f168015610fbb5780820380516001836020036101000a031916815260200191505b50848103825285818151815260200191508051906020019080838360005b83811015610ff4578082015181840152602081019050610fd9565b50505050905090810190601f1680156110215780820380516001836020036101000a031916815260200191505b50965050505050505060405180910390f35b34801561103f57600080fd5b506110f96004803603602081101561105657600080fd5b810190808035906020019064010000000081111561107357600080fd5b82018360208201111561108557600080fd5b803590602001918460018302840111640100000000831117156110a757600080fd5b91908080601f016020809104026020016040519081016040528093929190818152602001838380828437600081840152601f19601f8201169050808301925050505050505091929192905050506139fa565b6040518086151515158152602001858152602001806020018060200184600381111561112157fe5b60ff168152602001838103835286818151815260200191508051906020019080838360005b83811015611161578082015181840152602081019050611146565b50505050905090810190601f16801561118e5780820380516001836020036101000a031916815260200191505b50838103825285818151815260200191508051906020019080838360005b838110156111c75780820151818401526020810190506111ac565b50505050905090810190601f1680156111f45780820380516001836020036101000a031916815260200191505b5097505050505050505060405180910390f35b34801561121357600080fd5b5061121c613c45565b604051808273ffffffffffffffffffffffffffffffffffffffff1673ffffffffffffffffffffffffffffffffffffffff16815260200191505060405180910390f35b34801561126a57600080fd5b5061134c600480360360a081101561128157600080fd5b810190808035906020019064010000000081111561129e57600080fd5b8201836020820111156112b057600080fd5b803590602001918460018302840111640100000000831117156112d257600080fd5b91908080601f016020809104026020016040519081016040528093929190818152602001838380828437600081840152601f19601f82011690508083019250505050505050919291929080359060200190929190803590602001909291908035906020019092919080359060200190929190505050613cc7565b005b34801561135a57600080fd5b50611363613fe7565b604051808215151515815260200191505060405180910390f35b34801561138957600080fd5b50611443600480360360208110156113a057600080fd5b81019080803590602001906401000000008111156113bd57600080fd5b8201836020820111156113cf57600080fd5b803590602001918460018302840111640100000000831117156113f157600080fd5b91908080601f016020809104026020016040519081016040528093929190818152602001838380828437600081840152601f19601f820116905080830192505050505050509192919290505050613ffa565b60405180806020018060200180602001848103845287818151815260200191508051906020019080838360005b8381101561148b578082015181840152602081019050611470565b50505050905090810190601f1680156114b85780820380516001836020036101000a031916815260200191505b50848103835286818151815260200191508051906020019080838360005b838110156114f15780820151818401526020810190506114d6565b50505050905090810190601f16801561151e5780820380516001836020036101000a031916815260200191505b50848103825285818151815260200191508051906020019080838360005b8381101561155757808201518184015260208101905061153c565b50505050905090810190601f1680156115845780820380516001836020036101000a031916815260200191505b50965050505050505060405180910390f35b611659600480360360408110156115ac57600080fd5b81019080803590602001906401000000008111156115c957600080fd5b8201836020820111156115db57600080fd5b803590602001918460018302840111640100000000831117156115fd57600080fd5b91908080601f016020809104026020016040519081016040528093929190818152602001838380828437600081840152601f19601f820116905080830192505050505050509192919290803590602001909291905050506142b3565b005b34801561166757600080fd5b506117216004803603602081101561167e57600080fd5b810190808035906020019064010000000081111561169b57600080fd5b8201836020820111156116ad57600080fd5b803590602001918460018302840111640100000000831117156116cf57600080fd5b91908080601f016020809104026020016040519081016040528093929190818152602001838380828437600081840152601f19601f8201169050808301925050505050505091929192905050506144e3565b6040518082600781111561173157fe5b60ff16815260200191505060405180910390f35b6117fe6004803603602081101561175b57600080fd5b810190808035906020019064010000000081111561177857600080fd5b82018360208201111561178a57600080fd5b803590602001918460018302840111640100000000831117156117ac57600080fd5b91908080601f016020809104026020016040519081016040528093929190818152602001838380828437600081840152601f19601f8201169050808301925050505050505091929192905050506145c5565b005b34801561180c57600080fd5b506118156147d1565b6040518080602001828103825283818151815260200191508051906020019080838360005b8381101561185557808201518184015260208101905061183a565b50505050905090810190601f1680156118825780820380516001836020036101000a031916815260200191505b509250505060405180910390f35b6000809054906101000a900473ffffffffffffffffffffffffffffffffffffffff1673ffffffffffffffffffffffffffffffffffffffff163373ffffffffffffffffffffffffffffffffffffffff16146118e957600080fd5b81600115156008826040518082805190602001908083835b602083106119245780518252602082019150602081019050602083039250611901565b6001836020036101000a038019825116818451168082178552505050505050905001915050908152602001604051809103902060000160009054906101000a900460ff1615151461197457600080fd5b60038381600381111561198357fe5b6008826040518082805190602001908083835b602083106119b95780518252602082019150602081019050602083039250611996565b6001836020036101000a038019825116818451168082178552505050505050905001915050908152602001604051809103902060040160009054906101000a900460ff166003811115611a0857fe5b14611a1257600080fd5b600585816007811115611a2157fe5b6009826040518082805190602001908083835b60208310611a575780518252602082019150602081019050602083039250611a34565b6001836020036101000a0380198251168184511680821785525050505050509050019150509081526020016040518091039020600b0160009054906101000a900460ff166007811115611aa657fe5b14611ab057600080fd5b856009886040518082805190602001908083835b60208310611ae75780518252602082019150602081019050602083039250611ac4565b6001836020036101000a0380198251168184511680821785525050505050509050019150509081526020016040518091039020600a019080519060200190611b309291906148cc565b5060066009886040518082805190602001908083835b60208310611b695780518252602082019150602081019050602083039250611b46565b6001836020036101000a0380198251168184511680821785525050505050509050019150509081526020016040518091039020600b0160006101000a81548160ff02191690836007811115611bba57fe5b021790555050505050505050565b6000809054906101000a900473ffffffffffffffffffffffffffffffffffffffff1673ffffffffffffffffffffffffffffffffffffffff163373ffffffffffffffffffffffffffffffffffffffff1614611c2157600080fd5b600260009054906101000a900460ff1615611c3b57600080fd5b81600115156008826040518082805190602001908083835b60208310611c765780518252602082019150602081019050602083039250611c53565b6001836020036101000a038019825116818451168082178552505050505050905001915050908152602001604051809103902060000160009054906101000a900460ff16151514611cc657600080fd5b600383816003811115611cd557fe5b6008826040518082805190602001908083835b60208310611d0b5780518252602082019150602081019050602083039250611ce8565b6001836020036101000a038019825116818451168082178552505050505050905001915050908152602001604051809103902060040160009054906101000a900460ff166003811115611d5a57fe5b14611d6457600080fd5b600385816007811115611d7357fe5b6009826040518082805190602001908083835b60208310611da95780518252602082019150602081019050602083039250611d86565b6001836020036101000a0380198251168184511680821785525050505050509050019150509081526020016040518091039020600b0160009054906101000a900460ff166007811115611df857fe5b14611e0257600080fd5b856009886040518082805190602001908083835b60208310611e395780518252602082019150602081019050602083039250611e16565b6001836020036101000a03801982511681845116808217855250505050505090500191505090815260200160405180910390206009019080519060200190611e829291906148cc565b5060056009886040518082805190602001908083835b60208310611ebb5780518252602082019150602081019050602083039250611e98565b6001836020036101000a0380198251168184511680821785525050505050509050019150509081526020016040518091039020600b0160006101000a81548160ff02191690836007811115611f0c57fe5b02179055506001600260006101000a81548160ff02191690831515021790555050505050505050565b6000809054906101000a900473ffffffffffffffffffffffffffffffffffffffff1673ffffffffffffffffffffffffffffffffffffffff163373ffffffffffffffffffffffffffffffffffffffff1614611f8e57600080fd5b88600115156008826040518082805190602001908083835b60208310611fc95780518252602082019150602081019050602083039250611fa6565b6001836020036101000a038019825116818451168082178552505050505050905001915050908152602001604051809103902060000160009054906101000a900460ff1615151461201957600080fd5b60038a81600381111561202857fe5b6008826040518082805190602001908083835b6020831061205e578051825260208201915060208101905060208303925061203b565b6001836020036101000a038019825116818451168082178552505050505050905001915050908152602001604051809103902060040160009054906101000a900460ff1660038111156120ad57fe5b146120b757600080fd5b8b600060078111156120c557fe5b6009826040518082805190602001908083835b602083106120fb57805182526020820191506020810190506020830392506120d8565b6001836020036101000a0380198251168184511680821785525050505050509050019150509081526020016040518091039020600b0160009054906101000a900460ff16600781111561214a57fe5b14806121e557506002600781111561215e57fe5b6009826040518082805190602001908083835b602083106121945780518252602082019150602081019050602083039250612171565b6001836020036101000a0380198251168184511680821785525050505050509050019150509081526020016040518091039020600b0160009054906101000a900460ff1660078111156121e357fe5b145b8061227f5750600460078111156121f857fe5b6009826040518082805190602001908083835b6020831061222e578051825260208201915060208101905060208303925061220b565b6001836020036101000a0380198251168184511680821785525050505050509050019150509081526020016040518091039020600b0160009054906101000a900460ff16600781111561227d57fe5b145b61228857600080fd5b600060088e6040518082805190602001908083835b602083106122c0578051825260208201915060208101905060208303925061229d565b6001836020036101000a03801982511681845116808217855250505050505090500191505090815260200160405180910390206001015490506040518061018001604052808e81526020018d81526020018c81526020018281526020018b81526020018a81526020018981526020018881526020018781526020016040518060200160405280600081525081526020016040518060200160405280600081525081526020016001600781111561237257fe5b81525060098f6040518082805190602001908083835b602083106123ab5780518252602082019150602081019050602083039250612388565b6001836020036101000a038019825116818451168082178552505050505050905001915050908152602001604051809103902060008201518160000190805190602001906123fa92919061494c565b50602082015181600101908051906020019061241792919061494c565b50604082015181600201908051906020019061243492919061494c565b50606082015181600301556080820151816004015560a0820151816005015560c0820151816006015560e082015181600701908051906020019061247992919061494c565b5061010082015181600801908051906020019061249792919061494c565b506101208201518160090190805190602001906124b592919061494c565b5061014082015181600a0190805190602001906124d392919061494c565b5061016082015181600b0160006101000a81548160ff021916908360078111156124f957fe5b02179055509050505050505050505050505050505050565b60008060008060606000809054906101000a900473ffffffffffffffffffffffffffffffffffffffff1673ffffffffffffffffffffffffffffffffffffffff163373ffffffffffffffffffffffffffffffffffffffff161461257257600080fd5b60006009876040518082805190602001908083835b602083106125aa5780518252602082019150602081019050602083039250612587565b6001836020036101000a03801982511681845116808217855250505050505090500191505090815260200160405180910390209050806003015481600401548260050154836006015484600701808054600181600116156101000203166002900480601f01602080910402602001604051908101604052809291908181526020018280546001816001161561010002031660029004801561268c5780601f106126615761010080835404028352916020019161268c565b820191906000526020600020905b81548152906001019060200180831161266f57829003601f168201915b50505050509050955095509550955095505091939590929450565b6000809054906101000a900473ffffffffffffffffffffffffffffffffffffffff1673ffffffffffffffffffffffffffffffffffffffff163373ffffffffffffffffffffffffffffffffffffffff161461270057600080fd5b80600015156008826040518082805190602001908083835b6020831061273b5780518252602082019150602081019050602083039250612718565b6001836020036101000a038019825116818451168082178552505050505050905001915050908152602001604051809103902060000160009054906101000a900460ff161515148061281c57506001600381111561279557fe5b6008826040518082805190602001908083835b602083106127cb57805182526020820191506020810190506020830392506127a8565b6001836020036101000a038019825116818451168082178552505050505050905001915050908152602001604051809103902060040160009054906101000a900460ff16600381111561281a57fe5b145b806128b657506002600381111561282f57fe5b6008826040518082805190602001908083835b602083106128655780518252602082019150602081019050602083039250612842565b6001836020036101000a038019825116818451168082178552505050505050905001915050908152602001604051809103902060040160009054906101000a900460ff1660038111156128b457fe5b145b6128bf57600080fd5b600260009054906101000a900460ff16156128d957600080fd5b6128e16149cc565b6040518060a001604052806001151581526020018681526020018581526020018481526020016000600381111561291457fe5b8152509050806008846040518082805190602001908083835b60208310612950578051825260208201915060208101905060208303925061292d565b6001836020036101000a038019825116818451168082178552505050505050905001915050908152602001604051809103902060008201518160000160006101000a81548160ff0219169083151502179055506020820151816001015560408201518160020190805190602001906129c992919061494c565b5060608201518160030190805190602001906129e692919061494c565b5060808201518160040160006101000a81548160ff02191690836003811115612a0b57fe5b02179055509050505050505050565b6000809054906101000a900473ffffffffffffffffffffffffffffffffffffffff1673ffffffffffffffffffffffffffffffffffffffff163373ffffffffffffffffffffffffffffffffffffffff1614612a7357600080fd5b80600115156008826040518082805190602001908083835b60208310612aae5780518252602082019150602081019050602083039250612a8b565b6001836020036101000a038019825116818451168082178552505050505050905001915050908152602001604051809103902060000160009054906101000a900460ff16151514612afe57600080fd5b8160006008826040518082805190602001908083835b60208310612b375780518252602082019150602081019050602083039250612b14565b6001836020036101000a038019825116818451168082178552505050505050905001915050908152602001604051809103902060040160009054906101000a900460ff16905060006003811115612b8a57fe5b816003811115612b9657fe5b1480612bb75750600380811115612ba957fe5b816003811115612bb557fe5b145b612bc057600080fd5b60006009836040518082805190602001908083835b60208310612bf85780518252602082019150602081019050602083039250612bd5565b6001836020036101000a0380198251168184511680821785525050505050509050019150509081526020016040518091039020600b0160009054906101000a900460ff16905060046007811115612c4b57fe5b816007811115612c5757fe5b1480612c79575060066007811115612c6b57fe5b816007811115612c7757fe5b145b80612c995750600780811115612c8b57fe5b816007811115612c9757fe5b145b15612ca357600080fd5b60026008866040518082805190602001908083835b60208310612cdb5780518252602082019150602081019050602083039250612cb8565b6001836020036101000a038019825116818451168082178552505050505050905001915050908152602001604051809103902060040160006101000a81548160ff02191690836003811115612d2c57fe5b021790555060006007811115612d3e57fe5b6009866040518082805190602001908083835b60208310612d745780518252602082019150602081019050602083039250612d51565b6001836020036101000a0380198251168184511680821785525050505050509050019150509081526020016040518091039020600b0160009054906101000a900460ff166007811115612dc357fe5b14612e575760046009866040518082805190602001908083835b60208310612e005780518252602082019150602081019050602083039250612ddd565b6001836020036101000a0380198251168184511680821785525050505050509050019150509081526020016040518091039020600b0160006101000a81548160ff02191690836007811115612e5157fe5b02179055505b6000600260006101000a81548160ff0219169083151502179055505050505050565b6000809054906101000a900473ffffffffffffffffffffffffffffffffffffffff1673ffffffffffffffffffffffffffffffffffffffff163373ffffffffffffffffffffffffffffffffffffffff1614612ed257600080fd5b80600115156008826040518082805190602001908083835b60208310612f0d5780518252602082019150602081019050602083039250612eea565b6001836020036101000a038019825116818451168082178552505050505050905001915050908152602001604051809103902060000160009054906101000a900460ff16151514612f5d57600080fd5b600082816003811115612f6c57fe5b6008826040518082805190602001908083835b60208310612fa25780518252602082019150602081019050602083039250612f7f565b6001836020036101000a038019825116818451168082178552505050505050905001915050908152602001604051809103902060040160009054906101000a900460ff166003811115612ff157fe5b14612ffb57600080fd5b8461300757600161300a565b60035b6008856040518082805190602001908083835b60208310613040578051825260208201915060208101905060208303925061301d565b6001836020036101000a038019825116818451168082178552505050505050905001915050908152602001604051809103902060040160006101000a81548160ff0219169083600381111561309157fe5b02179055505050505050565b60606000806000806000809054906101000a900473ffffffffffffffffffffffffffffffffffffffff1673ffffffffffffffffffffffffffffffffffffffff163373ffffffffffffffffffffffffffffffffffffffff16146130fe57600080fd5b60036000016003600101546003600201546003800154600360040154848054600181600116156101000203166002900480601f0160208091040260200160405190810160405280929190818152602001828054600181600116156101000203166002900480156131af5780601f10613184576101008083540402835291602001916131af565b820191906000526020600020905b81548152906001019060200180831161319257829003601f168201915b50505050509450945094509450945094509091929394565b6000809054906101000a900473ffffffffffffffffffffffffffffffffffffffff1673ffffffffffffffffffffffffffffffffffffffff163373ffffffffffffffffffffffffffffffffffffffff161461322057600080fd5b80600115156008826040518082805190602001908083835b6020831061325b5780518252602082019150602081019050602083039250613238565b6001836020036101000a038019825116818451168082178552505050505050905001915050908152602001604051809103902060000160009054906101000a900460ff161515146132ab57600080fd5b6003828160038111156132ba57fe5b6008826040518082805190602001908083835b602083106132f057805182526020820191506020810190506020830392506132cd565b6001836020036101000a038019825116818451168082178552505050505050905001915050908152602001604051809103902060040160009054906101000a900460ff16600381111561333f57fe5b1461334957600080fd5b60068481600781111561335857fe5b6009826040518082805190602001908083835b6020831061338e578051825260208201915060208101905060208303925061336b565b6001836020036101000a0380198251168184511680821785525050505050509050019150509081526020016040518091039020600b0160009054906101000a900460ff1660078111156133dd57fe5b146133e757600080fd5b60076009876040518082805190602001908083835b6020831061341f57805182526020820191506020810190506020830392506133fc565b6001836020036101000a0380198251168184511680821785525050505050509050019150509081526020016040518091039020600b0160006101000a81548160ff0219169083600781111561347057fe5b0217905550505050505050565b6000809054906101000a900473ffffffffffffffffffffffffffffffffffffffff1673ffffffffffffffffffffffffffffffffffffffff163373ffffffffffffffffffffffffffffffffffffffff16146134d657600080fd5b81600115156008826040518082805190602001908083835b6020831061351157805182526020820191506020810190506020830392506134ee565b6001836020036101000a038019825116818451168082178552505050505050905001915050908152602001604051809103902060000160009054906101000a900460ff1615151461356157600080fd5b60038381600381111561357057fe5b6008826040518082805190602001908083835b602083106135a65780518252602082019150602081019050602083039250613583565b6001836020036101000a038019825116818451168082178552505050505050905001915050908152602001604051809103902060040160009054906101000a900460ff1660038111156135f557fe5b146135ff57600080fd5b60018581600781111561360e57fe5b6009826040518082805190602001908083835b602083106136445780518252602082019150602081019050602083039250613621565b6001836020036101000a0380198251168184511680821785525050505050509050019150509081526020016040518091039020600b0160009054906101000a900460ff16600781111561369357fe5b1461369d57600080fd5b856136a95760026136ac565b60035b6009886040518082805190602001908083835b602083106136e257805182526020820191506020810190506020830392506136bf565b6001836020036101000a0380198251168184511680821785525050505050509050019150509081526020016040518091039020600b0160006101000a81548160ff0219169083600781111561373357fe5b021790555050505050505050565b60608060606000809054906101000a900473ffffffffffffffffffffffffffffffffffffffff1673ffffffffffffffffffffffffffffffffffffffff163373ffffffffffffffffffffffffffffffffffffffff161461379f57600080fd5b60006009856040518082805190602001908083835b602083106137d757805182526020820191506020810190506020830392506137b4565b6001836020036101000a03801982511681845116808217855250505050505090500191505090815260200160405180910390209050806000018160010182600201828054600181600116156101000203166002900480601f0160208091040260200160405190810160405280929190818152602001828054600181600116156101000203166002900480156138ad5780601f10613882576101008083540402835291602001916138ad565b820191906000526020600020905b81548152906001019060200180831161389057829003601f168201915b50505050509250818054600181600116156101000203166002900480601f0160208091040260200160405190810160405280929190818152602001828054600181600116156101000203166002900480156139495780601f1061391e57610100808354040283529160200191613949565b820191906000526020600020905b81548152906001019060200180831161392c57829003601f168201915b50505050509150808054600181600116156101000203166002900480601f0160208091040260200160405190810160405280929190818152602001828054600181600116156101000203166002900480156139e55780601f106139ba576101008083540402835291602001916139e5565b820191906000526020600020905b8154815290600101906020018083116139c857829003601f168201915b50505050509050935093509350509193909250565b60008060608060008060009054906101000a900473ffffffffffffffffffffffffffffffffffffffff1673ffffffffffffffffffffffffffffffffffffffff163373ffffffffffffffffffffffffffffffffffffffff1614613a5b57600080fd5b60006008876040518082805190602001908083835b60208310613a935780518252602082019150602081019050602083039250613a70565b6001836020036101000a038019825116818451168082178552505050505050905001915050908152602001604051809103902090508060000160009054906101000a900460ff16816001015482600201836003018460040160009054906101000a900460ff16828054600181600116156101000203166002900480601f016020809104026020016040519081016040528092919081815260200182805460018160011615610100020316600290048015613b8e5780601f10613b6357610100808354040283529160200191613b8e565b820191906000526020600020905b815481529060010190602001808311613b7157829003601f168201915b50505050509250818054600181600116156101000203166002900480601f016020809104026020016040519081016040528092919081815260200182805460018160011615610100020316600290048015613c2a5780601f10613bff57610100808354040283529160200191613c2a565b820191906000526020600020905b815481529060010190602001808311613c0d57829003601f168201915b50505050509150955095509550955095505091939590929450565b60008060009054906101000a900473ffffffffffffffffffffffffffffffffffffffff1673ffffffffffffffffffffffffffffffffffffffff163373ffffffffffffffffffffffffffffffffffffffff1614613ca057600080fd5b6000809054906101000a900473ffffffffffffffffffffffffffffffffffffffff16905090565b6000809054906101000a900473ffffffffffffffffffffffffffffffffffffffff1673ffffffffffffffffffffffffffffffffffffffff163373ffffffffffffffffffffffffffffffffffffffff1614613d2057600080fd5b6000855111613d97576040517f08c379a000000000000000000000000000000000000000000000000000000000815260040180806020018281038252601b8152602001807f4d75737420626520612076616c696420737472656574204e616d65000000000081525060200191505060405180910390fd5b60008413613e0d576040517f08c379a000000000000000000000000000000000000000000000000000000000815260040180806020018281038252600f8152602001807f4d75737420626520612076616c7565000000000000000000000000000000000081525060200191505060405180910390fd5b60008313613e83576040517f08c379a00000000000000000000000000000000000000000000000000000000081526004018080602001828103825260178152602001807f4d75737420626520612076616c696420666c6f72654e7200000000000000000081525060200191505060405180910390fd5b60008213613ef9576040517f08c379a00000000000000000000000000000000000000000000000000000000081526004018080602001828103825260178152602001807f4d75737420626520612076616c696420686f7573654e7200000000000000000081525060200191505060405180910390fd5b60008113613f6f576040517f08c379a000000000000000000000000000000000000000000000000000000000815260040180806020018281038252601a8152602001807f4d75737420626520612076616c696420706f7374616c436f646500000000000081525060200191505060405180910390fd5b6040518060a001604052808681526020018581526020018481526020018381526020018281525060036000820151816000019080519060200190613fb492919061494c565b50602082015181600101556040820151816002015560608201518160030155608082015181600401559050505050505050565b600260009054906101000a900460ff1681565b60608060606000809054906101000a900473ffffffffffffffffffffffffffffffffffffffff1673ffffffffffffffffffffffffffffffffffffffff163373ffffffffffffffffffffffffffffffffffffffff161461405857600080fd5b60006009856040518082805190602001908083835b60208310614090578051825260208201915060208101905060208303925061406d565b6001836020036101000a03801982511681845116808217855250505050505090500191505090815260200160405180910390209050806008018160090182600a01828054600181600116156101000203166002900480601f0160208091040260200160405190810160405280929190818152602001828054600181600116156101000203166002900480156141665780601f1061413b57610100808354040283529160200191614166565b820191906000526020600020905b81548152906001019060200180831161414957829003601f168201915b50505050509250818054600181600116156101000203166002900480601f0160208091040260200160405190810160405280929190818152602001828054600181600116156101000203166002900480156142025780601f106141d757610100808354040283529160200191614202565b820191906000526020600020905b8154815290600101906020018083116141e557829003601f168201915b50505050509150808054600181600116156101000203166002900480601f01602080910402602001604051908101604052809291908181526020018280546001816001161561010002031660029004801561429e5780601f106142735761010080835404028352916020019161429e565b820191906000526020600020905b81548152906001019060200180831161428157829003601f168201915b50505050509050935093509350509193909250565b6000809054906101000a900473ffffffffffffffffffffffffffffffffffffffff1673ffffffffffffffffffffffffffffffffffffffff163373ffffffffffffffffffffffffffffffffffffffff161461430c57600080fd5b81600115156008826040518082805190602001908083835b602083106143475780518252602082019150602081019050602083039250614324565b6001836020036101000a038019825116818451168082178552505050505050905001915050908152602001604051809103902060000160009054906101000a900460ff1615151461439757600080fd5b6003838160038111156143a657fe5b6008826040518082805190602001908083835b602083106143dc57805182526020820191506020810190506020830392506143b9565b6001836020036101000a038019825116818451168082178552505050505050905001915050908152602001604051809103902060040160009054906101000a900460ff16600381111561442b57fe5b1461443557600080fd5b60078581600781111561444457fe5b6009826040518082805190602001908083835b6020831061447a5780518252602082019150602081019050602083039250614457565b6001836020036101000a0380198251168184511680821785525050505050509050019150509081526020016040518091039020600b0160009054906101000a900460ff1660078111156144c957fe5b146144d357600080fd5b85600a8190555050505050505050565b60008060009054906101000a900473ffffffffffffffffffffffffffffffffffffffff1673ffffffffffffffffffffffffffffffffffffffff163373ffffffffffffffffffffffffffffffffffffffff161461453e57600080fd5b60006009836040518082805190602001908083835b602083106145765780518252602082019150602081019050602083039250614553565b6001836020036101000a0380198251168184511680821785525050505050509050019150509081526020016040518091039020905080600b0160009054906101000a900460ff16915050919050565b6000809054906101000a900473ffffffffffffffffffffffffffffffffffffffff1673ffffffffffffffffffffffffffffffffffffffff163373ffffffffffffffffffffffffffffffffffffffff161461461e57600080fd5b8060006009826040518082805190602001908083835b602083106146575780518252602082019150602081019050602083039250614634565b6001836020036101000a0380198251168184511680821785525050505050509050019150509081526020016040518091039020600b0160009054906101000a900460ff169050600460078111156146aa57fe5b8160078111156146b657fe5b14806146d85750600660078111156146ca57fe5b8160078111156146d657fe5b145b806146f857506007808111156146ea57fe5b8160078111156146f657fe5b145b8061471957506002600781111561470b57fe5b81600781111561471757fe5b145b1561472357600080fd5b60046009846040518082805190602001908083835b6020831061475b5780518252602082019150602081019050602083039250614738565b6001836020036101000a0380198251168184511680821785525050505050509050019150509081526020016040518091039020600b0160006101000a81548160ff021916908360078111156147ac57fe5b02179055506000600260006101000a81548160ff021916908315150217905550505050565b60606000809054906101000a900473ffffffffffffffffffffffffffffffffffffffff1673ffffffffffffffffffffffffffffffffffffffff163373ffffffffffffffffffffffffffffffffffffffff161461482c57600080fd5b60018054600181600116156101000203166002900480601f0160208091040260200160405190810160405280929190818152602001828054600181600116156101000203166002900480156148c25780601f10614897576101008083540402835291602001916148c2565b820191906000526020600020905b8154815290600101906020018083116148a557829003601f168201915b5050505050905090565b828054600181600116156101000203166002900490600052602060002090601f016020900481019282601f1061490d57805160ff191683800117855561493b565b8280016001018555821561493b579182015b8281111561493a57825182559160200191906001019061491f565b5b5090506149489190614a08565b5090565b828054600181600116156101000203166002900490600052602060002090601f016020900481019282601f1061498d57805160ff19168380011785556149bb565b828001600101855582156149bb579182015b828111156149ba57825182559160200191906001019061499f565b5b5090506149c89190614a08565b5090565b6040518060a0016040528060001515815260200160008152602001606081526020016060815260200160006003811115614a0257fe5b81525090565b614a2a91905b80821115614a26576000816000905550600101614a0e565b5090565b9056fea265627a7a72315820f0ca06fdd3c6e41a94937ad5d32af063e963194959c8f0227747469c57dc0fd864736f6c63430005110032",
  "source": "// SPDX-License-Identifier: SEE LICENSE IN LICENSE\r\npragma solidity 0.5.17;\r\n\r\nimport \"./RentToContract.sol\";\r\n\r\n\r\ncontract EnlistmentToContract {\r\n\r\n    // MAIN VARIABLES THE CONTRACT WILL BE WORKING WITH\r\n    \r\n    address payable owner;\r\n    string landlord;\r\n    bool public locked = false;\r\n    Enlistment enlistment;\r\n    // \r\n    mapping(string => Offer) tenantOfferMap;\r\n    mapping(string => AgreementDraft) tenantAgreementMap;\r\n    // \r\n    uint private rentAmount;\r\n    address private rentToContractAddress;\r\n    RentToContract private rentToContract;\r\n    \r\n\r\n    constructor(string memory landlordEmail, string memory streetName, int floorNr, int apartmentNr, int houseNr, int postalCode) public\r\n    {   // CREATE A NEW ENLISTMENT STRUCT OBJECT FROM THE PASSED IN ARGUMENTS \r\n        enlistment = Enlistment(streetName, floorNr, apartmentNr, houseNr, postalCode);\r\n        landlord = landlordEmail;\r\n        owner = (msg.sender);\r\n        \r\n    }\r\n\r\n    function addEnlistmet(  string memory streetName,  int floorNr, int apartmentNr, int houseNr, int postalCode) public ownerOnly {\r\n        \r\n        require(bytes(streetName).length > 0, 'Must be a valid street Name');\r\n        \r\n        require(floorNr > 0, 'Must be a value');\r\n        \r\n        require(apartmentNr > 0, 'Must be a valid floreNr');\r\n        \r\n        require(houseNr > 0, 'Must be a valid houseNr');\r\n        \r\n        require(postalCode > 0, 'Must be a valid postalCode');\r\n        \r\n        enlistment = Enlistment(streetName, floorNr, apartmentNr, houseNr, postalCode);\r\n    }\r\n\r\n    // GETTER FUNCTIONS \r\n \r\n    function getOwner() public view ownerOnly() returns (address) {\r\n        return owner;\r\n    }\r\n\r\n    function getLandlord() public view ownerOnly() returns (string memory) {\r\n        return landlord;\r\n    }\r\n\r\n    function getEnlistment() public view ownerOnly() returns (string memory, int, int, int, int) {\r\n        return (enlistment.streetName, enlistment.floorNr, enlistment.apartmentNr, enlistment.houseNr, enlistment.postalCode);\r\n    }\r\n\r\n    // MAIN ENUMERATIONS THE CONTRACT WILL BE WORKING WITH\r\n\r\n    enum OfferStatus { // CURRENT STATE OF ANY OFFER SUBMITTED FOR A PROPERTY\r\n        PENDING,\r\n        REJECTED,\r\n        CANCELLED,\r\n        ACCEPTED\r\n    }\r\n\r\n    enum AgreementStatus { // CURRENT STATE OF ANY AGREEMENT REGARDING AN OFFER\r\n        UNINITIALIZED, // internal\r\n        PENDING,\r\n        REJECTED,\r\n        CONFIRMED,\r\n        CANCELLED,\r\n        LANDLORD_SIGNED,\r\n        TENANT_SIGNED,\r\n        COMPLETED\r\n    }\r\n\r\n    // MAIN STRUCTS (Enlistment, Offer, AgreementDraft) THE CONTRACT WILL BE WORKING WITH\r\n    // NOTE: These could've been made separate Smart Contracts instead (would probably work better that way)\r\n\r\n    struct Enlistment {\r\n        string streetName;\r\n        int floorNr;\r\n        int apartmentNr;\r\n        int houseNr;\r\n        int postalCode;\r\n    }\r\n\r\n    struct Offer {\r\n        bool initialized;\r\n        int amount;\r\n        string tenantName;\r\n        string tenantEmail;\r\n        OfferStatus status;\r\n    }\r\n\r\n    struct AgreementDraft {\r\n        string landlordName; // for simplicity, there is only one landlord\r\n        string tenantName; // for simplicity, there is only one tenant and occupants are omitted\r\n        string tenantEmail;\r\n        int amount;\r\n        uint leaseStart;\r\n        uint handoverDate;\r\n        uint leasePeriod;\r\n        string otherTerms;\r\n        string agreementHash;\r\n        string landlordSignedHash;\r\n        string tenantSignedHash;\r\n        AgreementStatus status;\r\n    }\r\n\r\n    // MAIN MODIFIERS THE CONTRACT WILL BE WORKING WITH\r\n    \r\n    modifier Owner {\r\n    require(msg.sender == owner);\r\n    _;\r\n    } \r\n    modifier noActiveEnlistmet(string memory tenantEmail){\r\n        require(tenantOfferMap[tenantEmail].initialized == true);\r\n        _;\r\n    }\r\n\r\n    modifier noActiveOffer(string memory tenantEmail) { // CHECKS IF THE TENANT (tenantEmail) INDEED HAS NO ACTIVE OFFER\r\n        require(tenantOfferMap[tenantEmail].initialized == false || tenantOfferMap[tenantEmail].status == OfferStatus.REJECTED || tenantOfferMap[tenantEmail].status == OfferStatus.CANCELLED);\r\n        _;\r\n    }\r\n\r\n    modifier offerExists(string memory tenantEmail) { // CHECKS IF THE TENANT (tenantEmail) HAS INDEED MADE AN OFFER\r\n        require(tenantOfferMap[tenantEmail].initialized == true);\r\n        _;\r\n    }\r\n\r\n    modifier offerInStatus(OfferStatus status, string memory tenantEmail) { // CONFIRMS STATUS OF THE OFFER IN QUESTION\r\n        require(tenantOfferMap[tenantEmail].status == status);\r\n        _;\r\n    }\r\n\r\n    modifier offerCancellable(string memory tenantEmail) { // CONFIRMS IF AN OFFER ISN'T ALREADY A DONE DEAL\r\n        OfferStatus offerStatus = tenantOfferMap[tenantEmail].status;\r\n        require(offerStatus == OfferStatus.PENDING || offerStatus == OfferStatus.ACCEPTED);\r\n        AgreementStatus agreementStatus = tenantAgreementMap[tenantEmail].status;\r\n        require(!(agreementStatus == AgreementStatus.CANCELLED || agreementStatus == AgreementStatus.TENANT_SIGNED || agreementStatus == AgreementStatus.COMPLETED));\r\n        _;\r\n    }\r\n\r\n    modifier agreementCanBeSubmitted(string memory tenantEmail) { // CONFIRMS IF THERE'S NO ACTIVE AGREEMENT AWAITING SIGNATURE CONSUMATION\r\n        require(tenantAgreementMap[tenantEmail].status == AgreementStatus.UNINITIALIZED || tenantAgreementMap[tenantEmail].status == AgreementStatus.REJECTED || tenantAgreementMap[tenantEmail].status == AgreementStatus.CANCELLED);\r\n        _;\r\n    }\r\n\r\n    modifier agreementInStatus(AgreementStatus status, string memory tenantEmail) {\r\n        require(tenantAgreementMap[tenantEmail].status == status); // VALIDATES THE AGREEMENT'S STATUS\r\n        _;\r\n    }\r\n\r\n    modifier agreementCancellable(string memory tenantEmail) { // CONFIRMS IF AN AGREEMENT ISN'T ALREADY A DONE DEAL (OR HASN'T BEEN REJECTED)\r\n        AgreementStatus agreementStatus = tenantAgreementMap[tenantEmail].status;\r\n        require(!(agreementStatus == AgreementStatus.CANCELLED || agreementStatus == AgreementStatus.TENANT_SIGNED || agreementStatus == AgreementStatus.COMPLETED || agreementStatus == AgreementStatus.REJECTED));\r\n        _;\r\n    }\r\n\r\n    modifier notLocked() {\r\n        require(!locked);\r\n        _;\r\n    }\r\n\r\n    modifier ownerOnly() {\r\n        require(msg.sender == owner);\r\n        _;\r\n    }\r\n\r\n    // what if the offer is in status PENDING and the tenant wants to send a new one?\r\n    // in a case like that, find a way to handle multiple pending offers simultaneously\r\n\r\n    function sendOffer(int amount, string memory tenantName, string memory tenantEmail) public payable\r\n        ownerOnly()\r\n        noActiveOffer(tenantEmail) // coz this modifier ensures that there's no active offer ..\r\n        notLocked()\r\n    {\r\n        Offer memory offer = Offer({\r\n            initialized: true,\r\n            amount: amount,\r\n            tenantName: tenantName,\r\n            tenantEmail: tenantEmail,\r\n            status: OfferStatus.PENDING\r\n        });\r\n        tenantOfferMap[tenantEmail] = offer;\r\n    }\r\n\r\n    // cancel an offer that has been submitted (and is cancellable)\r\n\r\n    function cancelOffer(string memory tenantEmail) public payable\r\n        ownerOnly()\r\n        offerExists(tenantEmail)\r\n        offerCancellable(tenantEmail)\r\n    {\r\n        tenantOfferMap[tenantEmail].status = OfferStatus.CANCELLED;\r\n        if (tenantAgreementMap[tenantEmail].status != AgreementStatus.UNINITIALIZED) {\r\n            tenantAgreementMap[tenantEmail].status = AgreementStatus.CANCELLED;\r\n        }\r\n        locked = false;\r\n    }\r\n\r\n    // get an offer that has been submitted (and is hasn't been cancelled yet)\r\n    \r\n    function getOffer(string memory tenantEmail) public view ownerOnly() returns (bool, int, string memory, string memory, OfferStatus) {\r\n        Offer storage o = tenantOfferMap[tenantEmail];\r\n        return (o.initialized, o.amount, o.tenantName, o.tenantEmail, o.status);\r\n    }\r\n\r\n    // review (accept / reject) an offer that has been submitted (and is pending)\r\n    \r\n    function reviewOffer(bool result, string memory tenantEmail) public payable\r\n        ownerOnly()\r\n        offerExists(tenantEmail)\r\n        offerInStatus(OfferStatus.PENDING, tenantEmail)\r\n    {\r\n        tenantOfferMap[tenantEmail].status = result ? OfferStatus.ACCEPTED : OfferStatus.REJECTED;\r\n    }\r\n\r\n    // submit the draft of an agreement (only if: the offer still exists & has been accepted, and an agreement can be submitted)\r\n    // a new draft agreement can submitted only if there isn't already 1 in place that has been signed, or awaiting confirmation\r\n    \r\n    function submitDraft(string memory tenantEmail, string memory landlordName, string memory agreementTenantName, string memory agreementTenantEmail, uint leaseStart, uint handoverDate, uint leasePeriod, string memory otherTerms, string memory hashStr) public payable\r\n        ownerOnly()\r\n        offerExists(tenantEmail)\r\n        offerInStatus(OfferStatus.ACCEPTED, tenantEmail)\r\n        agreementCanBeSubmitted(tenantEmail)\r\n    {\r\n        int256 amount = tenantOfferMap[tenantEmail].amount;\r\n        tenantAgreementMap[tenantEmail] = AgreementDraft(landlordName, agreementTenantName, agreementTenantEmail, amount, leaseStart, handoverDate, leasePeriod, otherTerms, hashStr, \"\", \"\", AgreementStatus.PENDING);\r\n    }\r\n\r\n    // getAgreement functions:\r\n    // can only return tuple of max 7 elements, otherwise throws \"Stack too deep\" \r\n    // solution: splitted into multiple functions - getAgreement + (Participants/Details/Hashes/Status)\r\n\r\n    function getAgreementParticipants(string memory tenantEmail) public view ownerOnly() returns (string memory, string memory, string memory) {\r\n        AgreementDraft storage a = tenantAgreementMap[tenantEmail];\r\n        return (a.landlordName, a.tenantName, a.tenantEmail);\r\n    }\r\n\r\n    function getAgreementDetails(string memory tenantEmail) public view ownerOnly() returns (int, uint, uint, uint, string memory) {\r\n        AgreementDraft storage a = tenantAgreementMap[tenantEmail];\r\n        return (a.amount, a.leaseStart, a.handoverDate, a.leasePeriod, a.otherTerms);\r\n    }\r\n\r\n    function getAgreementHashes(string memory tenantEmail) public view ownerOnly() returns (string memory, string memory, string memory) {\r\n        AgreementDraft storage a = tenantAgreementMap[tenantEmail];\r\n        return (a.agreementHash, a.landlordSignedHash, a.tenantSignedHash);\r\n    }\r\n\r\n    function getAgreementStatus(string memory tenantEmail) public view ownerOnly() returns (AgreementStatus) {\r\n        AgreementDraft storage a = tenantAgreementMap[tenantEmail];\r\n        return (a.status);\r\n    }\r\n\r\n    // review an agreement draft (only if: the offer still exists & has been accepted, and an agreement exists & is pending)\r\n    \r\n    function reviewAgreement(string memory tenantEmail, bool result) public payable\r\n        ownerOnly()\r\n        offerExists(tenantEmail)\r\n        offerInStatus(OfferStatus.ACCEPTED, tenantEmail)\r\n        agreementInStatus(AgreementStatus.PENDING, tenantEmail)\r\n    {\r\n        tenantAgreementMap[tenantEmail].status = result ? AgreementStatus.CONFIRMED : AgreementStatus.REJECTED;\r\n    }\r\n\r\n    // signing of an agreement draft by the landlord (only if: the offer still exists & has been accepted, and an agreement exists & is confirmed)\r\n    \r\n    function landlordSignAgreement(string memory tenantEmail, string memory landlordSignedHash) public payable\r\n        ownerOnly()\r\n        notLocked()\r\n        offerExists(tenantEmail)\r\n        offerInStatus(OfferStatus.ACCEPTED, tenantEmail)\r\n        agreementInStatus(AgreementStatus.CONFIRMED, tenantEmail)\r\n    {\r\n        tenantAgreementMap[tenantEmail].landlordSignedHash = landlordSignedHash;\r\n        tenantAgreementMap[tenantEmail].status = AgreementStatus.LANDLORD_SIGNED;\r\n        locked = true;\r\n    }\r\n\r\n    // signing of an agreement draft by the tenant (only if: the offer still exists & has been accepted, and an agreement exists & the landlord has signed already)\r\n\r\n    function tenantSignAgreement(string memory tenantEmail, string memory tenantSignedHash) public payable\r\n        ownerOnly()\r\n        offerExists(tenantEmail)\r\n        offerInStatus(OfferStatus.ACCEPTED, tenantEmail)\r\n        agreementInStatus(AgreementStatus.LANDLORD_SIGNED, tenantEmail)\r\n    {\r\n        tenantAgreementMap[tenantEmail].tenantSignedHash = tenantSignedHash;\r\n        tenantAgreementMap[tenantEmail].status = AgreementStatus.TENANT_SIGNED;\r\n    }\r\n\r\n    // cancelling of an agreement draft by the tenant (only if the agreement is cancellable ie. it exists, but the landlord hasn't already signed it)\r\n\r\n    function cancelAgreement(string memory tenantEmail) public payable\r\n        ownerOnly()\r\n        agreementCancellable(tenantEmail)\r\n    {\r\n        tenantAgreementMap[tenantEmail].status = AgreementStatus.CANCELLED;\r\n        locked = false;\r\n    }\r\n\r\n    // receiving the 1st month rent from the tenant (only if the agreement has been signed by both parties ie. the landlord and the tenant)\r\n\r\n    function receiveFirstMonthRent(string memory tenantEmail) public payable\r\n        ownerOnly()\r\n        offerExists(tenantEmail)\r\n        offerInStatus(OfferStatus.ACCEPTED, tenantEmail)\r\n        agreementInStatus(AgreementStatus.TENANT_SIGNED, tenantEmail)\r\n    {\r\n        tenantAgreementMap[tenantEmail].status = AgreementStatus.COMPLETED;\r\n        \r\n        // EITHER TRY THIS TO INSTANTIATE THE RentToContract.sol SMART CONTRACT ..\r\n        // rentToContractAddress = new RentToContract(tenantEmail, tenantAgreementMap[tenantEmail].tenantName, \r\n        // tenantAgreementMap[tenantEmail].landlordName, 100, 1000000000000); \r\n        // rentToContract = RentToContract(rentToContractAddress);\r\n        // \r\n        // OR, JUST TRY THIS INSTEAD .. ..\r\n        // rentToContract = new RentToContract(tenantEmail, tenantAgreementMap[tenantEmail].tenantName, \r\n        // tenantAgreementMap[tenantEmail].landlordName, 100, 1000000000000); \r\n\r\n        // EVENTUALLY, THE RENT AMOUNT & THE CONTRACT'S DURATION MUST BOTH BE MADE DYNAMIC \r\n    }\r\n    \r\n    function receiveMonthlyRent(string memory tenantEmail, uint amount) public payable\r\n        ownerOnly()\r\n        offerExists(tenantEmail)\r\n        offerInStatus(OfferStatus.ACCEPTED, tenantEmail)\r\n        agreementInStatus(AgreementStatus.COMPLETED, tenantEmail)\r\n    {\r\n        rentAmount = amount; // WORK WITH RENT amount\r\n        // rentToContract.receiveMonthlyRent(tenantEmail, amount);\r\n    }\r\n\r\n}\r\n",
  "sourcePath": "C:/Users/afegb/Downloads/enlist/BlocProperties-Enlistment-Project/contracts/Enlistment.sol",
  "compiler": {
    "name": "solc",
    "version": "0.5.17+commit.d19bba13.Emscripten.clang"
  },
  "schemaVersion": "3.0.0-beta.2",
  "updatedAt": "2022-12-04T16:53:01.184Z",
  "devdoc": {
    "methods": {}
  },
  "userdoc": {
    "methods": {}
  }
}