{
  "contractName": "RentToContract",
  "abi": [
    {
      "inputs": [
        {
          "internalType": "string",
          "name": "tenantEmail",
          "type": "string"
        },
        {
          "internalType": "string",
          "name": "tenantName",
          "type": "string"
        },
        {
          "internalType": "string",
          "name": "landlordName",
          "type": "string"
        },
        {
          "internalType": "uint256",
          "name": "amount",
          "type": "uint256"
        },
        {
          "internalType": "uint256",
          "name": "duration",
          "type": "uint256"
        }
      ],
      "payable": false,
      "stateMutability": "nonpayable",
      "type": "constructor"
    },
    {
      "anonymous": false,
      "inputs": [
        {
          "indexed": false,
          "internalType": "string",
          "name": "tenantEmail",
          "type": "string"
        },
        {
          "indexed": false,
          "internalType": "uint256",
          "name": "paymentDate",
          "type": "uint256"
        },
        {
          "indexed": false,
          "internalType": "uint256",
          "name": "amount",
          "type": "uint256"
        }
      ],
      "name": "RentPaymentMade",
      "type": "event"
    },
    {
      "payable": true,
      "stateMutability": "payable",
      "type": "fallback"
    },
    {
      "constant": true,
      "inputs": [],
      "name": "circuitBreakerStopped",
      "outputs": [
        {
          "internalType": "bool",
          "name": "",
          "type": "bool"
        }
      ],
      "payable": false,
      "stateMutability": "view",
      "type": "function"
    },
    {
      "constant": true,
      "inputs": [],
      "name": "getOwner",
      "outputs": [
        {
          "internalType": "address",
          "name": "",
          "type": "address"
        }
      ],
      "payable": false,
      "stateMutability": "view",
      "type": "function"
    },
    {
      "constant": true,
      "inputs": [],
      "name": "getLandlord",
      "outputs": [
        {
          "internalType": "string",
          "name": "",
          "type": "string"
        }
      ],
      "payable": false,
      "stateMutability": "view",
      "type": "function"
    },
    {
      "constant": true,
      "inputs": [],
      "name": "getTenant",
      "outputs": [
        {
          "internalType": "string",
          "name": "",
          "type": "string"
        }
      ],
      "payable": false,
      "stateMutability": "view",
      "type": "function"
    },
    {
      "constant": true,
      "inputs": [],
      "name": "getTotalRentPaid",
      "outputs": [
        {
          "internalType": "uint256",
          "name": "",
          "type": "uint256"
        }
      ],
      "payable": false,
      "stateMutability": "view",
      "type": "function"
    },
    {
      "constant": true,
      "inputs": [],
      "name": "getNumberOfPayments",
      "outputs": [
        {
          "internalType": "uint256",
          "name": "",
          "type": "uint256"
        }
      ],
      "payable": false,
      "stateMutability": "view",
      "type": "function"
    },
    {
      "constant": true,
      "inputs": [],
      "name": "getRent",
      "outputs": [
        {
          "internalType": "string",
          "name": "",
          "type": "string"
        },
        {
          "internalType": "string",
          "name": "",
          "type": "string"
        },
        {
          "internalType": "uint256",
          "name": "",
          "type": "uint256"
        },
        {
          "internalType": "uint256",
          "name": "",
          "type": "uint256"
        }
      ],
      "payable": false,
      "stateMutability": "view",
      "type": "function"
    },
    {
      "constant": false,
      "inputs": [
        {
          "internalType": "string",
          "name": "tenantEmail",
          "type": "string"
        },
        {
          "internalType": "uint256",
          "name": "amount",
          "type": "uint256"
        }
      ],
      "name": "receiveMonthlyRent",
      "outputs": [],
      "payable": true,
      "stateMutability": "payable",
      "type": "function"
    },
    {
      "constant": false,
      "inputs": [],
      "name": "killContract",
      "outputs": [],
      "payable": false,
      "stateMutability": "nonpayable",
      "type": "function"
    }
  ],
  "bytecode": "0x608060405260008060006101000a81548160ff0219169083151502179055503480156200002b57600080fd5b5060405162001b3b38038062001b3b833981810160405260a08110156200005157600080fd5b81019080805160405193929190846401000000008211156200007257600080fd5b838201915060208201858111156200008957600080fd5b8251866001820283011164010000000082111715620000a757600080fd5b8083526020830192505050908051906020019080838360005b83811015620000dd578082015181840152602081019050620000c0565b50505050905090810190601f1680156200010b5780820380516001836020036101000a031916815260200191505b50604052602001805160405193929190846401000000008211156200012f57600080fd5b838201915060208201858111156200014657600080fd5b82518660018202830111640100000000821117156200016457600080fd5b8083526020830192505050908051906020019080838360005b838110156200019a5780820151818401526020810190506200017d565b50505050905090810190601f168015620001c85780820380516001836020036101000a031916815260200191505b5060405260200180516040519392919084640100000000821115620001ec57600080fd5b838201915060208201858111156200020357600080fd5b82518660018202830111640100000000821117156200022157600080fd5b8083526020830192505050908051906020019080838360005b83811015620002575780820151818401526020810190506200023a565b50505050905090810190601f168015620002855780820380516001836020036101000a031916815260200191505b50604052602001805190602001909291908051906020019092919050505080420160018190555033600060016101000a81548173ffffffffffffffffffffffffffffffffffffffff021916908373ffffffffffffffffffffffffffffffffffffffff1602179055508360039080519060200190620003059291906200069f565b5082600290805190602001906200031e9291906200069f565b506200032962000726565b60405180606001604052808781526020014281526020018481525090506040518060c0016040528085815260200186815260200187815260200182815260200182602001518152602001600154815250600560008201518160000190805190602001906200039992919062000747565b506020820151816001019080519060200190620003b892919062000747565b506040820151816002019080519060200190620003d792919062000747565b506060820151816003016000820151816000019080519060200190620003ff92919062000747565b50602082015181600101556040820151816002015550506080820151816006015560a082015181600701559050506005600f876040518082805190602001908083835b6020831062000467578051825260208201915060208101905060208303925062000442565b6001836020036101000a038019825116818451168082178552505050505050905001915050908152602001604051809103902060008201816000019080546001816001161561010002031660029004620004c3929190620007ce565b5060018201816001019080546001816001161561010002031660029004620004ed929190620007ce565b506002820181600201908054600181600116156101000203166002900462000517929190620007ce565b5060038201816003016000820181600001908054600181600116156101000203166002900462000549929190620007ce565b50600182015481600101556002820154816002015550506006820154816006015560078201548160070155905050600d81908060018154018082558091505090600182039060005260206000209060030201600090919290919091506000820151816000019080519060200190620005c392919062000747565b506020820151816001015560408201518160020155505050620006048160400151600454620006166401000000000262001124179091906401000000009004565b60048190555050505050505062000884565b60008082840190508381101562000695576040517f08c379a000000000000000000000000000000000000000000000000000000000815260040180806020018281038252601b8152602001807f536166654d6174683a206164646974696f6e206f766572666c6f77000000000081525060200191505060405180910390fd5b8091505092915050565b828054600181600116156101000203166002900490600052602060002090601f016020900481019282601f10620006e257805160ff191683800117855562000713565b8280016001018555821562000713579182015b8281111562000712578251825591602001919060010190620006f5565b5b5090506200072291906200085c565b5090565b60405180606001604052806060815260200160008152602001600081525090565b828054600181600116156101000203166002900490600052602060002090601f016020900481019282601f106200078a57805160ff1916838001178555620007bb565b82800160010185558215620007bb579182015b82811115620007ba5782518255916020019190600101906200079d565b5b509050620007ca91906200085c565b5090565b828054600181600116156101000203166002900490600052602060002090601f016020900481019282601f1062000809578054855562000849565b828001600101855582156200084957600052602060002091601f016020900482015b82811115620008485782548255916001019190600101906200082b565b5b5090506200085891906200085c565b5090565b6200088191905b808211156200087d57600081600090555060010162000863565b5090565b90565b6112a780620008946000396000f3fe6080604052600436106100a3576000357c010000000000000000000000000000000000000000000000000000000090048063893d20e811610076578063893d20e8146101a2578063af908f3f146101f9578063d6ce411214610228578063e0719564146102ed578063f502236d146103f7576100a3565b80630b3bb024146100a55780631c02708d14610135578063522957231461014c5780637915d32814610177575b005b3480156100b157600080fd5b506100ba610487565b6040518080602001828103825283818151815260200191508051906020019080838360005b838110156100fa5780820151818401526020810190506100df565b50505050905090810190601f1680156101275780820380516001836020036101000a031916815260200191505b509250505060405180910390f35b34801561014157600080fd5b5061014a610583565b005b34801561015857600080fd5b50610161610618565b6040518082815260200191505060405180910390f35b34801561018357600080fd5b5061018c61067e565b6040518082815260200191505060405180910390f35b3480156101ae57600080fd5b506101b76106e1565b604051808273ffffffffffffffffffffffffffffffffffffffff1673ffffffffffffffffffffffffffffffffffffffff16815260200191505060405180910390f35b34801561020557600080fd5b5061020e610764565b604051808215151515815260200191505060405180910390f35b6102eb6004803603604081101561023e57600080fd5b810190808035906020019064010000000081111561025b57600080fd5b82018360208201111561026d57600080fd5b8035906020019184600183028401116401000000008311171561028f57600080fd5b91908080601f016020809104026020016040519081016040528093929190818152602001838380828437600081840152601f19601f82011690508083019250505050505050919291929080359060200190929190505050610776565b005b3480156102f957600080fd5b50610302610e49565b604051808060200180602001858152602001848152602001838103835287818151815260200191508051906020019080838360005b83811015610352578082015181840152602081019050610337565b50505050905090810190601f16801561037f5780820380516001836020036101000a031916815260200191505b50838103825286818151815260200191508051906020019080838360005b838110156103b857808201518184015260208101905061039d565b50505050905090810190601f1680156103e55780820380516001836020036101000a031916815260200191505b50965050505050505060405180910390f35b34801561040357600080fd5b5061040c611005565b6040518080602001828103825283818151815260200191508051906020019080838360005b8381101561044c578082015181840152602081019050610431565b50505050905090810190601f1680156104795780820380516001836020036101000a031916815260200191505b509250505060405180910390f35b6060600060019054906101000a900473ffffffffffffffffffffffffffffffffffffffff1673ffffffffffffffffffffffffffffffffffffffff163373ffffffffffffffffffffffffffffffffffffffff16146104e357600080fd5b60038054600181600116156101000203166002900480601f0160208091040260200160405190810160405280929190818152602001828054600181600116156101000203166002900480156105795780601f1061054e57610100808354040283529160200191610579565b820191906000526020600020905b81548152906001019060200180831161055c57829003601f168201915b5050505050905090565b600060019054906101000a900473ffffffffffffffffffffffffffffffffffffffff1673ffffffffffffffffffffffffffffffffffffffff163373ffffffffffffffffffffffffffffffffffffffff16146105dd57600080fd5b600060019054906101000a900473ffffffffffffffffffffffffffffffffffffffff1673ffffffffffffffffffffffffffffffffffffffff16ff5b60008060019054906101000a900473ffffffffffffffffffffffffffffffffffffffff1673ffffffffffffffffffffffffffffffffffffffff163373ffffffffffffffffffffffffffffffffffffffff161461067357600080fd5b600d80549050905090565b60008060019054906101000a900473ffffffffffffffffffffffffffffffffffffffff1673ffffffffffffffffffffffffffffffffffffffff163373ffffffffffffffffffffffffffffffffffffffff16146106d957600080fd5b600454905090565b60008060019054906101000a900473ffffffffffffffffffffffffffffffffffffffff1673ffffffffffffffffffffffffffffffffffffffff163373ffffffffffffffffffffffffffffffffffffffff161461073c57600080fd5b600060019054906101000a900473ffffffffffffffffffffffffffffffffffffffff16905090565b6000809054906101000a900460ff1681565b600060019054906101000a900473ffffffffffffffffffffffffffffffffffffffff1673ffffffffffffffffffffffffffffffffffffffff163373ffffffffffffffffffffffffffffffffffffffff16146107d057600080fd5b6107d8611101565b610e4557806107e68161110d565b5082606060056002018054600181600116156101000203166002900480601f0160208091040260200160405190810160405280929190818152602001828054600181600116156101000203166002900480156108835780601f1061085857610100808354040283529160200191610883565b820191906000526020600020905b81548152906001019060200180831161086657829003601f168201915b505050505090506060600f836040518082805190602001908083835b602083106108c2578051825260208201915060208101905060208303925061089f565b6001836020036101000a03801982511681845116808217855250505050505090500191505090815260200160405180910390206001018054600181600116156101000203166002900480601f01602080910402602001604051908101604052809291908181526020018280546001816001161561010002031660029004801561098c5780601f106109615761010080835404028352916020019161098c565b820191906000526020600020905b81548152906001019060200180831161096f57829003601f168201915b50505050509050606060038054600181600116156101000203166002900480601f016020809104026020016040519081016040528092919081815260200182805460018160011615610100020316600290048015610a2b5780601f10610a0057610100808354040283529160200191610a2b565b820191906000526020600020905b815481529060010190602001808311610a0e57829003601f168201915b50505050509050826040516020018082805190602001908083835b60208310610a695780518252602082019150602081019050602083039250610a46565b6001836020036101000a03801982511681845116808217855250505050505090500191505060405160208183030381529060405280519060200120846040516020018082805190602001908083835b60208310610adb5780518252602082019150602081019050602083039250610ab8565b6001836020036101000a0380198251168184511680821785525050505050509050019150506040516020818303038152906040528051906020012014610b89576040517f08c379a00000000000000000000000000000000000000000000000000000000081526004018080602001828103825260148152602001807f4e4f54205448452052494748542054454e414e5400000000000000000000000081525060200191505060405180910390fd5b816040516020018082805190602001908083835b60208310610bc05780518252602082019150602081019050602083039250610b9d565b6001836020036101000a03801982511681845116808217855250505050505090500191505060405160208183030381529060405280519060200120816040516020018082805190602001908083835b60208310610c325780518252602082019150602081019050602083039250610c0f565b6001836020036101000a0380198251168184511680821785525050505050509050019150506040516020818303038152906040528051906020012014610ce0576040517f08c379a00000000000000000000000000000000000000000000000000000000081526004018080602001828103825260148152602001807f4e4f54205448452052494748542054454e414e5400000000000000000000000081525060200191505060405180910390fd5b610ce86111ac565b6040518060600160405280898152602001428152602001888152509050600d81908060018154018082558091505090600182039060005260206000209060030201600090919290919091506000820151816000019080519060200190610d4f9291906111cd565b506020820151816001015560408201518160020155505050610d80816040015160045461112490919063ffffffff16565b6004819055507fc0c44e71b116e1f49f140c0af676d78bcbf56d7a7a3fba7ecaa5eb76a477ee4a8160000151826020015183604001516040518080602001848152602001838152602001828103825285818151815260200191508051906020019080838360005b83811015610e02578082015181840152602081019050610de7565b50505050905090810190601f168015610e2f5780820380516001836020036101000a031916815260200191505b5094505050505060405180910390a15050505050505b5050565b606080600080600060019054906101000a900473ffffffffffffffffffffffffffffffffffffffff1673ffffffffffffffffffffffffffffffffffffffff163373ffffffffffffffffffffffffffffffffffffffff1614610ea957600080fd5b60056000016005600101600560060154600560070154838054600181600116156101000203166002900480601f016020809104026020016040519081016040528092919081815260200182805460018160011615610100020316600290048015610f545780601f10610f2957610100808354040283529160200191610f54565b820191906000526020600020905b815481529060010190602001808311610f3757829003601f168201915b50505050509350828054600181600116156101000203166002900480601f016020809104026020016040519081016040528092919081815260200182805460018160011615610100020316600290048015610ff05780601f10610fc557610100808354040283529160200191610ff0565b820191906000526020600020905b815481529060010190602001808311610fd357829003601f168201915b50505050509250935093509350935090919293565b6060600060019054906101000a900473ffffffffffffffffffffffffffffffffffffffff1673ffffffffffffffffffffffffffffffffffffffff163373ffffffffffffffffffffffffffffffffffffffff161461106157600080fd5b60028054600181600116156101000203166002900480601f0160208091040260200160405190810160405280929190818152602001828054600181600116156101000203166002900480156110f75780601f106110cc576101008083540402835291602001916110f7565b820191906000526020600020905b8154815290600101906020018083116110da57829003601f168201915b5050505050905090565b60006001544211905090565b60008082141561111c57600080fd5b819050919050565b6000808284019050838110156111a2576040517f08c379a000000000000000000000000000000000000000000000000000000000815260040180806020018281038252601b8152602001807f536166654d6174683a206164646974696f6e206f766572666c6f77000000000081525060200191505060405180910390fd5b8091505092915050565b60405180606001604052806060815260200160008152602001600081525090565b828054600181600116156101000203166002900490600052602060002090601f016020900481019282601f1061120e57805160ff191683800117855561123c565b8280016001018555821561123c579182015b8281111561123b578251825591602001919060010190611220565b5b509050611249919061124d565b5090565b61126f91905b8082111561126b576000816000905550600101611253565b5090565b9056fea265627a7a723158209f5fb7a2115786ca2b5c55b3132dfd7d4b8bc20c8f553686c1ce8658ea7a74e764736f6c63430005110032",
  "source": "// SPDX-License-Identifier: SEE LICENSE IN LICENSE\r\npragma solidity 0.5.17;\r\n\r\n\r\n// import \"github.com/oraclize/ethereum-api/oraclizeAPI.sol\"; // ORACLIZE LIBRARY TO BE INTEGRATED SOON ..\r\nimport \"./SafeMath.sol\"; // LIBRARY TO MAKE SAFE MATHEMATICAL CALCULATIONS IN THIS CONTRACT\r\n\r\n\r\n// contract RentToContract is usingOraclize {\r\ncontract RentToContract {\r\n   \r\n  /* // ALL THE STUFF YOU'LL NEED TO INTEGRATE WITH ORACLIZE, USING Provable\r\n  uint public balance;\r\n\r\n  event Log(string text);\r\n  \r\n\r\n  function __callback(bytes32 _myid, string memory _result) {\r\n      require (msg.sender == oraclize_cbAddress());\r\n      Log(_result);\r\n      price = parseInt(_result, 2); // let's save it as $ cents\r\n  }\r\n  \r\n  function updatePrice() public payable {\r\n    emit Log(\"Oraclize query was sent, waiting for the answer..\");\r\n    oraclize_query(\"URL\",\"json(https://min-api.cryptocompare.com/data/price?fsym=ETH&tsyms=USD).USD\");\r\n    \r\n    if (oraclize_getPrice(\"URL\") > balance) {\r\n      emit Log(\"Oraclize query was NOT sent, please add some ETH to cover for the query fee\");\r\n    } else {\r\n      emit Log(\"Oraclize query was sent, standing by for the answer..\");\r\n      oraclize_query(\"URL\", \"json(https://api.pro.coinbase.com/products/ETH-USD/ticker).price\");\r\n    }\r\n  }\r\n  */\r\n\r\n  using SafeMath  for uint;\r\n  \r\n  bool public circuitBreakerStopped = false;\r\n  address payable owner;\r\n  uint contractExpired; // THE RENT EXPIRATION DATE \r\n  // \r\n  string landlord;\r\n  string tenant;\r\n  uint totalRentPaid;\r\n  Rent rentSetup;\r\n  RentPayment[] payments;\r\n  // \r\n  mapping(address => bool) admins;\r\n  mapping(string => Rent) rentSetupMap;\r\n\r\n  // GETTER FUNCTIONS \r\n\r\n  function getOwner() public view ownerOnly() returns (address) {\r\n    return owner;\r\n  }\r\n\r\n  function getLandlord() public view ownerOnly() returns (string memory) {\r\n    return landlord;\r\n  }\r\n\r\n  function getTenant() public view ownerOnly() returns (string memory) {\r\n    return tenant;\r\n  }\r\n\r\n  function getTotalRentPaid() public view ownerOnly() returns (uint) {\r\n    return totalRentPaid;\r\n  }\r\n\r\n  function getNumberOfPayments() public view ownerOnly() returns (uint) {\r\n    return payments.length;\r\n  }\r\n\r\n  function getRent() public view ownerOnly() returns (string memory, string memory, uint, uint) {\r\n    return (rentSetup.landlordName, rentSetup.tenantName, rentSetup.firstPaymentDate, rentSetup.rentExpirationDate);\r\n  }\r\n  // \r\n  event RentPaymentMade(string tenantEmail, uint paymentDate, uint amount);\r\n  // \r\n  struct Rent {\r\n    string landlordName;\r\n    string tenantName;\r\n    string tenantEmail;\r\n    RentPayment firstPayment;\r\n    uint firstPaymentDate;\r\n    uint rentExpirationDate;\r\n  }\r\n\r\n  struct RentPayment {\r\n    string tenantEmail;\r\n    uint paymentDate;\r\n    uint amount;\r\n  }\r\n\r\n  modifier validateTenant(string memory tenantEmail) { // CHECKS IF THE TENANT (tenantEmail) INDEED IN THE RENT PAYER\r\n    string memory te = rentSetup.tenantEmail;\r\n    string memory tn = rentSetupMap[tenantEmail].tenantName;\r\n    string memory mainTn = tenant;\r\n    require((keccak256(abi.encodePacked(tenantEmail)) == keccak256(abi.encodePacked(te))), \"NOT THE RIGHT TENANT\");\r\n    require((keccak256(abi.encodePacked(mainTn)) == keccak256(abi.encodePacked(tn))), \"NOT THE RIGHT TENANT\");\r\n    _;\r\n  }\r\n  \r\n  modifier validateAmount(uint amount) { // CHECKS IF THE AMOUNT IS HIGHER THAN 0\r\n    throwsErrorIfZero(amount); // NO NEED TO WORK WITH THE RETURN VALUE FOR block.timestamp ..\r\n    _;\r\n  }\r\n\r\n  function throwsErrorIfZero(uint num) private pure returns (uint) {\r\n    require(num != 0);\r\n    return num;\r\n  }\r\n\r\n  modifier isNotDeprecated {\r\n    if(!rentContractExpired()) _;\r\n  }\r\n\r\n  modifier isDeprecated {\r\n    if(rentContractExpired()) _;\r\n  }\r\n\r\n  function rentContractExpired() private view returns (bool) {\r\n    return block.timestamp > contractExpired;\r\n  }\r\n\r\n  modifier ownerOnly() {\r\n    require(msg.sender == owner);\r\n    _;\r\n  }\r\n\r\n  modifier onlyAdmin {\r\n    require(admins[msg.sender] == true, \"NOT AN ADMIN\");\r\n    _;\r\n  }\r\n\r\n  function addAdmin(address _a) private onlyAdmin returns (bool) {\r\n    admins[_a] = true;\r\n    return true;\r\n  }\r\n\r\n  modifier stopInEmergency { require(!circuitBreakerStopped, \"...\"); _; }\r\n  modifier onlyInEmergency { require(circuitBreakerStopped, \"...\"); _; }\r\n  \r\n  /* SAMPLE FUNCTIONS TO TEST THE CIRCUIT BREAKER DESIGN PATTERN ..\r\n  function deposit() public stopInEmergency {}\r\n  function withdraw() public onlyInEmergency {} \r\n  */\r\n\r\n\r\n  constructor(string memory tenantEmail, string memory tenantName, string memory landlordName, uint amount, uint duration) public {\r\n    contractExpired = block.timestamp + duration; // SET THE RENT duration AS THE DATE THAT THIS CONTRACT TO EXPIRE (Auto Deprecate Design Pattern)\r\n    owner = (msg.sender); \r\n    // addAdmin(msg.sender);\r\n    tenant = tenantName; landlord = landlordName;\r\n    RentPayment memory payment1 = RentPayment({\r\n      tenantEmail: tenantEmail,\r\n      paymentDate: block.timestamp,\r\n      amount: amount\r\n    }); // SETUP THE FIRST RENT PAYMENT OBJECT\r\n    rentSetup = Rent({\r\n      tenantEmail: tenantEmail,\r\n      tenantName: tenantName,\r\n      landlordName: landlordName,\r\n      firstPayment: payment1,\r\n      firstPaymentDate: payment1.paymentDate,\r\n      rentExpirationDate: contractExpired\r\n    }); // SETUP THE RENT OBJECT\r\n    rentSetupMap[tenantEmail] = rentSetup; // DO THIS IN CASE IN FUTURE, YOU'LL WANT TO MANAGE MULTIPLE RENT SETUPS\r\n    payments.push(payment1); // LET'S NOT emit THE RentPaymentMade EVENT ON THE 1ST PAYMENT\r\n    totalRentPaid = totalRentPaid.add(payment1.amount);\r\n  }\r\n\r\n  function receiveMonthlyRent(string memory tenantEmail, uint amount) public payable\r\n    ownerOnly() \r\n    // onlyAdmin()\r\n    isNotDeprecated() \r\n    validateAmount(amount)\r\n    validateTenant(tenantEmail) \r\n  { // WHEN EXPANDING THE PLATFORM, THIS FUNCTION SHOULD BE ABLE TO RECEIVE RENT IN ETHER TOO ..\r\n    RentPayment memory payment = RentPayment({\r\n      tenantEmail: tenantEmail,\r\n      paymentDate: block.timestamp,\r\n      amount: amount\r\n    }); // SETUP A RENT PAYMENT OBJECT\r\n    payments.push(payment); // ADD RENT payment, THEN EMIT THE RentPaymentMade EVENT\r\n    totalRentPaid = totalRentPaid.add(payment.amount);\r\n    emit RentPaymentMade(payment.tenantEmail, payment.paymentDate, payment.amount);\r\n  }\r\n\r\n  function killContract() public ownerOnly() {\r\n    selfdestruct(address(uint160(owner))); // TAKES AN ADDRESS OF CONTRACT TO KILL\r\n  }\r\n\r\n  // FALLBACK FUNCTION TO RUN WHENEVER THERE'S SOME KINDA ISSUE ..\r\n  function() external payable { // NO function name, params, or return values ..\r\n      /* THIS FALLBACK FUNCTION WILL EXECUTE IF THE CLIENT CALLS A FUNCTION\r\n        THAT DOESN'T EXIST IN THIS CONTRACT (i.e. funct's identifier isn't defined)\r\n        CONTRACTS CAN HAVE ONLY 1 FALLBACK FUNCTION\r\n        AUTOMATICALLY HAS A GAS LIMIT OF 2300, \r\n        MAKE FALLBACK FUNCTIONS AS CHEAP AS POSSIBLE\r\n      */\r\n   }\r\n\r\n}",
  "sourcePath": "C:\\Users\\afegb\\Downloads\\enlist\\BlocProperties-Enlistment-Project\\contracts\\RentToContract.sol",
  "compiler": {
    "name": "solc",
    "version": "0.5.17+commit.d19bba13.Emscripten.clang"
  },
  "schemaVersion": "3.0.0-beta.2",
  "updatedAt": "2022-12-04T16:53:01.145Z",
  "devdoc": {
    "methods": {}
  },
  "userdoc": {
    "methods": {}
  }
}