{
  "contractName": "RentContract",
  "abi": [
    {
      "inputs": [
        {
          "internalType": "string",
          "name": "_tenantEmail",
          "type": "string"
        },
        {
          "internalType": "string",
          "name": "_tenantName",
          "type": "string"
        },
        {
          "internalType": "string",
          "name": "_landlordName",
          "type": "string"
        },
        {
          "internalType": "uint256",
          "name": "_amount",
          "type": "uint256"
        },
        {
          "internalType": "uint256",
          "name": "_duration",
          "type": "uint256"
        }
      ],
      "stateMutability": "nonpayable",
      "type": "constructor"
    },
    {
      "anonymous": false,
      "inputs": [
        {
          "indexed": false,
          "internalType": "string",
          "name": "tenantEmail",
          "type": "string"
        },
        {
          "indexed": false,
          "internalType": "uint256",
          "name": "paymentDate",
          "type": "uint256"
        },
        {
          "indexed": false,
          "internalType": "uint256",
          "name": "amount",
          "type": "uint256"
        }
      ],
      "name": "RentPaymentMade",
      "type": "event"
    },
    {
      "inputs": [
        {
          "internalType": "address",
          "name": "",
          "type": "address"
        }
      ],
      "name": "admins",
      "outputs": [
        {
          "internalType": "bool",
          "name": "",
          "type": "bool"
        }
      ],
      "stateMutability": "view",
      "type": "function"
    },
    {
      "inputs": [],
      "name": "circuitBreakerStopped",
      "outputs": [
        {
          "internalType": "bool",
          "name": "",
          "type": "bool"
        }
      ],
      "stateMutability": "view",
      "type": "function"
    },
    {
      "inputs": [],
      "name": "contractExpirationDate",
      "outputs": [
        {
          "internalType": "uint256",
          "name": "",
          "type": "uint256"
        }
      ],
      "stateMutability": "view",
      "type": "function"
    },
    {
      "inputs": [],
      "name": "landlord",
      "outputs": [
        {
          "internalType": "string",
          "name": "",
          "type": "string"
        }
      ],
      "stateMutability": "view",
      "type": "function"
    },
    {
      "inputs": [],
      "name": "owner",
      "outputs": [
        {
          "internalType": "address payable",
          "name": "",
          "type": "address"
        }
      ],
      "stateMutability": "view",
      "type": "function"
    },
    {
      "inputs": [
        {
          "internalType": "uint256",
          "name": "",
          "type": "uint256"
        }
      ],
      "name": "payments",
      "outputs": [
        {
          "internalType": "string",
          "name": "tenantEmail",
          "type": "string"
        },
        {
          "internalType": "uint256",
          "name": "paymentDate",
          "type": "uint256"
        },
        {
          "internalType": "uint256",
          "name": "amount",
          "type": "uint256"
        }
      ],
      "stateMutability": "view",
      "type": "function"
    },
    {
      "inputs": [],
      "name": "rentSetup",
      "outputs": [
        {
          "internalType": "string",
          "name": "landlordName",
          "type": "string"
        },
        {
          "internalType": "string",
          "name": "tenantName",
          "type": "string"
        },
        {
          "internalType": "string",
          "name": "tenantEmail",
          "type": "string"
        },
        {
          "components": [
            {
              "internalType": "string",
              "name": "tenantEmail",
              "type": "string"
            },
            {
              "internalType": "uint256",
              "name": "paymentDate",
              "type": "uint256"
            },
            {
              "internalType": "uint256",
              "name": "amount",
              "type": "uint256"
            }
          ],
          "internalType": "struct RentContract.RentPayment",
          "name": "firstPayment",
          "type": "tuple"
        },
        {
          "internalType": "uint256",
          "name": "firstPaymentDate",
          "type": "uint256"
        },
        {
          "internalType": "uint256",
          "name": "rentExpirationDate",
          "type": "uint256"
        }
      ],
      "stateMutability": "view",
      "type": "function"
    },
    {
      "inputs": [
        {
          "internalType": "string",
          "name": "",
          "type": "string"
        }
      ],
      "name": "rentSetupMap",
      "outputs": [
        {
          "internalType": "string",
          "name": "landlordName",
          "type": "string"
        },
        {
          "internalType": "string",
          "name": "tenantName",
          "type": "string"
        },
        {
          "internalType": "string",
          "name": "tenantEmail",
          "type": "string"
        },
        {
          "components": [
            {
              "internalType": "string",
              "name": "tenantEmail",
              "type": "string"
            },
            {
              "internalType": "uint256",
              "name": "paymentDate",
              "type": "uint256"
            },
            {
              "internalType": "uint256",
              "name": "amount",
              "type": "uint256"
            }
          ],
          "internalType": "struct RentContract.RentPayment",
          "name": "firstPayment",
          "type": "tuple"
        },
        {
          "internalType": "uint256",
          "name": "firstPaymentDate",
          "type": "uint256"
        },
        {
          "internalType": "uint256",
          "name": "rentExpirationDate",
          "type": "uint256"
        }
      ],
      "stateMutability": "view",
      "type": "function"
    },
    {
      "inputs": [],
      "name": "tenant",
      "outputs": [
        {
          "internalType": "string",
          "name": "",
          "type": "string"
        }
      ],
      "stateMutability": "view",
      "type": "function"
    },
    {
      "inputs": [],
      "name": "totalRentPaid",
      "outputs": [
        {
          "internalType": "uint256",
          "name": "",
          "type": "uint256"
        }
      ],
      "stateMutability": "view",
      "type": "function"
    },
    {
      "inputs": [
        {
          "internalType": "string",
          "name": "_tenantEmail",
          "type": "string"
        },
        {
          "internalType": "uint256",
          "name": "_amount",
          "type": "uint256"
        }
      ],
      "name": "receiveMonthlyRent",
      "outputs": [],
      "stateMutability": "payable",
      "type": "function"
    },
    {
      "inputs": [],
      "name": "killContract",
      "outputs": [],
      "stateMutability": "nonpayable",
      "type": "function"
    },
    {
      "inputs": [],
      "name": "rentContractExpired",
      "outputs": [
        {
          "internalType": "bool",
          "name": "",
          "type": "bool"
        }
      ],
      "stateMutability": "view",
      "type": "function"
    }
  ],
  "bytecode": "0x608060405260008060006101000a81548160ff0219169083151502179055503480156200002b57600080fd5b5060405162002384380380620023848339818101604052810190620000519190620006e7565b6200006b81426200036460201b62000e961790919060201c565b60018190555033600060016101000a81548173ffffffffffffffffffffffffffffffffffffffff021916908373ffffffffffffffffffffffffffffffffffffffff1602179055508360039080519060200190620000ca929190620003c7565b508260029080519060200190620000e3929190620003c7565b50600060405180606001604052808781526020014281526020018481525090506040518060c00160405280858152602001868152602001878152602001828152602001826020015181526020016001548152506005600082015181600001908051906020019062000156929190620003c7565b50602082015181600101908051906020019062000175929190620003c7565b50604082015181600201908051906020019062000194929190620003c7565b506060820151816003016000820151816000019080519060200190620001bc929190620003c7565b50602082015181600101556040820151816002015550506080820151816006015560a082015181600701559050506005600f87604051620001fe919062000819565b90815260200160405180910390206000820181600001908054620002229062000861565b6200022f92919062000458565b506001820181600101908054620002469062000861565b6200025392919062000458565b5060028201816002019080546200026a9062000861565b6200027792919062000458565b5060038201816003016000820181600001908054620002969062000861565b620002a392919062000458565b50600182015481600101556002820154816002015550506006820154816006015560078201548160070155905050600d81908060018154018082558091505060019003906000526020600020906003020160009091909190915060008201518160000190805190602001906200031b929190620003c7565b50602082015181600101556040820151816002015550506200035281604001516004546200036460201b62000e961790919060201c565b600481905550505050505050620009a5565b6000808284620003759190620008c5565b905083811015620003bd576040517f08c379a0000000000000000000000000000000000000000000000000000000008152600401620003b49062000983565b60405180910390fd5b8091505092915050565b828054620003d59062000861565b90600052602060002090601f016020900481019282620003f9576000855562000445565b82601f106200041457805160ff191683800117855562000445565b8280016001018555821562000445579182015b828111156200044457825182559160200191906001019062000427565b5b509050620004549190620004f0565b5090565b828054620004669062000861565b90600052602060002090601f0160209004810192826200048a5760008555620004dd565b82601f106200049d5780548555620004dd565b82800160010185558215620004dd57600052602060002091601f016020900482015b82811115620004dc578254825591600101919060010190620004bf565b5b509050620004ec9190620004f0565b5090565b5b808211156200050b576000816000905550600101620004f1565b5090565b6000604051905090565b600080fd5b600080fd5b600080fd5b600080fd5b6000601f19601f8301169050919050565b7f4e487b7100000000000000000000000000000000000000000000000000000000600052604160045260246000fd5b62000578826200052d565b810181811067ffffffffffffffff821117156200059a57620005996200053e565b5b80604052505050565b6000620005af6200050f565b9050620005bd82826200056d565b919050565b600067ffffffffffffffff821115620005e057620005df6200053e565b5b620005eb826200052d565b9050602081019050919050565b60005b8381101562000618578082015181840152602081019050620005fb565b8381111562000628576000848401525b50505050565b6000620006456200063f84620005c2565b620005a3565b90508281526020810184848401111562000664576200066362000528565b5b62000671848285620005f8565b509392505050565b600082601f83011262000691576200069062000523565b5b8151620006a38482602086016200062e565b91505092915050565b6000819050919050565b620006c181620006ac565b8114620006cd57600080fd5b50565b600081519050620006e181620006b6565b92915050565b600080600080600060a0868803121562000706576200070562000519565b5b600086015167ffffffffffffffff8111156200072757620007266200051e565b5b620007358882890162000679565b955050602086015167ffffffffffffffff8111156200075957620007586200051e565b5b620007678882890162000679565b945050604086015167ffffffffffffffff8111156200078b576200078a6200051e565b5b620007998882890162000679565b9350506060620007ac88828901620006d0565b9250506080620007bf88828901620006d0565b9150509295509295909350565b600081519050919050565b600081905092915050565b6000620007ef82620007cc565b620007fb8185620007d7565b93506200080d818560208601620005f8565b80840191505092915050565b6000620008278284620007e2565b915081905092915050565b7f4e487b7100000000000000000000000000000000000000000000000000000000600052602260045260246000fd5b600060028204905060018216806200087a57607f821691505b60208210810362000890576200088f62000832565b5b50919050565b7f4e487b7100000000000000000000000000000000000000000000000000000000600052601160045260246000fd5b6000620008d282620006ac565b9150620008df83620006ac565b9250827fffffffffffffffffffffffffffffffffffffffffffffffffffffffffffffffff0382111562000917576200091662000896565b5b828201905092915050565b600082825260208201905092915050565b7f536166654d6174683a206164646974696f6e206f766572666c6f770000000000600082015250565b60006200096b601b8362000922565b9150620009788262000933565b602082019050919050565b600060208201905081810360008301526200099e816200095c565b9050919050565b6119cf80620009b56000396000f3fe6080604052600436106100c25760003560e01c806396bb02e91161007f578063ccc3e2d711610059578063ccc3e2d714610261578063d6ce4112146102a3578063dc1997ea146102bf578063ee0850e4146102ea576100c2565b806396bb02e9146101e0578063adf077911461020b578063af908f3f14610236576100c2565b8063042171c4146100c75780631c02708d146100f25780633986664b14610109578063429b62e51461013957806387d81789146101765780638da5cb5b146101b5575b600080fd5b3480156100d357600080fd5b506100dc610315565b6040516100e99190610fb2565b60405180910390f35b3480156100fe57600080fd5b50610107610321565b005b34801561011557600080fd5b5061011e61041c565b60405161013096959493929190611128565b60405180910390f35b34801561014557600080fd5b50610160600480360381019061015b9190611217565b61068e565b60405161016d9190610fb2565b60405180910390f35b34801561018257600080fd5b5061019d60048036038101906101989190611270565b6106ae565b6040516101ac9392919061129d565b60405180910390f35b3480156101c157600080fd5b506101ca610770565b6040516101d791906112fc565b60405180910390f35b3480156101ec57600080fd5b506101f5610796565b6040516102029190611317565b60405180910390f35b34801561021757600080fd5b5061022061079c565b60405161022d9190611332565b60405180910390f35b34801561024257600080fd5b5061024b61082a565b6040516102589190610fb2565b60405180910390f35b34801561026d57600080fd5b5061028860048036038101906102839190611489565b61083b565b60405161029a96959493929190611128565b60405180910390f35b6102bd60048036038101906102b891906114d2565b610ad5565b005b3480156102cb57600080fd5b506102d4610e02565b6040516102e19190611332565b60405180910390f35b3480156102f657600080fd5b506102ff610e90565b60405161030c9190611317565b60405180910390f35b60006001544211905090565b600060019054906101000a900473ffffffffffffffffffffffffffffffffffffffff1673ffffffffffffffffffffffffffffffffffffffff163373ffffffffffffffffffffffffffffffffffffffff16146103b1576040517f08c379a00000000000000000000000000000000000000000000000000000000081526004016103a89061157a565b60405180910390fd5b600060019054906101000a900473ffffffffffffffffffffffffffffffffffffffff1673ffffffffffffffffffffffffffffffffffffffff166108fc479081150290604051600060405180830381858888f19350505050158015610419573d6000803e3d6000fd5b50565b600580600001805461042d906115c9565b80601f0160208091040260200160405190810160405280929190818152602001828054610459906115c9565b80156104a65780601f1061047b576101008083540402835291602001916104a6565b820191906000526020600020905b81548152906001019060200180831161048957829003601f168201915b5050505050908060010180546104bb906115c9565b80601f01602080910402602001604051908101604052809291908181526020018280546104e7906115c9565b80156105345780601f1061050957610100808354040283529160200191610534565b820191906000526020600020905b81548152906001019060200180831161051757829003601f168201915b505050505090806002018054610549906115c9565b80601f0160208091040260200160405190810160405280929190818152602001828054610575906115c9565b80156105c25780601f10610597576101008083540402835291602001916105c2565b820191906000526020600020905b8154815290600101906020018083116105a557829003601f168201915b505050505090806003016040518060600160405290816000820180546105e7906115c9565b80601f0160208091040260200160405190810160405280929190818152602001828054610613906115c9565b80156106605780601f1061063557610100808354040283529160200191610660565b820191906000526020600020905b81548152906001019060200180831161064357829003601f168201915b5050505050815260200160018201548152602001600282015481525050908060060154908060070154905086565b600e6020528060005260406000206000915054906101000a900460ff1681565b600d81815481106106be57600080fd5b90600052602060002090600302016000915090508060000180546106e1906115c9565b80601f016020809104026020016040519081016040528092919081815260200182805461070d906115c9565b801561075a5780601f1061072f5761010080835404028352916020019161075a565b820191906000526020600020905b81548152906001019060200180831161073d57829003601f168201915b5050505050908060010154908060020154905083565b600060019054906101000a900473ffffffffffffffffffffffffffffffffffffffff1681565b60015481565b600380546107a9906115c9565b80601f01602080910402602001604051908101604052809291908181526020018280546107d5906115c9565b80156108225780601f106107f757610100808354040283529160200191610822565b820191906000526020600020905b81548152906001019060200180831161080557829003601f168201915b505050505081565b60008054906101000a900460ff1681565b600f81805160208101820180518482526020830160208501208183528095505050505050600091509050806000018054610874906115c9565b80601f01602080910402602001604051908101604052809291908181526020018280546108a0906115c9565b80156108ed5780601f106108c2576101008083540402835291602001916108ed565b820191906000526020600020905b8154815290600101906020018083116108d057829003601f168201915b505050505090806001018054610902906115c9565b80601f016020809104026020016040519081016040528092919081815260200182805461092e906115c9565b801561097b5780601f106109505761010080835404028352916020019161097b565b820191906000526020600020905b81548152906001019060200180831161095e57829003601f168201915b505050505090806002018054610990906115c9565b80601f01602080910402602001604051908101604052809291908181526020018280546109bc906115c9565b8015610a095780601f106109de57610100808354040283529160200191610a09565b820191906000526020600020905b8154815290600101906020018083116109ec57829003601f168201915b50505050509080600301604051806060016040529081600082018054610a2e906115c9565b80601f0160208091040260200160405190810160405280929190818152602001828054610a5a906115c9565b8015610aa75780601f10610a7c57610100808354040283529160200191610aa7565b820191906000526020600020905b815481529060010190602001808311610a8a57829003601f168201915b5050505050815260200160018201548152602001600282015481525050908060060154908060070154905086565b600060019054906101000a900473ffffffffffffffffffffffffffffffffffffffff1673ffffffffffffffffffffffffffffffffffffffff163373ffffffffffffffffffffffffffffffffffffffff1614610b65576040517f08c379a0000000000000000000000000000000000000000000000000000000008152600401610b5c9061157a565b60405180910390fd5b610b6d610315565b15610bad576040517f08c379a0000000000000000000000000000000000000000000000000000000008152600401610ba490611646565b60405180910390fd5b8060008111610bf1576040517f08c379a0000000000000000000000000000000000000000000000000000000008152600401610be8906116b2565b60405180910390fd5b826005600201604051602001610c079190611771565b6040516020818303038152906040528051906020012081604051602001610c2e91906117b9565b6040516020818303038152906040528051906020012014610c84576040517f08c379a0000000000000000000000000000000000000000000000000000000008152600401610c7b9061181c565b60405180910390fd5b6005600101604051602001610c999190611771565b604051602081830303815290604052805190602001206003604051602001610cc19190611771565b6040516020818303038152906040528051906020012014610d17576040517f08c379a0000000000000000000000000000000000000000000000000000000008152600401610d0e90611888565b60405180910390fd5b60006040518060600160405280868152602001428152602001858152509050600d8190806001815401808255809150506001900390600052602060002090600302016000909190919091506000820151816000019080519060200190610d7e929190610ef4565b5060208201518160010155604082015181600201555050610dae8160400151600454610e9690919063ffffffff16565b6004819055507fc0c44e71b116e1f49f140c0af676d78bcbf56d7a7a3fba7ecaa5eb76a477ee4a816000015182602001518360400151604051610df39392919061129d565b60405180910390a15050505050565b60028054610e0f906115c9565b80601f0160208091040260200160405190810160405280929190818152602001828054610e3b906115c9565b8015610e885780601f10610e5d57610100808354040283529160200191610e88565b820191906000526020600020905b815481529060010190602001808311610e6b57829003601f168201915b505050505081565b60045481565b6000808284610ea591906118d7565b905083811015610eea576040517f08c379a0000000000000000000000000000000000000000000000000000000008152600401610ee190611979565b60405180910390fd5b8091505092915050565b828054610f00906115c9565b90600052602060002090601f016020900481019282610f225760008555610f69565b82601f10610f3b57805160ff1916838001178555610f69565b82800160010185558215610f69579182015b82811115610f68578251825591602001919060010190610f4d565b5b509050610f769190610f7a565b5090565b5b80821115610f93576000816000905550600101610f7b565b5090565b60008115159050919050565b610fac81610f97565b82525050565b6000602082019050610fc76000830184610fa3565b92915050565b600081519050919050565b600082825260208201905092915050565b60005b83811015611007578082015181840152602081019050610fec565b83811115611016576000848401525b50505050565b6000601f19601f8301169050919050565b600061103882610fcd565b6110428185610fd8565b9350611052818560208601610fe9565b61105b8161101c565b840191505092915050565b600082825260208201905092915050565b600061108282610fcd565b61108c8185611066565b935061109c818560208601610fe9565b6110a58161101c565b840191505092915050565b6000819050919050565b6110c3816110b0565b82525050565b600060608301600083015184820360008601526110e68282611077565b91505060208301516110fb60208601826110ba565b50604083015161110e60408601826110ba565b508091505092915050565b611122816110b0565b82525050565b600060c0820190508181036000830152611142818961102d565b90508181036020830152611156818861102d565b9050818103604083015261116a818761102d565b9050818103606083015261117e81866110c9565b905061118d6080830185611119565b61119a60a0830184611119565b979650505050505050565b6000604051905090565b600080fd5b600080fd5b600073ffffffffffffffffffffffffffffffffffffffff82169050919050565b60006111e4826111b9565b9050919050565b6111f4816111d9565b81146111ff57600080fd5b50565b600081359050611211816111eb565b92915050565b60006020828403121561122d5761122c6111af565b5b600061123b84828501611202565b91505092915050565b61124d816110b0565b811461125857600080fd5b50565b60008135905061126a81611244565b92915050565b600060208284031215611286576112856111af565b5b60006112948482850161125b565b91505092915050565b600060608201905081810360008301526112b7818661102d565b90506112c66020830185611119565b6112d36040830184611119565b949350505050565b60006112e6826111b9565b9050919050565b6112f6816112db565b82525050565b600060208201905061131160008301846112ed565b92915050565b600060208201905061132c6000830184611119565b92915050565b6000602082019050818103600083015261134c818461102d565b905092915050565b600080fd5b600080fd5b7f4e487b7100000000000000000000000000000000000000000000000000000000600052604160045260246000fd5b6113968261101c565b810181811067ffffffffffffffff821117156113b5576113b461135e565b5b80604052505050565b60006113c86111a5565b90506113d4828261138d565b919050565b600067ffffffffffffffff8211156113f4576113f361135e565b5b6113fd8261101c565b9050602081019050919050565b82818337600083830152505050565b600061142c611427846113d9565b6113be565b90508281526020810184848401111561144857611447611359565b5b61145384828561140a565b509392505050565b600082601f8301126114705761146f611354565b5b8135611480848260208601611419565b91505092915050565b60006020828403121561149f5761149e6111af565b5b600082013567ffffffffffffffff8111156114bd576114bc6111b4565b5b6114c98482850161145b565b91505092915050565b600080604083850312156114e9576114e86111af565b5b600083013567ffffffffffffffff811115611507576115066111b4565b5b6115138582860161145b565b92505060206115248582860161125b565b9150509250929050565b7f4e6f7420746865206f776e657200000000000000000000000000000000000000600082015250565b6000611564600d83610fd8565b915061156f8261152e565b602082019050919050565b6000602082019050818103600083015261159381611557565b9050919050565b7f4e487b7100000000000000000000000000000000000000000000000000000000600052602260045260246000fd5b600060028204905060018216806115e157607f821691505b6020821081036115f4576115f361159a565b5b50919050565b7f436f6e7472616374206973206465707265636174656400000000000000000000600082015250565b6000611630601683610fd8565b915061163b826115fa565b602082019050919050565b6000602082019050818103600083015261165f81611623565b9050919050565b7f416d6f756e742073686f756c642062652067726561746572207468616e203000600082015250565b600061169c601f83610fd8565b91506116a782611666565b602082019050919050565b600060208201905081810360008301526116cb8161168f565b9050919050565b600081905092915050565b60008190508160005260206000209050919050565b600081546116ff816115c9565b61170981866116d2565b94506001821660008114611724576001811461173557611768565b60ff19831686528186019350611768565b61173e856116dd565b60005b8381101561176057815481890152600182019150602081019050611741565b838801955050505b50505092915050565b600061177d82846116f2565b915081905092915050565b600061179382610fcd565b61179d81856116d2565b93506117ad818560208601610fe9565b80840191505092915050565b60006117c58284611788565b915081905092915050565b7f496e76616c69642074656e616e7420656d61696c000000000000000000000000600082015250565b6000611806601483610fd8565b9150611811826117d0565b602082019050919050565b60006020820190508181036000830152611835816117f9565b9050919050565b7f496e76616c69642074656e616e74206e616d6500000000000000000000000000600082015250565b6000611872601383610fd8565b915061187d8261183c565b602082019050919050565b600060208201905081810360008301526118a181611865565b9050919050565b7f4e487b7100000000000000000000000000000000000000000000000000000000600052601160045260246000fd5b60006118e2826110b0565b91506118ed836110b0565b9250827fffffffffffffffffffffffffffffffffffffffffffffffffffffffffffffffff03821115611922576119216118a8565b5b828201905092915050565b7f536166654d6174683a206164646974696f6e206f766572666c6f770000000000600082015250565b6000611963601b83610fd8565b915061196e8261192d565b602082019050919050565b6000602082019050818103600083015261199281611956565b905091905056fea2646970667358221220f253b6492c5c238922ea62000ad12b53c31e3a561b930622145174ac3604170764736f6c634300080d0033",
  "immutableReferences": {},
  "source": "// SPDX-License-Identifier: SEE LICENSE IN LICENSE\r\npragma solidity ^0.8.0;\r\n\r\nimport \"./SafeMath.sol\";\r\n\r\ncontract RentContract {\r\n    using SafeMath for uint;\r\n\r\n    bool public circuitBreakerStopped = false;\r\n    address payable public owner;\r\n    uint public contractExpirationDate;\r\n    string public landlord;\r\n    string public tenant;\r\n    uint public totalRentPaid;\r\n    Rent public rentSetup;\r\n    RentPayment[] public payments;\r\n\r\n    mapping(address => bool) public admins;\r\n    mapping(string => Rent) public rentSetupMap;\r\n\r\n    event RentPaymentMade(string tenantEmail, uint paymentDate, uint amount);\r\n\r\n    struct Rent {\r\n        string landlordName;\r\n        string tenantName;\r\n        string tenantEmail;\r\n        RentPayment firstPayment;\r\n        uint firstPaymentDate;\r\n        uint rentExpirationDate;\r\n    }\r\n\r\n    struct RentPayment {\r\n        string tenantEmail;\r\n        uint paymentDate;\r\n        uint amount;\r\n    }\r\n\r\n    modifier validateTenant(string memory tenantEmail) {\r\n        require(keccak256(abi.encodePacked(tenantEmail)) == keccak256(abi.encodePacked(rentSetup.tenantEmail)), \"Invalid tenant email\");\r\n        require(keccak256(abi.encodePacked(tenant)) == keccak256(abi.encodePacked(rentSetup.tenantName)), \"Invalid tenant name\");\r\n        _;\r\n    }\r\n\r\n    modifier validateAmount(uint amount) {\r\n        require(amount > 0, \"Amount should be greater than 0\");\r\n        _;\r\n    }\r\n\r\n    modifier isNotDeprecated() {\r\n        require(!rentContractExpired(), \"Contract is deprecated\");\r\n        _;\r\n    }\r\n\r\n    modifier isDeprecated() {\r\n        require(rentContractExpired(), \"Contract is not deprecated\");\r\n        _;\r\n    }\r\n\r\n    modifier ownerOnly() {\r\n        require(msg.sender == owner, \"Not the owner\");\r\n        _;\r\n    }\r\n\r\n    modifier onlyAdmin() {\r\n        require(admins[msg.sender], \"Not an admin\");\r\n        _;\r\n    }\r\n\r\n    modifier stopInEmergency() {\r\n        require(!circuitBreakerStopped, \"Emergency stop is active\");\r\n        _;\r\n    }\r\n\r\n    modifier onlyInEmergency() {\r\n        require(circuitBreakerStopped, \"Not in emergency stop\");\r\n        _;\r\n    }\r\n\r\n    constructor(string memory _tenantEmail, string memory _tenantName, string memory _landlordName, uint _amount, uint _duration) {\r\n        contractExpirationDate = block.timestamp.add(_duration);\r\n        owner = payable(msg.sender);\r\n        tenant = _tenantName;\r\n        landlord = _landlordName;\r\n\r\n        RentPayment memory firstPayment = RentPayment({\r\n            tenantEmail: _tenantEmail,\r\n            paymentDate: block.timestamp,\r\n            amount: _amount\r\n        });\r\n\r\n        rentSetup = Rent({\r\n            tenantEmail: _tenantEmail,\r\n            tenantName: _tenantName,\r\n            landlordName: _landlordName,\r\n            firstPayment: firstPayment,\r\n            firstPaymentDate: firstPayment.paymentDate,\r\n            rentExpirationDate: contractExpirationDate\r\n        });\r\n\r\n        rentSetupMap[_tenantEmail] = rentSetup;\r\n        payments.push(firstPayment);\r\n        totalRentPaid = totalRentPaid.add(firstPayment.amount);\r\n    }\r\n\r\n    function receiveMonthlyRent(string memory _tenantEmail, uint _amount) public payable\r\n        ownerOnly()\r\n        isNotDeprecated()\r\n        validateAmount(_amount)\r\n        validateTenant(_tenantEmail)\r\n    {\r\n        RentPayment memory payment = RentPayment({\r\n            tenantEmail: _tenantEmail,\r\n            paymentDate: block.timestamp,\r\n            amount: _amount\r\n        });\r\n\r\n        payments.push(payment);\r\n        totalRentPaid = totalRentPaid.add(payment.amount);\r\n        emit RentPaymentMade(payment.tenantEmail, payment.paymentDate, payment.amount);\r\n    }\r\n\r\n    function killContract() public ownerOnly() {\r\n        owner.transfer(address(this).balance);\r\n    }\r\n\r\n    function rentContractExpired() public view returns (bool) {\r\n        return block.timestamp > contractExpirationDate;\r\n    }\r\n}\r\n",
  "sourcePath": "C:\\Users\\afegb\\Pictures\\BlocProperties-Enlistment-Project\\contracts\\RentToContract.sol",
  "compiler": {
    "name": "solc",
    "version": "0.8.13+commit.abaa5c0e.Emscripten.clang"
  },
  "schemaVersion": "3.4.16",
  "updatedAt": "2023-12-18T13:09:35.927Z",
  "devdoc": {
    "kind": "dev",
    "methods": {},
    "version": 1
  },
  "userdoc": {
    "kind": "user",
    "methods": {},
    "version": 1
  }
}